:0200000490006A
:10000000309D0024AD0200901948009049450090B1
:1000100011480090F1080090590B01900000000079
:10002000000000000000000000000000514D0090A2
:10003000F908009000000000F1490090414E009046
:10004000C7020090C7020090C7020090C70200904C
:10005000C7020090C7020090C7020090C70200903C
:10006000C7020090C7020090C7020090C70200902C
:10007000C7020090C7020090C7020090C70200901C
:10008000C7020090C7020090C7020090C70200900C
:10009000C7020090C7020090C7020090C7020090FC
:1000A000C7020090C7020090C7020090C7020090EC
:1000B000C7020090C7020090C7020090C7020090DC
:1000C000C7020090C7020090C7020090C7020090CC
:1000D000C7020090C7020090C7020090C7020090BC
:1000E000C7020090C702009000000000C702009005
:1000F000C7020090C7020090C7020090C70200909C
:10010000C7020090C7020090C7020090C70200908B
:1001100099F40090C7020090C7020090C7020090B7
:10012000C7020090C7020090C7020090C70200906B
:10013000C7020090C7020090C7020090C70200905B
:1001400000000000000000000000000000000000AF
:10015000C7020090C7020090C7020090C70200903B
:10016000C7020090C7020090C7020090C70200902B
:10017000C7020090C7020090C7020090C70200901B
:10018000C7020090C7020090C7020090C70200900B
:10019000C7020090C7020090C7020090C7020090FB
:1001A000D9460090C7020090C7020090C702009095
:1001B000C7020090C7020090C7020090C7020090DB
:1001C000C7020090C7020090C7020090C7020090CB
:1001D000C7020090C7020090C7020090C7020090BB
:1001E000C7020090C7020090C7020090C7020090AB
:1001F000C7020090C7020090C7020090C70200909B
:10020000C7020090C7020090C7020090C70200908A
:10021000C7020090C702009081500090C702009072
:10022000C7020090C7020090C702009000000000C3
:10023000C7020090C702009000000000C7020090B3
:10024000C7020090C7020090C7020090C70200904A
:10025000C7020090C7020090C7020090C70200903A
:10026000C7020090C7020090C7020090C70200902A
:10027000C7020090C7020090C70200900000000073
:10028000C7020090C7020090C70200900000000063
:1002900000000000C7020090DFF80CD000F09EFACA
:1002A0000048004701240190309D00240648804703
:1002B00006480047FEE7FEE7FEE7FEE7FEE7FEE74B
:1002C000FEE7FEE7FEE7FEE7A14F009099020090EF
:1002D0002DE9F05F0546002092469B46884606467B
:1002E000814640241BE0284641464746224600F00E
:1002F000ACF853465A46C01A914110D311461846DD
:10030000224600F093F82D1A67EB01084F4622466B
:100310000120002100F08AF817EB00094E41201E51
:10032000A4F10104DFDC484631462A464346BDE8D5
:10033000F09F00000048704744760190A0F16101F1
:10034000192900D82038704710B5431A934209D2B2
:100350008318881803E010F8011D03F8011D521ED0
:10036000F9D210BD40EA01039B0703D009E008C998
:10037000121F08C0042AFAD203E011F8013B00F86A
:10038000013B521EF9D210BDD2B201E000F8012BA0
:10039000491EFBD270470022F6E710B513460A4605
:1003A00004461946FFF7F0FF204610BD10B504467D
:1003B00004E00B7800F8013B03B1491C521EF8D24F
:1003C000204610BD421C10F8011B0029FBD1801AE9
:1003D000704710B5002200E0521C835C8C5CA34285
:1003E00001D1002BF8D1D8B2E1B2401A10BD0346BA
:1003F00011F8012B00F8012B002AF9D1184670479B
:1004000030B50B46014600202022012409E021FAE4
:1004100002F59D4205D303FA02F5491B04FA02F5E1
:100420002844151EA2F10102F1DC30BD202A04DBB4
:10043000203A00FA02F1002070479140C2F12003F7
:1004400020FA03F3194390407047202A04DB203A36
:1004500021FA02F00021704721FA02F3D040C2F1E4
:10046000200291400843194670472DE9FE4F80460F
:1004700081EA0300C00F0C46009021F0004123F0F8
:100480000045B8EB0200A94105D2404621469046FE
:100490001C460B46024623F00040104347D0270D70
:1004A000C7F30A00C3F30A510290401A0190402892
:1004B0006BDAC3F3130040F4801B0098924620B11E
:1004C0000023D2EB030A63EB0B0B01985946C0F1F2
:1004D00040025046FFF7AAFF06460D4650465946D1
:1004E000019A00F093F910EB08006141002487EABB
:1004F000115284EAE7731A4340D0009A62B3019A1A
:10050000012A4FEA075215DC001B61EB02014FF094
:10051000004202EA0752CDE90042001C41F5801179
:1005200032462B4600F093F903B0BDE8F08F404609
:100530002146F9E7001B61EB0201001C41F5801325
:1005400000185B412018A2F5001747EB030140EAB1
:10055000D570B6196D4111E06D084FEA360645EACF
:10056000C0754FEA0752001B61EB0201001C41F508
:10057000801149084FEA30000019514132462B469C
:1005800003B0BDE8F04F00F053B9009801224000DD
:100590000023D0EB020263EBE073009821464FEAA0
:1005A000E074B8EB000061EB0401E9E783F000437D
:1005B0005BE781F0004158E72DE9FE4F81EA030433
:1005C00004F0004421F0004100944FF0000B23F0B0
:1005D000004350EA01045ED052EA03045BD0C3F347
:1005E0000A54C1F30A552C44A4F2F3340194A0FB3D
:1005F0000254C1F3130141F48011C3F3130343F414
:10060000801301FB024400FB034E840A970A44EA6C
:10061000815447EA8357A4FB076802958D0A05FBBE
:1006200007854FEA932C04FB0C542705029D4FEAE3
:10063000065847EA1637B5EB08056EEB070C870E30
:10064000920E47EA811742EA8312A7FB0201B6EB3A
:100650000B0164EB00042B0D43EA0C335E1844EBF2
:100660001C50DA465146E7FB0201C5F313044FEA7A
:100670000B3343EA14534FEA0432019C43EA060366
:10068000A4F10C040294009CCDE900B400F0DFF862
:1006900003B0BDE8F08F00200146F9E72DE9F04DE9
:1006A00081EA030404F0004B21F0004514464FF0AA
:1006B000000A23F0004150EA050220D054EA01026A
:1006C0001DD0C5F30A570246C5F31303C1F3130047
:1006D000C1F30A5640F4801543F48013A7EB0608D3
:1006E000101BD64608F2FD3873EB050002D308F163
:1006F000010801E092185B41B8F1000F03DA002015
:100700000146BDE8F08D00204FF480110646844676
:100710000EE0171B73EB050705D3121B63EB0503F4
:1007200006434CEA010C49084FEA300092185B413D
:1007300050EA0107EDD152EA030012D082EA040028
:1007400083EA0501084305D0101BAB4106D2012204
:10075000002306E000224FF0004302E06FF00102A8
:1007600053101AEB06004CEB085110EB0A0041EB5A
:100770000B01BDE8F04D00F05BB8C1F30A52C1F3C4
:10078000130140F2FF3341F480119A4202DA002053
:100790000146704740F233439A42A2F2334202DCF0
:1007A0005242FFF752BEFFF741BE000030B5041EB3
:1007B00071F1000404DB4FF00044404264EB01019E
:1007C000141E73F1000405DB1C464FF00043524237
:1007D00063EB0403994208BF904230BD1CB5094841
:1007E0000090094801900546009C06E0E06840F052
:1007F000010394E8070098471034AC42F6D3FFF7A2
:100800004FFD0000D495109004961090202A06DB2E
:10081000CB17203A41FA02F043EAE07306E041FACE
:1008200002F3D040C2F120029140084319467047BC
:1008300010B5141E73F1000408DA401C41F10001E8
:1008400092185B411A4301D120F0010010BD2DE93F
:10085000F04D92469B4611B1B1FA81F202E0B0FA36
:1008600080F220329046FFF7E1FD04460F4640EA51
:100870000A0041EA0B0153465A46084313D0114679
:1008800053EA010019D0C8F140025046FFF7DDFDE0
:1008900005460E46504659464246FFF7C7FD0843F7
:1008A00005D0012004E020463946BDE8F08D002047
:1008B000054346EAE0762C4337430A986305E40A89
:1008C000A0EB08000022FD0A44EA47540A3002D592
:1008D00000200146E9E7010510196941DDE90845F5
:1008E00000196941BDE8F04DA2E7000000000000DA
:1008F000FEE700000000000070470000000000005C
:10090000EFF3108072B600BFFEE7000000000000A9
:100910000A68002A02681FD022F4F842D1E9073C95
:100920001A434B6A42EA0C021A430260426847F6D5
:10093000FF739A43D1E9013C1A43CB6842EA0C02A7
:10094000D1F810C01A434B6942EA0C0289691A4374
:10095000114341600020704747F6FF739A43D1E985
:10096000013C1A43CB6842EA0C02D1F810C01A438A
:100970004B6942EA0C02D1F818C01A43CB6942EA2B
:100980000C02D1F820C01A43496A42EA0C02114312
:1009900001600020704700000246406943F6FE7384
:1009A00020EA0303002043EA41015161704700003F
:1009B00010B5024600696FF315006FF01F04D1E90E
:1009C00000ECD1E9023140EA0E0004EB431340EAA7
:1009D0000C000343002043EA4121116110BD0000D7
:1009E0002DE9F041002A826836D040F6FF734FF2BD
:1009F0000006CFF60F73CFF6FF761A40CB684F692B
:100A00006FF00F0406EB03330026CFF6F0761A439F
:100A100006EB07573A438260C2688E68D1E9003717
:100A200002F07042013B04EB07176FF0FF040D6901
:100A300004EB062600241A43CFF6FF7489693A4373
:100A400004EB0545013932432A4342EA0161C160A2
:100A50000020BDE8F08100BF01F1080602F0704CF3
:100A6000D1E900E278CE6FF00F074FF2000807EBF4
:100A700002126FF0FF0707EB0323AEF1010747EA0D
:100A80000C07CFF6FF7840F2000E3A4308EB04342F
:100A9000CFF6FF7E00271A4389690EEB0545CFF696
:100AA000F077224307EB065301392A431A4342EAFF
:100AB000016181600020BDE8F081000000000000BD
:100AC00070B515460C46064608F0BAFE08F0B8FEAA
:100AD000BA200DF079FC012807D1300A0DF074FC22
:100AE000012802D1F0B20DF06FFC08F0A9FEBB2086
:100AF0000DF06AFC012815D164B1013D644200BFCC
:100B0000B4F1FF3018BF012007F082FF013405F86F
:100B1000010FF5D30AF0E4F800240AF0E1F82046CA
:100B200070BD00BF01240AF0DBF8204670BD000054
:100B300090F86020012A4FF0020257D02DE9F041D1
:100B4000C1EBC10380F8612000EB830303F1280EA1
:100B5000D3E90B42D3E90DC5DE6B1204A4F10908F9
:100B60004FEA0C67B8F1020F42EA055538BF0CF0A6
:100B70007F4745EA46564FF6F07246EA0705C0F24F
:100B8000CC02002945EA040118D00B2C05D1DEF86F
:100B90001830A2F5402241EA83410468B8F1010F00
:100BA000E36902EA030241EA0201E161DEF80010B2
:100BB000216113D82CF07F4121620FE00468B8F165
:100BC000010F636A02EA030241EA02016162DEF890
:100BD0000010A16102D82CF07F41A1620022012106
:100BE00080F8611080F86020BDE8F0411046704741
:100BF00000283FD010B590F8611031B9002180F87D
:100C00006010044600F038F82046022180F8611098
:100C100090E806404FF6BF73D0F80CC00C68CFF6D2
:100C2000F8732340C4691A4340F2071322430A6051
:100C30004A6B9A43836942EA0E021A434A630A6C7A
:100C40004FF6FF739A4342EA0C020A644A6B036947
:100C500022F44012446942EA035242EA44524A638F
:100C600000214166012280F86120BDE8104008465D
:100C7000704700BF0120704741F200010068C5F2D3
:100C80000021884218BF704781B044F2D440C5F6B5
:100C90000200016841F010010160006800F01000DE
:100CA0000090009801B070472DE9F041044600F033
:100CB000F3FC1CB3054694F83500022822D140F21B
:100CC0000F472668C4F2020740F26F48BE426FF039
:100CD0000E00C4F202081DDC6F21C4F202018E4234
:100CE0002ADC3F21C4F202018E4241DC1021C4F211
:100CF00002018E4263D028215CE000BF0120BDE8E4
:100D0000F08100BF802060650120002184F834104C
:100D1000BDE8F08146451BDC40F23F41C4F20201D0
:100D20008E422DDC40F21041C4F202018E4246D0C8
:100D300040F228413EE000BF9F21C4F202018E42F2
:100D400028DC7021C4F202018E4238D0882131E0C3
:100D500040F29F41C4F202018E4223DC40F2704116
:100D6000C4F202018E422AD040F2884122E000BF44
:100D70004021C4F202018E4221D058211AE000BF66
:100D800040F24041C4F202018E4218D040F2584174
:100D900010E000BFA021C4F202018E420FD0B821A2
:100DA00008E000BF40F2B841C4F202018E4206D012
:100DB00040F2A041C4F202018E42314607D13146D1
:100DC000306820F01E0041F8140B6FF080000A68B4
:100DD000464500EA020008601ADC9F20C4F20200C7
:100DE000864233DC5720C4F2020086425ADC1020CF
:100DF000C4F20200864200F097802820C4F202006C
:100E0000864200F091804020C4F202008AE000BFD8
:100E100045F22F40C5F6020086422DDC40F2B74075
:100E2000C4F2020086424BDC40F27040C4F2020081
:100E3000864279D040F28840C4F20200864273D0E4
:100E400040F2A040C4F202006CE000BF40F2274034
:100E5000C4F20200864243DCA020C4F202008642B3
:100E600062D0B820C4F2020086425DD040F2104049
:100E7000C4F2020056E000BF45F26B40C5F6020026
:100E800086423FDC45F23040C5F6020086424BD038
:100E900045F24440C5F60200864245D045F258402E
:100EA0003EE000BF5820C4F2020086423CD07020D1
:100EB000C4F20200864237D08820C4F2020031E03A
:100EC00040F2B840C4F2020086422DD045F20840FC
:100ED000C5F60200864227D045F21C4020E000BF44
:100EE00040F22840C4F2020086421DD040F2404049
:100EF000C4F20200864217D040F25840C4F2020009
:100F000010E000BF45F26C40C5F6020086420BD0EF
:100F100045F29440C5F60200864205D045F2804075
:100F2000C5F60200864204D1206E016821F480716A
:100F30000160306820F00100306000BF3068C007F9
:100F400010D000F0A9FB401B0628F7D320206065D5
:100F5000032084F835000120002184F83410BDE816
:100F6000F08100BF20680821B8424FF03F0211DC39
:100F70006F23C4F2020398421EDC3F23C4F2020333
:100F8000984235DC1023C4F20203984257D028233C
:100F900050E000BF40451BDC40F23F43C4F2020377
:100FA00098422DDC40F21043C4F20203984246D02E
:100FB00040F228433EE000BF9F23C4F20203984260
:100FC00028DC7023C4F20203984238D0882331E031
:100FD00040F29F43C4F20203984223DC40F2704384
:100FE000C4F2020398422AD040F2884322E000BFB4
:100FF0004023C4F20203984221D058231AE000BFD4
:1010000040F24043C4F20203984218D040F25843E1
:1010100010E000BFA023C4F2020398420FD0B8230F
:1010200008E000BF40F2A043C4F20203984206D099
:1010300040F2B843C4F20203984240F0C580D4E9BC
:10104000163707F01F07404502FA07F25A5019DC1D
:101050009F21C4F20201884232DC5721C4F202010E
:10106000884259DC1021C4F20201884200F09680C7
:101070002821C4F20201884200F090804021C4F28D
:10108000020189E045F22F41C5F6020188422DDCBC
:1010900040F2B741C4F2020188424BDC40F2704199
:1010A000C4F20201884279D040F28841C4F20201C0
:1010B000884273D040F2A041C4F202016CE000BF4C
:1010C00040F22741C4F20201884243DCA021C4F26D
:1010D0000201884262D0B821C4F2020188425DD088
:1010E00040F21041C4F2020156E000BF45F26B41EC
:1010F000C5F6020188423FDC45F23041C5F60201E7
:1011000088424BD045F24441C5F60201884245D0A1
:1011100045F258413EE000BF5821C4F20201884226
:101120003CD07021C4F20201884237D08821C4F239
:10113000020131E040F2B841C4F2020188422DD0F0
:1011400045F20841C5F60201884227D045F21C410C
:1011500020E000BF40F22841C4F2020188421DD0C5
:1011600040F24041C4F20201884217D040F2584197
:10117000C4F2020110E000BF45F26C41C5F6020165
:1011800088420BD045F29441C5F60201884205D051
:1011900045F28041C5F6020188420BD1616EA26E14
:1011A000E06E4A6030B1016821F480710160D4E9D9
:1011B0001C014160012084F835000020002184F8E2
:1011C0003410BDE8F08100BF0421012237E70000A0
:1011D000F0B190F83510022918D180B540F20F42D5
:1011E0000168C4F20202914214DC6F23C4F20203CC
:1011F000994225DC3F23C4F2020399423CDC1023D0
:10120000C4F2020399425DD0282357E08021416552
:101210000120704740F26F43C4F2020399421BDC85
:1012200040F23F43C4F2020399422DDC40F21043E6
:10123000C4F20203994245D040F228433EE000BF89
:101240009F23C4F20203994228DC7023C4F20203F4
:10125000994237D0882331E040F29F43C4F2020321
:10126000994223DC40F27043C4F20203994229D030
:1012700040F2884322E000BF4023C4F202039942B7
:1012800020D058231AE000BF40F24043C4F20203CA
:10129000994217D040F2584310E000BFA023C4F297
:1012A000020399420ED0B82308E000BF40F2B843D1
:1012B000C4F20203994205D040F2A043C4F20203F3
:1012C000994275D191424FF0040280F8352011DC2B
:1012D0006F20C4F20200814222DC3F20C4F20200EF
:1012E000814239DC1020C4F20200814259D028200A
:1012F00054E000BF40F26F40C4F2020081421BDCA8
:1013000040F23F40C4F2020081422DDC40F2104026
:10131000C4F20200814244D040F228403EE000BFC7
:101320009F20C4F20200814228DC7020C4F2020037
:10133000814236D0882031E040F29F40C4F2020062
:10134000814223DC40F27040C4F20200814228D086
:1013500040F2884022E000BF4020C4F202008142F7
:101360001FD058201AE000BF40F24040C4F20200F3
:10137000814216D040F2584010E000BFA020C4F2D5
:10138000020081420DD0B82008E000BF40F2B84012
:10139000C4F20200814204D040F2A040C4F2020034
:1013A0008142086820F001000860002080BD00BF75
:1013B0000A6822F00E020A6045F25742C5F60202A0
:1013C00091420A6822F001020A600FDC45F22F42C6
:1013D000C5F60202914219DC45F20842C5F6020246
:1013E000914229D045F21C4222E000BF45F27F42E3
:1013F000C5F60202914213DC45F25842C5F60202DC
:10140000914219D045F26C4212E000BF45F23042E1
:10141000C5F6020291420FD045F2444208E000BFF7
:1014200045F29442C5F60202914205D045F280424F
:10143000C5F6020291421AD1D0E9181CD0E916E390
:101440000A6822F480720A6003F01F01012202FA86
:1014500001F1CEF80410816ECCF80410C16E31B1E8
:101460000A6822F480720A60D0E91C124A600121E5
:1014700080F83510016D0022002980F8342094D0C6
:101480008847002080BD0000B0B5044600F004F994
:1014900040F204010546C2F20041621C097818BFFF
:1014A0000C4400BF00F0F8F8401BA042FAD3B0BDD6
:1014B0002DE9F04F83B00F68002F00F0C98000F1D4
:1014C000264642F2004506F1FF76C5F602050A22DD
:1014D000A8424FEAB62540F2040C08BF092200F1E9
:1014E00020030093092DC5F6000C38BF4FEAB62241
:1014F000002400264FF0000801920AE008F10108DC
:101500000F6837FA08F206F1020604F1040400F04D
:101510009F80012202FA08FE17EA0E09EED0D1F8E8
:1015200004B003220BF00307B2407D1E6FEA020AEB
:10153000012D11D88268CD6802EA0A02B5402A431B
:101540008260CBF30015426822EA0E0205FA08F524
:101550002A43426004E000BF032F01D103271FE0AC
:10156000C2688D6802EA0A02B540022F42EA05020B
:10157000C26015D16FF0030204F01C0502EA580B9B
:10158000009A0F2352F80BE0AB400F692EEA0303D9
:10159000AF403B4342F80B30D1F804B00BF00307E7
:1015A000026807FA06F302EA0A021BF4403F42EA25
:1015B00003020260A2D044F2F44340F2084EC5F6A2
:1015C0000203C5F6000E0F251A6842F002021A60E7
:1015D0001A6802F00202029228F00302029B04F051
:1015E0000C0352F80E709D40AF43019D05FA03F3C2
:1015F0003B4342F80E304FF0B04EDEF800204B680F
:1016000042EA0907DD0258BF22EA09079D02CEF827
:101610000070DCF8002042EA090758BF22EA0907F7
:101620009D03CCF80070DCF8802042EA090758BF1F
:1016300022EA0907DB03CCF88070DCF87C2042EA60
:10164000090758BF22EA0907CCF87C7056E700BFAB
:1016500003B0BDE8F08F00000069084018BF01200A
:101660007047000000000000426902EA0103914354
:1016700041EA034181617047002A08BF0904816182
:10168000704700000000000041F20000C5F6004075
:101690000068000C7047000047F23050C2F2004072
:1016A000006870470000000040F2040047F230512B
:1016B000C2F20040C2F2004100780A68104408609B
:1016C000704700000000000080B5032000F004FB1C
:1016D00001F0DEFB44F2184148F62403C5F602018E
:1016E000C9F201030A68C2F303229A5C096801F097
:1016F0000F0102F01F02595CD04040F21002C2F20A
:10170000004201F01F0120FA01F1116040F20C01CA
:10171000C2F2004108600F2000F00AF800281CBF48
:10172000012080BD00F07CFA002080BD0000000098
:101730000F2843D8B0B58AB004467620002221464F
:10174000002500F099FA762000F082FA40F20800B5
:10175000C2F20040046044F2F040C5F602000168A5
:1017600041F480210160006801A900F4802002900A
:10177000029802A801F0D8FA01F05AFB4DF68361F5
:101780004000C4F21B3144F60002A0FB010140F608
:10179000D010C2F200404FF0FF33C4F201020260E9
:1017A00003EB9141C0E9011540F2E731C0E90315AF
:1017B00001F0C2FF20B101200AB0B0BD0120704786
:1017C00040F6D010C2F2004001F0EAFF0AB0B0BD0E
:1017D00090F8A030012B4FF0020331D02DE9F041F9
:1017E00034244FF0010880F8A08080F8A13002FB7B
:1017F0000403D1E900CED1E90267D1E90445C3E988
:101800001245C3E91067C3E90ECED1E906CED1E98E
:101810000854D1E90A76C3E91876C3E91654C3E936
:1018200014CE0F6B9F66044602F05EFF2068002313
:10183000C0F8248084F8A18084F8A030BDE8F0418D
:1018400018467047000000007047000000000000CC
:1018500070B504460068866B456B710716D515F0A8
:10186000040113D0416B21F0040141630421C163E1
:10187000D4F8A40040F00100C4F8A40084F8A1103A
:10188000002084F8A0002046FFF7DEFFB00718D53F
:1018900015F0020015D02068416B21F00201416370
:1018A0000221C163D4F8A40040F00200C4F8A400EF
:1018B000042084F8A100002084F8A0002046FFF74F
:1018C000C3FFF00718BF15F0010017D1300726D568
:1018D00015F0080008BF70BD2068416B21F00801B9
:1018E00041630821C163012084F8A100002084F82D
:1018F000A0002046BDE8704000F03EB92068416B72
:1019000021F0010141630121C16384F8A11000208D
:1019100084F8A000204600F077F83007D8D470BDD6
:1019200000286DD010B590F8A11031B9002180F8D1
:10193000A010044600F070F82046022180F8A110A3
:10194000D0E9001CD0E902348A6922F070428A6131
:1019500043EA0C02036922431A438B691A438A61E2
:101960004FF600038A68CFF200031A408A60D0E97C
:10197000052444EA02428C6822438A60CA681A40FD
:10198000CA60D0E9072444EA0242CC682243CA6014
:101990000A691A400A61D0E9092444EA02420C6942
:1019A00022430A614A691A404A61D0E90B2343EA9B
:1019B00002424B691A434A6190F8352090F836305C
:1019C000CC6A04F07F44CC621B0490F8344043EAB4
:1019D0000222CB6A22441A43CA624A6B42F00602D0
:1019E0004A638A6942F001028A610021C0F8A410AA
:1019F000012280F8A120BDE810400846704700BFD2
:101A0000012070470000000002680021536A43F083
:101A10000103536200F090B82DE9F043B7B00446DB
:101A200002A80830B82100253295CDE93555CDE919
:101A30003355FEF7B0FC41F200012068C5F2000109
:101A4000884203D037B0BDE8F08300BF4FF00050AC
:101A5000029019200C904FF4A5700D900A20109060
:101A600002A803954FF002081295CDE90E8800F008
:101A7000A7FA08B1FEF744FF44F2E04042F2000446
:101A8000C5F60200C5F6020432AD4FF00009416808
:101A9000032641F00801416041680E2701F008016A
:101AA00001910199016841F480610160016801F4CC
:101AB000806101910199016841F400710160016840
:101AC00001F4007101910199016841F48071016094
:101AD0000068294600F4807001900198FF20CDE94C
:101AE000320804F50060CDF8D09035963697FFF7B0
:101AF000DFFC32A94FF6FF70CDE9356781E80103BD
:101B000004F580602946FFF7D3FC32A94FF47040FA
:101B1000CDE9356781E8010320462946FFF7C8FC77
:101B200058200521002200F0A7F8582000F090F876
:101B300037B0BDE8F083000090F8A020012A4FF0F4
:101B4000020215D080F8A1200268536B23F0010334
:101B5000536341F24003C5F200031960516B41F039
:101B6000010151630022012180F8A11080F8A0201A
:101B700010467047000000007047000000000000A1
:101B8000B0B502784EF69C5CCEF2000C43784CF86F
:101B9000043CFAB14368CCF80030037BC17A90F87A
:101BA0000AE0457B447A42EA0372837B42EA0161A0
:101BB000C27B41EACE41007A41EA854141EA434194
:101BC00041EA024141EA042141EA4000CCF8040024
:101BD000B0BD00BF0020CCF80000CCF80400B0BDC0
:101BE0004EF62450CEF20000BFF35F8F016821F45F
:101BF0008031016000210167704700000000000093
:101C00004EF6245140F00100CEF20001086708684A
:101C100040F480300860BFF34F8FBFF36F8F704781
:101C200081B044F2F4400022C5F60200016841F0A0
:101C30000201016000680F2100F0020000906FF0C7
:101C40000100009B01B000F017B800000000000088
:101C5000002848BF704700F01F01012202FA01F17D
:101C60004EF20012C0F34A10CEF2000242F82010E9
:101C7000704700000000000070B54EF60C5C4FF09D
:101C8000FF36CEF2000C00F1604505F56445DCF846
:101C90000030C3F3022E8EF00703042B28BF042369
:101CA000BEF1030406FA03F321EA030100F00F0377
:101CB00038BF0024043B0028634406FA04F048BF00
:101CC00003F10C05A14022EA00000843000128703E
:101CD00070BD0000000000004EF60C514FF6FF03EF
:101CE000CEF200010A681A4060F30A2242F08060D6
:101CF00040F0FD7008607047B0B544F60C05C5F6BD
:101D0000020529684907296806D401F00701081A65
:101D100018BF0120B0BD00BF21F0070108432860B3
:101D2000FFF7BAFC044600BF55F8080C800407D43E
:101D3000FFF7B2FC001BB0F57A7FF5D90120B0BDEA
:101D40000020B0BD0000000080B501F019F844F299
:101D5000204148F62402C5F60201C9F201020968D1
:101D6000C1F30211515C01F01F01C84080BD0000A9
:101D700080B544F2384EC5F6020E5EF8103C5EF8AF
:101D8000101C5EF80C2CC1F3053CDEF80410BCF10D
:101D9000000F19D0C9089FED3C1AD20601EAE27182
:101DA00003F003026FF35F3100EE101AB8EE400A41
:101DB000DFE802F0022210225EF8381C89060DD4FA
:101DC0009FED331A18E000BF00218160C0E90011C7
:101DD00080BD00BF9FED2D1A0EE000BF5EF8381CDD
:101DE00049F20002C0F2D032C1F3C10122FA01F17E
:101DF00001EE101AB8EE411ADEF800109FED253AF8
:101E00006FF35F2102EE101ADEF80010C1F34621D5
:101E1000B8EE422A013100EE032A00EE10CAB7EEF6
:101E2000003AB8EE400A81EE000A32EE031A20EEC4
:101E3000010A01EE101AB8EE411A80EE011ABCEE4A
:101E4000C11A80ED001ADEF80010C1F3064101311D
:101E500001EE101AB8EE411A80EE011ABCEEC11A5A
:101E600080ED011ADEF80010C1F30661013101EEC8
:101E7000101AB8EE411A80EE010ABCEEC00A10EE4C
:101E8000101A816080BD00BF0024744A20BCBE4B84
:101E90000024744C0000003980B544F2404EC5F671
:101EA000020E5EF8183C5EF8181C5EF8142CC1F3A4
:101EB000055CDEF80410BCF1000F19D0C9089FEDD5
:101EC0003C1AD20501EAE27103F003026FF35F31BD
:101ED00000EE101AB8EE400ADFE802F002221022EB
:101EE0005EF8401C89060DD49FED331A18E000BF40
:101EF00000218160C0E9001180BD00BF9FED2D1A57
:101F00000EE000BF5EF8401C49F20002C0F2D03281
:101F1000C1F3C10122FA01F101EE101AB8EE411A23
:101F2000DEF800109FED253A6FF35F2102EE101AE4
:101F3000DEF80010C1F34621B8EE422A013100EE6E
:101F4000032A00EE10CAB7EE003AB8EE400A81EE5E
:101F5000000A32EE031A20EE010A01EE101AB8EE62
:101F6000411A80EE011ABCEEC11A80ED001ADEF8AB
:101F70000010C1F30641013101EE101AB8EE411A0A
:101F800080EE011ABCEEC11A80ED011ADEF80010D5
:101F9000C1F30661013101EE101AB8EE411A80EE6C
:101FA000010ABCEEC00A10EE101A816080BD00BFAD
:101FB0000024744A20BCBE4B0024744C000000393D
:101FC0002DE9F0470446C07844F22C480007C5F6D6
:101FD000020828D5A06E4FEA305103292AD8DFE83D
:101FE00001F0030B131B00BFD8F8001041F40031BF
:101FF000C8F8001010E000BF04F10800022102F050
:1020000037FD064680B906E004F12800022102F0FF
:10201000C3FD064640B9A06ED8F8241021F4401143
:102020000843C8F8240000266078C00706D135466A
:102030002FE000BF01266078C007F8D0A06D04280B
:1020400058D83546DFE800F004140E0B0B0000BF33
:10205000D8F80000354640F40030C8F800002F469C
:10206000C5B90DE004F12800002102F095FD04E05F
:1020700004F10800002102F0FBFC05462F464DB993
:10208000D8F82400A16D20F0070000250843C8F807
:10209000240037466078800731D5E06D4FEAB010F4
:1020A00004285FD8DFE800F004140E0A0A0000BF1D
:1020B000D8F8000040F40030C8F800002E46FDB902
:1020C0000EE000BF04F12800002102F065FD04E0ED
:1020D00004F10800002102F0CBFC05462E467DB934
:1020E000D8F82400E16D20F4E07000250843C8F81A
:1020F000240004E00125012760788007CDD43E4606
:102100006078400733D5D4F8A8004FEA705004280F
:1021100060D8DFE800F003130D090900D8F80000CB
:1021200040F40030C8F80000A9460DBB0EE000BF27
:1021300004F12800002102F02FFD04E004F1080062
:10214000002102F095FC0546A9468DB9D8F82C006F
:10215000D4F8A81020F4600000250843C8F82C002B
:1021600005E000BF0125012660784007CBD4B146C9
:102170006078000734D5D4F8AC004FEA306004280A
:102180005ED8DFE800F003130D090900D8F800005D
:1021900040F40030C8F800002F4615BB0EE000BF29
:1021A00004F12800002102F0F7FC04E004F108002B
:1021B000002102F05DFC05462F4695B9D8F82C00A9
:1021C000D4F8AC1020F0E06000250843C8F82C00DB
:1021D00006E000BF01254FF0010960780007CAD46E
:1021E0004F46E078800730D5E06C4FEA3010032886
:1021F00020D8DFE800F00903150900BFD8F8000077
:1022000040F40030C8F800002E46ADB9D8F82000E0
:10221000E16C20F0300000250843C8F8200014E0ED
:1022200004F10800022102F023FC05462E461DB9E8
:10223000ECE700BF012501266078C00609D434E030
:1022400001250127E0788007CED43E466078C0069D
:102250002BD5206E4FEA3030042839D8DFE800F063
:1022600004140E0A0A0000BFD8F8000040F4003041
:10227000C8F800002F46CDB90EE000BF04F12800D9
:10228000002102F089FC04E004F10800002102F0C2
:10229000EFFB05462F464DB9D8F82400216E20F4F7
:1022A000E04000250843C8F82400374660788006DF
:1022B00035D5606E4FEA3040052815D8DFE800F0CC
:1022C000041A0E04040400BF2E46DDB91EE000BF50
:1022D0000125012760788006EBD420E004F1280076
:1022E000012102F059FC0AE0012501266078400630
:1022F00019D449E004F10800012102F0B9FB0546B8
:102300002E461DB1607840060DD43DE0D8F824007B
:10231000616E20F4E02000250843C8F824003E4602
:102320006078400630D5D4F8B0004FEA3070052808
:102330000ED8DFE800F00313070303032F46ADB9FF
:1023400018E000BF04F12800012102F025FC0AE09A
:1023500001250127607800061AD43CE004F108004A
:10236000012102F085FB05462F461DB1607800066D
:102370000ED430E0D8F82C00D4F8B01020F0E040B3
:1023800000250843C8F82C0037466078000622D59F
:10239000206F58B1B0F1005F0CD0B0F1805F37D141
:1023A000D8F8000040F40030C8F800002E469DB96F
:1023B00008E000BF04F10800012102F059FB0546C6
:1023C0002E464DB9D8F82400216F20F0405000254A
:1023D0000843C8F824003E46E078C0071DD0A06C32
:1023E000032855D8DFE800F008024A08D8F80000B2
:1023F00040F40030C8F80000A9467DB9D8F82000A4
:10240000A16C20F0030000250843C8F8200004E078
:1024100001250126E078C007E1D1B146A078400649
:1024200002D44F4618E000BFD8F8D40340F48070BF
:10243000C8F8D403FFF730F9064600BFD8F8D40334
:10244000C00507D4FFF728F9801B6428F6D90325B7
:10245000032701E02F46FDB12078C00700F06F8010
:10246000E06F4FEAF00005284ED8DFE800F0035394
:1024700047030303002D2E4654D157E004F1080012
:10248000022102F0F5FA0546002DA946C6D1B5E7AE
:1024900001254FF00109C1E7D8F84410D4F8B40081
:1024A000414011F4407F11D0D8F84410D8F84420AE
:1024B00042F48032C8F84420D8F8442021F4407116
:1024C00022F48032C8F84420C8F84410B0F5807F68
:1024D00040F0E082FFF7E0F8064641F2883A032533
:1024E000032700BFD8F84400800700F1D182FFF72E
:1024F000D3F8801B5045F5D9AEE700BF04F12800A2
:10250000012102F049FB0AE001250126207880071D
:1025100019D446E004F10800012102F0A9FA0546A9
:102520002E461DB1207880070DD43AE0D8F8280057
:10253000E16F20F0380000250843C8F828003E4627
:10254000207880072DD5A06F05280FD8DFE800F090
:1025500004140804040400BF2F46ADB918E000BFFE
:1025600004F12800012102F017FB0AE001250127F0
:102570002078400719D447E004F10800012102F057
:1025800077FA05462F461DB1207840070DD43BE071
:10259000D8F82800A16F20F0070000250843C8F8EC
:1025A00028003746207840072ED5D4F89400052817
:1025B0000ED8DFE800F00313070303032E46ADB97E
:1025C00018E000BF04F12800012102F0E5FA0AE05A
:1025D00001250126207880061AD44BE004F108007A
:1025E000012102F045FA05462E461DB120788006ED
:1025F0000ED43FE0D8F82C00D4F8941020F0070057
:1026000000250843C8F82C003E462078800631D5C6
:10261000D4F890004FEA307005280FD8DFE800F0BA
:1026200004140804040400BF2F46ADB918E000BF2D
:1026300004F12800022102F0AFFA0AE00125012787
:10264000207840061AD44BE004F10800002102F083
:102650000FFA05462F461DB1207840060ED43FE004
:10266000D8F82800D4F8901020F0E0400025084366
:10267000C8F8280037462078400631D5D4F89C00A9
:102680004FEAB02005280FD8DFE800F00414080452
:10269000040400BF2E46ADB918E000BF04F12800C5
:1026A000022102F079FA0AE00125012620780006CD
:1026B0001AD44EE004F10800002102F0D9F90546D1
:1026C0002E461DB1207800060ED442E0D8F82C002A
:1026D000D4F89C1020F4E05000250843C8F82C00E2
:1026E0003E462078000634D5D4F8A0004FEA70307A
:1026F000052815D8DFE800F0041A0E04040400BF12
:102700002F46E5B12068010727D4C1063ED4000357
:1027100055D477E004F12800022102F03DFA0AE0E6
:102720000125012720680107EFD516E004F1080014
:10273000002102F09DF90546002D2F46E2D1D8F880
:102740002C00D4F8A01020F4604000250843C8F8FD
:102750002C00374620680107D7D5D4F88400B0F59F
:10276000805F09D104F12800022102F015FA002847
:1027700018BF0127D4F88400D8F8281021F440515C
:102780000843C8F828002068C106C0D5D4F89800CE
:10279000B0F5807F09D104F12800022102F0FCF994
:1027A000002818BF0127D4F89800D8F82C1021F47D
:1027B00040710843C8F82C002068000322D5D4F8E3
:1027C000A400B0F5003F11D0B0F5803F08D000283C
:1027D00044D104F10800002102F04AF905E000BFED
:1027E00004F12800022102F0D7F905462E4655B91A
:1027F000D8F82C00D4F8A41020F440300025084369
:10280000C8F82C003E46A07840072CD5D4F88800A4
:10281000B0F5401F0BD0B0F5001F0BD0B0F5801FF6
:102820002AD1D8F8000040F40030C8F800002F4644
:10283000D5B907E004F12800012102F0ADF9054601
:102840002F468DB9D8F82800D4F8881020F440100D
:1028500000250843C8F8280005E000BF012501262F
:10286000A0784007D2D43746A078C00709D13E46A9
:102870002168880015D532E001250127A078C0071E
:10288000F5D0206DB0F5803F10D018BBD8F800000F
:1028900040F40030C8F800002E4685B12168880059
:1028A0001DD460688A0326D469E000BF04F10800E3
:1028B000022102F0DDF80546002D2E46EED1D8F8B3
:1028C0002000216D20F4803000250843C8F8200046
:1028D000CDE700BF0125012621688800E1D504F17C
:1028E0002800022102F058F9002818BF0126D4E977
:1028F00000108A0343D5D4F880206FF0010303EB66
:102900003223022B0BD34FEA322343B1012B40F089
:10291000B980D8F8003043F40033C8F800303DB334
:10292000CA022FD4CA0037D48A0240D44A0048D4FD
:10293000CA0F55D109025DD4C10766D181076FD492
:10294000410779D4010700F18380C10600F18C8032
:10295000800607D504F12800022102F01DF90028A5
:1029600018BF0125002D18BF01252846BDE8F087B6
:10297000D8F8283023F440731A43C8F82820354685
:10298000CA02CFD5D8F82420636F22F000421A4340
:10299000C8F82420CA00C7D558F81C2CD4F8B83081
:1029A00022F480421A4348F81C2C8A02BED5D8F87B
:1029B0002420E36E22F080721A43C8F824204A00D3
:1029C000B6D558F81C2C22F4004248F81C2CD4F838
:1029D000BC2058F81C3C1A4348F81C2CCA0FA9D03C
:1029E000D8F82020636D22F040521A43C8F8202006
:1029F0000902A1D5D8F82810D4F88C2021F4400180
:102A00001143C8F82810C10798D004F1080000212C
:102A100002F02EF8002818BF0546606881078FD5A0
:102A200004F10800012102F023F8002818BF054630
:102A3000606841077FF586AF04F10800022102F0CB
:102A400017F8002818BF0546606801077FF57DAFBD
:102A500004F12800002102F09FF8002818BF054665
:102A60006068C1067FF574AF04F12800012102F00F
:102A700093F8002818BF0546606880063FF56AAFE6
:102A800070E700BF0125CA027FF54CAF7AE700BFAF
:102A9000D4F8B4004FF6CF7358F81C2CC0F2FF03E3
:102AA00000F4407122F47C5203EA10136FF31F30DC
:102AB000B1F5407F08BF1A43002548F81C2CD8F810
:102AC00044100843C8F84400FFF7ABBC0000000006
:102AD0002DE9F04381B0002800F0208142F2000986
:102AE0000446C5F20029D9F8000000F00F00814229
:102AF0000DD9D9F8000020F00F000843C9F80000F4
:102B0000D9F8000000F00F00884240F007812068EB
:102B100044F218464207C5F602060AD52269336810
:102B200003F070039A4204D9336823F070031A4308
:102B3000326002070AD56269736803F070039A4233
:102B400004D9736823F070031A437260C2060AD571
:102B5000A269736803F4E0639A4204D9736823F4AA
:102B6000E0631A43726082060AD5E269B36803F033
:102B700070039A4204D9B36823F070031A43B26019
:102B800010F002020AD0E368376807F00F07BB4273
:102B900004D9376827F00F073B433360C3073FD0A2
:102BA000306820F47062D4E901031A4332600128CE
:102BB00056F8182C0AD0032804D002280AD1920310
:102BC0000BD4ABE0920108D4A8E000BFD20504D436
:102BD000A4E000BF520740F1A180884656F8081CC7
:102BE00021F00701084346F8080CFEF755FD05469D
:102BF00041F2883756F8080C616800F03800B0EBF5
:102C0000C10F09D0FEF748FD401BB842F2D903209E
:102C100001B0BDE8F08300BF2068414600F0020229
:102C200052B1E268336803F00F039A4204D233686A
:102C300023F00F031A433260D9F8002002F00F028C
:102C400091420CD2D9F8002022F00F020A43C9F8B1
:102C50000020D9F8002002F00F028A425ED141071D
:102C60000AD52169326802F07002914204D23268BA
:102C700022F070021143316001070AD56169726860
:102C800002F07002914204D2726822F07002114385
:102C90007160C1060AD5A169726802F4E0629142CE
:102CA00004D2726822F4E0621143716080060AD592
:102CB000E069B16801F07001884204D2B16821F086
:102CC00070010843B06000F0E3F8316848F6240270
:102CD000C9F20102C1F30321515C336803F00F0311
:102CE00001F01F01D25C20FA01F102F01F0040F256
:102CF0001002C2F2004221FA00F0106040F2080017
:102D000040F20C02C2F20040C2F2004200681160C0
:102D100001B0BDE8F043FEF70BBD00BF012001B0DC
:102D2000BDE8F083000000003F22026044F2184238
:102D3000C5F6020252F8083C03F00703436013682B
:102D400003F470638360136803F00F03C3601368B8
:102D500003F070030361536803F070034361536829
:102D600003F4E0638361926802F07002C26142F290
:102D70000000C5F20020006800F00F0008607047F6
:102D800080B500F085F844F2184148F62403C5F6F2
:102D90000201C9F201030A68C2F303229A5C0968BE
:102DA00001F00F0102F01F02595C20FA02F201F05B
:102DB0001F0040F21001C2F2004122FA00F0086048
:102DC00040F20C01C2F200410A6080BD0000000028
:102DD00080B500F05DF844F2184C48F62403C5F6BF
:102DE000020CC9F20103DCF80020C2F303229A5C52
:102DF000DCF8001001F00F0102F01F02595CD04016
:102E000040F21002C2F2004201F01F0120FA01F16B
:102E1000116040F20C02C2F200421060DCF80400C3
:102E2000C0F30210185C00F01F0021FA00F080BD12
:102E300080B500F02DF844F2184C48F62403C5F68E
:102E4000020CC9F20103DCF80020C2F303229A5CF1
:102E5000DCF8001001F00F0102F01F02595CD040B5
:102E600040F21002C2F2004201F01F0120FA01F10B
:102E7000116040F20C02C2F200421060DCF8040063
:102E8000C0F30220185C00F01F0021FA00F080BDA2
:102E900044F20041C5F602010869C0F3C2000328EC
:102EA00016D002280ED0002832D10868800649F2D8
:102EB0000000C0F2D03058BF70470968C1F3C101AB
:102EC000C840704747F64000C0F27D10704700BF11
:102ED0008B6A886AD1F82CC04A6BC0F30510E8B140
:102EE000C2F3CC0203F0030300EE102A9FED2A1A6E
:102EF000B8EE400A20EE010A9FED281ADFE803F041
:102F0000022110210A6892060ED49FED261A18E0BD
:102F100040F60010C0F23D00704700BF002070472F
:102F20009FED1F1A0DE000BF0A6849F20003C0F2CE
:102F3000D033C2F3C10223FA02F201EE102AB8EE36
:102F4000411A0A6B9FED183A6FF35F2202EE102AC6
:102F50005FEACC7203FE000A03EE100A086BB8EEBB
:102F6000422AC0F34620B8EE433A013030EE020A5E
:102F7000B7EE002A81EE031A30EE020A21EE000AB3
:102F800001EE100AB8EE411A80EE010ABCEEC00A4A
:102F900010EE100A704700BF000000390024744A88
:102FA00020BCBE4B0024744C000000000000000058
:102FB00070B3F0B581B00446007844F20046C00713
:102FC000C5F6020626D12078800740F1C28030691C
:102FD00010F03801B06A3FD0182908BF5FEA80704E
:102FE0003AD0E0683168002862D021F01901084326
:102FF0003060FEF751FB05463068400748D4FEF7C5
:103000004BFB401B0228F7D9032001B0F0BD00BFE5
:1030100001207047306900F03801B06A102905D0EE
:1030200018290BD100F00300022807D13068800373
:10303000C9D560680028C6D13CE100BF616830682E
:1030400000294FD0B1F5A02F44D0B1F5803F5FD11A
:1030500040F4803062E000BF30684007E06802D58D
:10306000002800F02781316821F019010843306001
:10307000FEF712FB054600BF3068400708D4FEF794
:103080000BFB401B02284FF00300F5D901B0F0BD47
:10309000FEF7FAFA41F2030188424FD820697168BD
:1030A000402821F47C3151D141F4003050E000BF80
:1030B00021F001003060FEF7EFFA05463068400766
:1030C00047D5FEF7E9FA401B02284FF00300F5D977
:1030D000DCE700BF40F480203060306840F480308E
:1030E0001CE000BF20F480303060306820F4802085
:1030F0003060FEF7D1FA0546306880037FF563AF94
:10310000FEF7CAFA401B64284FF00300F4D9BDE76C
:1031100020F480303060306820F480203060FEF78A
:10312000BBFA0546306880033FF54DAFFEF7B4FAB1
:10313000401B6428F6D9032001B0F0BD70682169F6
:1031400020F0FE4040EA016002E000BF41EA0030AA
:1031500070602078C00654D5306900F03801B06A3C
:10316000082905D0182919D100F00300012815D12C
:103170003068C00503D5E069802840F09B80FEF7E9
:1031800083FA41F2030188421ED8206A7168202820
:1031900021F0F84132D141F0804031E0E06900286F
:1031A000306819D040F080003060FEF775FA0546AF
:1031B0003068C005E3D4FEF76FFA401B02284FF0D9
:1031C0000300F5D962E700BFF068216A20F07C5067
:1031D00040EA0160F06014E020F080003060FEF70B
:1031E0005BFA05463068C0050BD5FEF755FA401B63
:1031F00002284FF00300F5D948E700BF41EA80609C
:103200007060207800073FD42078800656D420785C
:10321000400769D4656A9DB3306900F0380018280A
:1032200040F0A880012DB16A306B43D001F0030259
:10323000A36A9A423ED1C1F30511E26A914239D1A3
:103240000146226B6FF35F21013A914232D1C0F304
:103250004622616B01398A422CD1C0F30642A16B30
:1032600001398A4226D1C0F30660E16B01398842F8
:1032700020D1706BA16CC0F3CC00814240F034814E
:10328000002001B0F0BD00BF60690028706F41D020
:1032900040F001007067FEF7FFF90546706F800788
:1032A000B2D4FEF7F9F9401B0228F7D9032001B088
:1032B000F0BD00BF012001B0F0BD00BFA069002833
:1032C000306845D040F480503060FEF7E5F905469F
:1032D000306880049BD4FEF7DFF9401B0228F7D941
:1032E000032001B0F0BD00BFD6F8000440F48070A8
:1032F000C6F80004FEF7D0F9054600BFD6F8000472
:10330000C00519D4FEF7C8F9401B6428F6D903207C
:1033100001B0F0BD20F001007067FEF7BDF9054671
:10332000706F80077FF570AFFEF7B6F9401B02287B
:103330004FF00300F4D9A9E6A168306F002943D00B
:10334000052939D0012957D140F001005AE000BFCA
:1033500020F480503060FEF79FF905463068800405
:103360007FF555AFFEF798F9401B02284FF0030098
:10337000F4D98BE6306820F080703060FEF78CF96D
:10338000022D05460CD100BF306880014CD5FEF7F8
:1033900083F9401B02284FF00300F5D976E600BF01
:1033A000306880017FF56CAFFEF776F9401B02288C
:1033B0004FF00300F4D969E640F004003067306F45
:1033C00040F001001EE000BF20F001003067306FC8
:1033D00020F004003067FEF75FF9054641F28837B8
:1033E000306F80077FF516AFFEF756F9401BB842E5
:1033F0004FF00300F4D949E620F001003067306F48
:1034000020F004003067FEF747F9054641F288379F
:10341000306F80073FF5FEAEFEF73EF9401BB84225
:103420004FF00300F4D931E604F12807B06A40F206
:10343000F33188438ECF0843591E40EA02104FF4FF
:103440007E426FF35F21B06202EB47204FF4FE0231
:1034500080B2E36B0844A16B02EB01414FF0FE42E6
:1034600001F4FE0102EB0362084402F0FE4108444D
:103470003063F06A4FF6F87120F00100F062706B73
:10348000A26C884340EAC2007063F06A216C20F0AD
:103490000C000843F062F06A616C20F002000843FF
:1034A000F062F06A40F48030F062F06A40F400307C
:1034B000F062F06A40F48020F062F06A40F00100AF
:1034C000F062306840F080703060FEF7E5F8044646
:1034D000306880013FF5D4AEFEF7DEF8001B02280D
:1034E0004FF00300F4D9D1E5F06A20F00100F0625A
:1034F000FEF7D2F80546FEF7CFF8A842FBD0706B76
:103500004FF6F871A26C884340EAC2007063F06A1B
:1035100040F00100F062002001B0F0BD00000000AA
:1035200020B3B0B5044690F82C000D4628B9002011
:1035300084F82D00204600F01BF8022084F82C00AF
:103540002068211DFDF7E4F9D4E900022946FDF7C2
:1035500047FA44F20000C5F20020016841F0004142
:103560000160012084F82C000020B0BD01207047CC
:103570002DE9F047B8B040F270500025C2F200408B
:103580003795369501783395CDE9345500297ED1AC
:1035900002AC4FF0010880F8008004F10800B82167
:1035A000FCF7F9FE4FF08070029020460395FEF77D
:1035B00007FD08B1FDF7A4F944F2D44040F6000439
:1035C000C5F60200C5F6020433AD4FF002090168EA
:1035D0004FF0000A41F4805101600068294600F470
:1035E00080500190019840F2FF60339004F5C05084
:1035F000CDF8D0900327CDF8D4A00C263697379677
:10360000FDF756FF33A94FF68370CDE9367681E892
:10361000010604F500602946FDF74AFF33A94FF67D
:103620000C70CDE9367681E8010604F5A0502946F4
:10363000FDF73EFF33A948F23310CDE9367681E835
:10364000010604F580502946FDF732FF33A94CF2FC
:103650000370CDE9367681E8010604F580602946DD
:10366000FDF726FF33A94FF63F00CDE9367681E816
:10367000010604F540602946FDF71AFF33A82946E4
:10368000CDE9367680E800072046FDF711FF38B017
:10369000BDE8F0870000000090F82C20022A01D13C
:1036A0000220704790F82C20012A4FF001020ED121
:1036B000B0B5022280F82C2002680446104601258D
:1036C000FDF76AF9002284F82C50BDE8B04010469E
:1036D000704700000000000090F82C30022B01D150
:1036E0000220704703F0FB03012B4FF0010313D1BD
:1036F00070B5022380F82C30036805461846012671
:103700000C46FDF755F920680023022808BF05265E
:1037100085F82C60BDE87040184670470000000036
:10372000704700000000000070470000000000002B
:10373000704700000000000060B310B5044690F828
:103740003D0028B9002084F83C00204600F024F811
:10375000022084F83D002068211D01F099FC012021
:1037600084F8480084F83E0084F83F0084F8400064
:1037700084F8410084F8420084F8430084F844004F
:1037800084F8450084F8460084F8470084F83D003A
:10379000002010BD012070477047000000000000AD
:1037A00090F83D1001291BD1022180F83D100168DD
:1037B00041F2FF70C4F200008142C86840F001008D
:1037C000C8600FDC40F2FF70C4F20000814217DCD9
:1037D000B1F1804F2CD040F20040C4F2000025E04F
:1037E0000120704740F2FF30C4F20100814213DC37
:1037F00041F60000C4F20000814219D0002013E01D
:1038000040F60000C4F20000814211D040F60040B2
:10381000C4F200000AE000BF44F20000C4F201005C
:10382000814205D040F20040C4F2010081420BD138
:1038300007228868C0F2010202400020062A18BF51
:10384000B2F5803F00D17047086840F00100086081
:1038500000207047000000007047000000000000DA
:1038600010B5044600680169890744BFC1685FEA72
:1038700081713FD40169490744BFC1685FEA417162
:1038800044D40169090744BFC1685FEA01714BD4A0
:103890000169C90644BFC1685FEAC16150D40169CA
:1038A000C9071CBFC1685FEAC17157D10169090628
:1038B00044BFC1685FEA016158D40169C90544BFCA
:1038C000C1685FEA016159D40169490644BFC16812
:1038D0005FEA41615AD40169890646BFC1685FEA5F
:1038E000816110BD6FF0200101612046BDE81040EC
:1038F000FFF71EBF6FF0020101610121217780698E
:1039000080074BD02046FFF7A7FF4DE06FF0040182
:10391000016102212177806910F4407F48D0204660
:10392000FFF79AFF4AE000BF6FF008010161042130
:103930002177C069800745D02046FFF78DFF47E01B
:103940006FF01001016108212177C06910F4407FF8
:1039500042D02046FFF780FF44E000BF6FF0010136
:103960000161204600F04CF820689FE76FF080016D
:1039700001612046FFF7D8FE20689EE76FF4807152
:1039800001612046FFF7CCFE20689DE76FF0400103
:103990000161204600F040F820689CE7204600F0D6
:1039A00027F8204600F028F800202077206861E7FB
:1039B000204600F01DF8204600F01EF80020207779
:1039C00020685EE7204600F013F8204600F014F867
:1039D0000020207720685BE7204600F009F82046A9
:1039E00000F00AF800202077206858E70000000067
:1039F0007047000000000000704700000000000059
:103A000044F600010068C4F20101884218BF704703
:103A1000FDF74ABE000000007047000000000000F3
:103A200090F88410012901D1022070472421C0F8A8
:103A3000881001680A680B6822F0005223F0010325
:103A40000B60002343660A602021C0F8881080F8CC
:103A50008430002070470000704700000000000024
:103A6000704700000000000090F88420012A01D176
:103A70000220704770B52422C0F888200268D0F870
:103A800064E0BEF1000FD2F800C0136823F0010318
:103A90001360936823F0606341EA0301916019D0D9
:103AA000916848F6F40E9368C9F2010E5B0F48F670
:103AB000FC05C1F34266C9F201051EF80340E95C4A
:103AC0002301B3FBF1F11EF80630AE5D1B01B3FB21
:103AD000F6F301E001210123A0F86A102021A0F8EB
:103AE0006830C2F800C0C0F88810002180F8841047
:103AF000002070BD0000000090F88420012A01D150
:103B00000220704770B52422C0F888200268D0F8DF
:103B100064E0BEF1000FD2F800C0136823F0010387
:103B20001360936823F0604341EA0301916019D068
:103B3000916848F6F40E9368C9F2010E5B0F48F6DF
:103B4000FC05C1F34266C9F201051EF80340E95CB9
:103B50002301B3FBF1F11EF80630AE5D1B01B3FB90
:103B6000F6F301E001210123A0F86A102021A0F85A
:103B70006830C2F800C0C0F88810002180F88410B6
:103B8000002070BD00000000704700000000000031
:103B900070470000000000007047000000000000B7
:103BA00070B5016840F62F02CB691A40202A0A68D6
:103BB0008E680BD102F0200406F080552D1917D025
:103BC000416F69B3BDE87040084700BF40F60F057C
:103BD0002B420DD0012540F22014C1F20005C0F2A5
:103BE000004406EA050C02EA040515EB0C0525D194
:103BF000DD06C46E16D5012C14D112F0100511D0BB
:103C000010220A628968490666D4B0F85C10B0F8E0
:103C10005E20B0F85E30002B18BF914240F05C820D
:103C200070BD00BFDD0215D516F4800512D04FF42B
:103C300080120A62BDE87040FFF7AABFDD0718BF17
:103C400012F4807540F01E819D0706F0010E00F110
:103C500025812EE1190606D502F0800106F4000642
:103C6000891940F0BF82590640F1008112F04001ED
:103C700000F0FC80016851E8001F026821F040015B
:103C800042E80013F3B1016851E8001F026821F017
:103C9000400142E80013002B1FBF016851E8001FDC
:103CA000026821F040011CBF42E80013002B09D03C
:103CB000016851E8001F026821F0400142E800134A
:103CC000002BD7D12021C0F8881000218167BDE8E2
:103CD000704000F035BC00BFD0F880100A68526810
:103CE00093B2002B9CD0B0F85C60B34298D2A0F89D
:103CF0005E20C969B1F5807F00F0AC80016851E8B1
:103D0000001F026821F4807142E80013F3B10168DA
:103D100051E8001F026821F4807142E80013002B73
:103D20001FBF016851E8001F026821F480711CBFA9
:103D300042E80013002B09D0016851E8001F026817
:103D400021F4807142E80013002BD7D1016851E8BB
:103D5000021F026821F0010142E80213F3B1016879
:103D600051E8021F026821F0010142E80213002B12
:103D70001FBF016851E8021F026821F001011CBF4A
:103D800042E80213002B09D0016851E8021F0268C3
:103D900021F0010142E80213002BD7D1016851E85C
:103DA000021F026821F0400142E80213F3B10168EA
:103DB00051E8021F026821F0400142E80213002B83
:103DC0001FBF016851E8021F026821F040011CBFBB
:103DD00042E80213002B09D0016851E8021F026873
:103DE00021F0400142E80213002BD7D12021C0F876
:103DF0008C100021C166016851E8001F026821F0A3
:103E0000100142E80013F3B1016851E8001F026895
:103E100021F0100142E80013002B1FBF016851E898
:103E2000001F026821F010011CBF42E80013002BA4
:103E300009D0016851E8001F026821F0100142E832
:103E40000013002BD7D1D0F8801004460846FCF7A9
:103E50002BFF204602210167B0F85C10B0F85E200D
:103E6000891A89B2BDE87040FFF7F6BD190240F12A
:103E7000C58112F0804100F0C181BDE87040FFF7BC
:103E800083BE00BF01250D62D0F8905045F00105BA
:103E9000C0F890509D0706F0010E0AD5BEF1000F44
:103EA00007D002240C62D0F8904044F00404C0F81B
:103EB00090405C070AD5BEF1000F07D004250D62C3
:103EC000D0F8905045F00205C0F890501D070CD571
:103ED00002F0200555EA0C0507D008250D62D0F840
:103EE000905045F00805C0F890501D050BD512F014
:103EF000806508D04FF400650D62D0F8905045F011
:103F00002005C0F89050D0F89050002D3FF488AEB6
:103F10009B060BD502F0200206F08053D21805D084
:103F2000426F1AB10446904720462168D0F890208D
:103F3000896801F0400102F02802891806D1044680
:103F4000FFF72AFE0020C4F8900070BD016851E818
:103F5000001F026821F4907142E80013F3B1016878
:103F600051E8001F026821F4907142E80013002B11
:103F70001FBF016851E8001F026821F490711CBF47
:103F800042E80013002B09D0016851E8001F0268C5
:103F900021F4907142E80013002BD7D14FF6FE7147
:103FA000CEF6FF71026852E8022F03680A4043E828
:103FB0000226DEB1026852E8022F03680A4043E895
:103FC0000226002E1FBF026852E8022F03680A4033
:103FD0001CBF43E80226002E08D0026852E8022FD8
:103FE00003680A4043E80226002EDBD1C16E012996
:103FF00027D1016851E8001F026821F0100142E852
:104000000013F3B1016851E8001F026821F01001AC
:1040100042E80013002B1FBF016851E8001F02682F
:1040200021F010011CBF42E80013002B09D00168E9
:1040300051E8001F026821F0100142E80013002B34
:10404000D7D12021C0F88C100021C16602684167D9
:104050009168490640F1CE80016851E8021F02686C
:1040600021F0400142E80213F3B1016851E8021F58
:10407000026821F0400142E80213002B1FBF0168D3
:1040800051E8021F026821F040011CBF42E8021300
:10409000002B09D0016851E8021F026821F040019D
:1040A00042E80213002BD7D1D0F88010002900F08D
:1040B000A1804FF2617204460846C9F200020A6507
:1040C000FDF786F800283FF4ABADD4F88000016D11
:1040D000BDE87040084700BF891A026852E8002F07
:1040E000036822F4907243E80026F6B1026852E8B1
:1040F000002F036822F4907243E80026002E1FBFB1
:10410000026852E8002F036822F490721CBF43E853
:104110000026002E09D0026852E8002F036822F41E
:10412000907243E80026002ED7D14FF6FE72CEF6ED
:10413000FF72036853E8023F0668134046E8023501
:10414000DDB1036853E8023F0668134046E80235D4
:10415000002D1FBF036853E8023F066813401CBFD1
:1041600046E80235002D08D0036853E8023F066890
:10417000134046E80235002DDBD12022C0F88C2008
:104180000022C2664267026852E8002F036822F0EC
:10419000100243E80026F6B1026852E8002F0368D7
:1041A00022F0100243E80026002E1FBF026852E8EA
:1041B000002F036822F010021CBF43E80026002EE7
:1041C00009D0026852E8002F036822F0100243E889
:1041D0000026002ED7D189B202220267BDE87040C6
:1041E000FFF73ABC816F00293FF41AADBDE870407B
:1041F000084700BFBDE87040FFF7CEBCD9017FF58E
:104200000FADB2F1FF3FC8BF70BDBDE87040FFF712
:1042100027BC00000000000010B5A8B10446D0F88B
:10422000880028B9002084F88400204600F028F88F
:104230002420C4F888002068016821F00101016091
:1042400020460BF091FF08B1012010BDA06A10B10B
:1042500020460BF05DF92068416821F490414160EF
:10426000816821F02A018160016841F0010101604B
:104270002046BDE810400BF0BBB900000000000074
:10428000B0B5B8B0044602A8C0210025CDE9365526
:10429000CDE934553395FCF77EF841F200012068F2
:1042A000C4F20101884241D044F60041C4F2000149
:1042B00088426BD102A80024039402250295FDF7E1
:1042C0007FFE08B1FCF71CFB44F2E040C5F602009B
:1042D000816841F400218160816801F4002101912D
:1042E0000199016841F0040101600068002100F0BB
:1042F00004000190C5F6020101984FF44060359426
:10430000CDE93305032036900820379001F5006091
:1043100033A9FDF7CDF8342005210022FDF7ACFCD0
:104320003420FDF795FC38B0B0BD00BF01200290ED
:1043300002A80395FDF744FE08B1FCF7E1FA44F248
:10434000E040C5F60200016941F010010161016918
:1043500001F0100101910199016841F00101016032
:10436000006833A900F00100019001984FF4C0608B
:10437000339002203490002035900320369007209F
:1043800037900020C5F60200FDF792F838B0B0BDB6
:10439000D0F88C30202B07D10123002918BF002A28
:1043A00006D11846704700BF02231846704700BF69
:1043B00080B50023C36640F60043D0F800C0C5F6C0
:1043C00000039C4503D0DCF804301B0204D40CF03D
:1043D0000FF9002080BD00BF036853E800CFD0F87C
:1043E00000E04CF080634EE8003CBCF1000FEED0E2
:1043F000036853E800CFD0F800E04CF080634EE84B
:10440000003CBCF1000F1FBF036853E800CFD0F899
:1044100000E04CF080631CBF4EE8003CBCF1000F94
:10442000D5D0036853E800CFD0F800E04CF08063AB
:104430004EE8003CBCF1000FCED1C8E70000000000
:1044400044F600410068C4F20001884218BF70477A
:1044500040F2D44047F6EC31C2F20040C2F20041D3
:104460000088084401210BF01FB800000000000084
:104470002DE9F04182B00446D0F88800202809D107
:104480000F460120002918BF002A07D102B0BDE85D
:10449000F08100BF022002B0BDE8F0811D4600207F
:1044A000C4F890002120C4F888001646FDF7F4F8FF
:1044B000A4F854608046A4F85660A168B1F5805F06
:1044C00001D1206910B13E4600270AE0002608E02D
:1044D000206816F8011B8162B4F856000138A4F870
:1044E0005600B4F8560088B1802100222046434689
:1044F00000950CF0B9F9C8B9002EE9D137F8020BD4
:10450000216800266FF35F208862E5E740210022E2
:104510002046434600950CF0A7F920210028C4F856
:10452000881018BF032002B0BDE8F0812020C4F835
:104530008800032002B0BDE8F08100000000000008
:104540007047000000000000FEE7000000000000CF
:104550002DE9F04393B06D4641F6004841F2000664
:1045600034212846C5F60208C5F20026FBF713FFE2
:104570004FF4487001904FF4F0710391CDE90A01B6
:10458000FF2005904FF4806007900520089040F6CA
:1045900028100022C2F2004029464FF00209CDF84F
:1045A00010904FF04047099700248DF830408DF867
:1045B0003240FDF70DF944F2E0401294C5F60200D6
:1045C000CDE91044CDE90E44016841F0800101605D
:1045D00000680EA900F080000D900D9840200E900C
:1045E00001200F904046FCF763FF40210022404627
:1045F000FDF742F840F2141040F27401C2F200409C
:10460000C2F2004100F1080201604FF6FF7182E83A
:10461000120247614FF081718161306820F0010022
:1046200030604FF44030306040F2E010C6F8349013
:104630003464C0F22030F7637064B463306840F0D3
:10464000010030603068C00709D03068C0071CBF67
:1046500030685FEAC07002D03068C007F2D140F61F
:1046600028100021C2F20040FDF766FA4021012225
:104670004046FDF701F813B0BDE8F08300000000EC
:1046800070B586B044F2E0400025C5F602000595FD
:10469000CDE90355CDE90155016840F6000441F02C
:1046A000040101600068C5F6020400F004000090F7
:1046B00000984FF40051002220464FF40056FCF7BA
:1046C000DBFF012001A9CDE90205204601960495F2
:1046D000FCF7EEFE06B070BD40F62810C2F20040B6
:1046E000FDF7B6B800000000F0B500680027D1E97A
:1046F00000CE00EBC212C0F6FF77D1E90234C568E4
:10470000D2F8886006F47046C2F88860C6683D40FA
:1047100005EB0E45C6F30B46664401363543C2F839
:104720008850C568D2F88C606FF3DF2506F47046B8
:10473000C2F88C602C44C0686FF3DF20184401304D
:1047400040EA0440C2F88C00D2F8940020F0070040
:10475000C2F894000869C2F8940091F83230072832
:1047600091F831404FEA03438D69D2F89C604FF0D5
:104770000006C2F89C6043EA042391F8307043EAD3
:10478000056340F207743B44C2F89C30D2F898307D
:1047900023F0FF03C2F898304B69C2F89830D2F882
:1047A000A03023EA0403C2F8A030D1E9073443EA79
:1047B0000403C2F8A03002F18403D2F8AC40C2F87E
:1047C000AC604C6AC2F8AC4006D848F6D402C9F2D4
:1047D000010252F8200000E00120DA6AAEEB0C077B
:1047E00002F0E022DA62D1E90A124143784307304D
:1047F00040EA0140D862186B40F2FF7188431863A9
:104800001A63186840F001001860F0BD0000000055
:10481000FEE7000000000000FEE7000000000000CE
:1048200070B540F2744040F2E845C2F20040C2F276
:104830000045002604682E616E61C5E90066C5E981
:104840000266AE617CB12046EC6012F0A1F82882CD
:1048500020466E8212F09CF880B2698A884202D1AA
:1048600040F20110288040F2A440C2F200400468E7
:1048700084B120466C6112F08BF828830020688395
:10488000204612F085F880B2698B884202D140F24E
:104890000220288040F26440C2F2004004687CB1EB
:1048A00044F679112046C9F2010112F076F842F679
:1048B00019610722C9F201010123204612F072F8A2
:1048C00040F26C40C2F2004004687CB144F65911D9
:1048D0002046C9F2010112F060F842F61961072280
:1048E000C9F201010223204612F05CF840F2904028
:1048F000C2F2004004687CB144F619112046C9F2A6
:10490000010112F04AF842F609610722C9F20101D9
:104910000023204612F046F840F2A840C2F20040C0
:104920000468002C08BF70BD44F639112046C9F256
:10493000010112F032F842F609610722C9F20101C1
:1049400000232046BDE8704012F02CB800000000A3
:10495000B0B586B000200590CDE90300CDE9010097
:1049600044F2E04042F20004C5F60200C5F602043B
:1049700001AD016841F480710160016801F480714A
:1049800000910099016841F4807101600068294636
:1049900000F4807000900098022003904FF40060B3
:1049A00001902046FCF784FD4FF480700190204672
:1049B0002946FCF77DFD4FF47A6002F0CDF94FF403
:1049C00080712046FCF748FE01280CD04FF40061AE
:1049D0002046FCF741FE012805D040F230100121AD
:1049E000C2F20040017006B0B0BD0000000000003F
:1049F000EFF30980BFF36F8F154B1A681EF0100F8D
:104A000008BF20ED108A20E9F04F10602DE9090061
:104A10004FF0500072B680F31188BFF34F8FBFF391
:104A20006F8F62B610F0ECFB4FF0000080F311883E
:104A3000BDE8090019680868B0E8F04F1EF0100FD3
:104A400008BFB0EC108A80F30988BFF36F8F7047FE
:104A5000480100240000000080B501200021002250
:104A60000EF00EF947F6EC41C2F20041086080BD3D
:104A7000F0B581B044F22C47C5F6020757F8042C74
:104A800002F00302032A03D1012001B0F0BD00BFF0
:104A9000054657F82C0C0C4620F0806047F82C0C8B
:104AA000FCF7FAFD064600BF57F82C0C000105D5AF
:104AB000FCF7F2FD801B0228F6D964E057F8040CDD
:104AC000EE6895E80E0020F47C30012C40EA0130BD
:104AD000A2F101016FF35F214FF47E4202EB43220A
:104AE00047F8040C92B24FF0FE4302EB01004FF482
:104AF000FE012A6901EB064101F4FE0103EB0262AB
:104B0000084402F0FE410844F8603868696920F002
:104B1000C00040EA010038603868A96920F0200030
:104B200040EA0100386038684FF6F87120F0100054
:104B300038603869EA6920EA01004FF4001140EA60
:104B4000C2003861386808BF4FF4801140F010008F
:104B5000002C386008BF4FF40021386808433860E3
:104B600057F82C0C40F0806047F82C0CFCF794FDB3
:104B7000044600BF57F82C0C000107D4FCF78CFD4D
:104B8000001B0328F6D3032001B0F0BD002001B0C4
:104B9000F0BD000000000000F0B581B044F22C47E9
:104BA000C5F6020757F8042C02F00302032A03D1CA
:104BB000012001B0F0BD00BF054657F82C0C0C4693
:104BC00020F0805047F82C0CFCF766FD064600BF2D
:104BD00057F82C0C800005D5FCF75EFD801B0228E1
:104BE000F6D964E057F8040CEE6895E80E0020F062
:104BF0007C70012C40EA0150A2F101016FF35F21AA
:104C00004FF47E4202EB432247F8040C92B24FF07D
:104C1000FE4302EB01004FF4FE012A6901EB06415D
:104C200001F4FE0103EB0262084402F0FE41084475
:104C300078613868696920F4406040EA01003860B2
:104C40003868A96920F4007040EA010038603868CB
:104C50004FF6F87120F480703860B869EA6920EA8C
:104C600001004FF0807140EAC200B861386808BFA7
:104C70004FF4000140F48070002C386008BF4FF4FE
:104C8000800138680843386057F82C0C40F0805099
:104C900047F82C0CFCF700FD044600BF57F82C0C1D
:104CA000800007D4FCF7F8FC001B0328F6D3032090
:104CB00001B0F0BD002001B0F0BD00000000000018
:104CC0002DE9F04182B040F26C560025C2F2004658
:104CD00001954FF480524FF00108316810270446C7
:104CE000C1F80080C1E90178CD60FEF7F5FC012034
:104CF000FCF7CAFB316802204FF4805281E8810141
:104D00002046CD60FEF7E8FC316803204FF4805266
:104D1000C1E900070820C1E902052046FEF7DCFCD6
:104D20004FF40C700190316804204FF4805281E8F8
:104D300081010198C8602046FEF7CEFC40F2076171
:104D4000204602B0BDE8F041FEF7A6BC000000001E
:104D5000074B19680868B0E8F04F80F30988BFF383
:104D60006F8F4FF0000080F31188704700BF00BFC5
:104D7000480100240000000011F019FE0DF004FBB2
:104D80000DF026FB0FF008FEFFF74AFD0BF050FF79
:104D90000CF09AF940F2C80640F298480027C2F297
:104DA0000046C2F200480FF26009002403E000BF91
:104DB00010200DF0B1FD70694FF0FF310DF0DCFEF9
:104DC00011F0FAFD70690DF037FF0DF0B5FD0546E5
:104DD000001BB0F5FA7F0DD370694FF0FF310DF075
:104DE000CBFED8F80000494611F0EBFD70690DF0DC
:104DF00023FF2C460BF058FFE81B1E28D8D30AF0DF
:104E0000DBFA2F46D4E700BF496E666F726D61749E
:104E1000696F6E000000000040F60004C5F6020451
:104E20004FF400512046FCF71FFC64200DF074FD88
:104E3000F6E70000000000000A200DF06DFDFBE722
:104E400080B54EF21000CEF20000006811F048FB71
:104E5000012808BF80BDBDE8804010F0F5BA000011
:104E600070B59CB044F6180440F22C4509A84C21BA
:104E7000C5F60204C5F60005FBF78DFA02200026F0
:104E8000CDE90766CDE90566CDE90366CDE90166A2
:104E9000FCF732FF0096286820F00100286028689F
:104EA00000F001000090206840F44040206020683D
:104EB00000F44040009000982068800409D42068E5
:104EC00080045CBF20685FEA804002D420688004D0
:104ED000F2D54FF6DC40CFF6FF70215841F00201C9
:104EE0002150205800F0020000900098002000900F
:104EF000206840F440402060206800F4404000906A
:104F0000286840F001002860286800F00100009047
:104F100000982068800409D4206880045CBF206861
:104F20005FEA804002D420688004F2D50120099015
:104F30004FF480300A9002200521CDE9120014912F
:104F4000C021CDE91510CDE9170009A8082419944E
:104F50000025CDE91A55FEF72BF828B1EFF31080A4
:104F600072B600BFFEE700BF3F20019003204FF460
:104F70008061CDE9020540200494CDE90500CDE92A
:104F8000071001A80421FDF7A3FD28B1EFF310805D
:104F900072B600BFFEE700BF1CB070BD000000008D
:104FA00080B54EF6885C42F2000ECEF2000CC5F2DF
:104FB000002EDCF8001041F47001CCF80010DEF88F
:104FC000001001F00F01062906D8DEF800100722B4
:104FD00062F30301CEF8001044F200414EF67F5315
:104FE000C5F60201CEF6F6230A6842F001020A6015
:104FF00000220A61086818400860DEF80000000717
:1050000006D5DEF80000072363F30300CEF80000A6
:1050100040F200208A61CA61C0F202200A628862FE
:105020000020C0F2FF10C86240F28020C0F20110E0
:1050300008634A638863CA6308644A64086820F4A2
:105040008020086041F200000A66C5F60040006852
:10505000B2EB507F05D148F208100121C5F20010D3
:10506000016044F2000043F2D201C5F20020016069
:105070004FF010404CF8800C80BD00000000000094
:1050800040F6D010C2F20040FEF7EABB000000007C
:1050900040F6FF32C4F200029042026810DCB0F128
:1050A000804F1ED040F20043C4F20003984218D053
:1050B00040F60003C4F20003984212D015E000BF8E
:1050C00040F60043C4F2000398420AD040F2004385
:1050D000C4F20103984204D00023C4F201039842B1
:1050E00003D122F070024B681A434FF6FF7343F668
:1050F000FF7CC4F20003C4F2010C984210DD60454D
:1051000028DD44F20003C4F2010398422DD044F696
:105110000003C4F20103984227D044F2004320E088
:1051200040F2FF73C4F20003984207DCB0F1804FF5
:105130001BD040F20043C4F2000314E040F6000329
:10514000C4F20003984210D040F60043C4F20003BA
:1051500009E000BF0023C4F20103984205D040F2E9
:105160000043C4F20103984203D122F44072CB6899
:105170001A4310B522F08002D1F800E04C698B6828
:1051800022430260C3626045C0F828E0BDE81040D9
:1051900014DD44F20002C4F20102904219D044F638
:1051A0000002C4F20102904213D044F20042C4F261
:1051B000010290420DD00121416170470022C4F2EA
:1051C0000102904205D040F20042C4F20102904236
:1051D000F1D10969016301214161704700000000BC
:1051E000B0B582B041F600441021C5F60204002299
:1051F00020460025FCF740FAADF80050BDF800004D
:10520000072824D8BDF800000130ADF80000BDF833
:10521000000007281BD8BDF800000130ADF80000E1
:10522000BDF8000007289FBFBDF800000130ADF8B1
:105230000000BDF8000098BF072808D8BDF800009E
:105240000130ADF80000BDF800000828DAD3ADF851
:105250000050BDF80000072824D8BDF80000013038
:10526000ADF80000BDF8000007281BD8BDF800000D
:105270000130ADF80000BDF8000007289FBFBDF861
:1052800000000130ADF80000BDF8000098BF07280D
:1052900008D8BDF800000130ADF80000BDF80000EE
:1052A0000828DAD30020ADF80000BDF80010072967
:1052B00024D8BDF800100131ADF80010BDF8001081
:1052C00007291BD8BDF800100131ADF80010BDF85A
:1052D000001007299FBFBDF800100131ADF8001084
:1052E000BDF8001098BF072908D8BDF8001001319B
:1052F000ADF80010BDF800100829DAD3ADF80000B1
:10530000BDF80000072824D8BDF800000130ADF832
:105310000000BDF8000007281BD8BDF800000130D0
:10532000ADF80000BDF8000007289FBFBDF80000E1
:105330000130ADF80000BDF8000098BF072808D87C
:10534000BDF800000130ADF80000BDF800000828ED
:10535000DAD30020ADF80000BDF80010072924D8EA
:10536000BDF800100131ADF80010BDF8001007299C
:105370001BD8BDF800100131ADF80010BDF80010C9
:1053800007299FBFBDF800100131ADF80010BDF82E
:10539000001098BF072908D8BDF800100131ADF8FA
:1053A0000010BDF800100829DAD3ADF80000BDF8F0
:1053B0000000072824D8BDF800000130ADF8000037
:1053C000BDF8000007281BD8BDF800000130ADF87B
:1053D0000000BDF8000007289FBFBDF800000130A5
:1053E000ADF80000BDF8000098BF072808D8BDF848
:1053F00000000130ADF80000BDF800000828DAD345
:105400000020ADF80000BDF80010072924D8BDF831
:1054100000100131ADF80010BDF8001007291BD8AD
:10542000BDF800100131ADF80010BDF800100729DB
:105430009FBFBDF800100131ADF80010BDF800109D
:1054400098BF072908D8BDF800100131ADF8001049
:10545000BDF800100829DAD3ADF80000BDF800004F
:10546000072824D8BDF800000130ADF80000BDF8D1
:10547000000007281BD8BDF800000130ADF800007F
:10548000BDF8000007289FBFBDF800000130ADF84F
:105490000000BDF8000098BF072808D8BDF800003C
:1054A0000130ADF80000BDF800000828DAD3002074
:1054B000ADF80000BDF80010072924D8BDF8001091
:1054C0000131ADF80010BDF8001007291BD8BDF858
:1054D00000100131ADF80010BDF8001007299FBF82
:1054E000BDF800100131ADF80010BDF8001098BFF4
:1054F000072908D8BDF800100131ADF80010BDF83B
:1055000000100829DAD3ADF80000BDF80000072824
:1055100024D8BDF800000130ADF80000BDF800004F
:1055200007281BD8BDF800000130ADF80000BDF819
:10553000000007289FBFBDF800000130ADF8000053
:10554000BDF8000098BF072808D8BDF8000001305A
:10555000ADF80000BDF800000828DAD30020ADF84F
:105560000000BDF80010072924D8BDF80010013153
:10557000ADF80010BDF8001007291BD8BDF80010C9
:105580000131ADF80010BDF8001007299FBFBDF82C
:1055900000100131ADF80010BDF8001098BF0729C8
:1055A00008D8BDF800100131ADF80010BDF80010AA
:1055B0000829DAD3ADF80000BDF80000072824D888
:1055C000BDF800000130ADF80000BDF8000007286C
:1055D0001BD8BDF800000130ADF80000BDF8000098
:1055E00007289FBFBDF800000130ADF80000BDF8EE
:1055F000000098BF072808D8BDF800000130ADF8BA
:105600000000BDF800000828DAD30020ADF8000043
:10561000BDF80010072924D8BDF800100131ADF8FD
:105620000010BDF8001007291BD8BDF8001001318B
:10563000ADF80010BDF8001007299FBFBDF800109D
:105640000131ADF80010BDF8001098BF072908D847
:10565000BDF800100131ADF80010BDF800100829A8
:10566000DAD3ADF80000BDF80000072824D8BDF853
:1056700000000130ADF80000BDF8000007281BD87D
:10568000BDF800000130ADF80000BDF800000728AB
:105690009FBFBDF800000130ADF80000BDF800006C
:1056A00098BF072808D8BDF800000130ADF8000009
:1056B000BDF800000828DAD30020ADF80000BDF8DE
:1056C0000010072924D8BDF800100131ADF80010F2
:1056D000BDF8001007291BD8BDF800100131ADF846
:1056E0000010BDF8001007299FBFBDF80010013160
:1056F000ADF80010BDF8001098BF072908D8BDF814
:1057000000100131ADF80010BDF800100829DAD3FF
:10571000ADF80000BDF80000072824D8BDF800004F
:105720000130ADF80000BDF8000007281BD8BDF817
:1057300000000130ADF80000BDF8000007289FBF51
:10574000BDF800000130ADF80000BDF8000098BFC2
:10575000072808D8BDF800000130ADF80000BDF8FA
:1057600000000828DAD30020ADF80000BDF80010D2
:10577000072924D8BDF800100131ADF80010BDF89C
:10578000001007291BD8BDF800100131ADF800103A
:10579000BDF8001007299FBFBDF800100131ADF81A
:1057A0000010BDF8001098BF072908D8BDF80010F8
:1057B0000131ADF80010BDF800100829DAD3ADF8BA
:1057C0000000BDF80000072824D8BDF80000013013
:1057D000ADF80000BDF8000007281BD8BDF8000098
:1057E0000130ADF80000BDF8000007289FBFBDF8EC
:1057F00000000130ADF80000BDF8000098BF072898
:1058000008D8BDF800000130ADF80000BDF8000078
:105810000828DAD30020ADF80000BDF800100729F1
:1058200024D8BDF800100131ADF80010BDF800100B
:1058300007291BD8BDF800100131ADF80010BDF8E4
:10584000001007299FBFBDF800100131ADF800100E
:10585000BDF8001098BF072908D8BDF80010013125
:10586000ADF80010BDF800100829DAD3ADF800003B
:10587000BDF80000072824D8BDF800000130ADF8BD
:105880000000BDF8000007281BD8BDF8000001305B
:10589000ADF80000BDF8000007289FBFBDF800006C
:1058A0000130ADF80000BDF8000098BF072808D807
:1058B000BDF800000130ADF80000BDF80000082878
:1058C000DAD32021002220460025FBF7D5FEADF8D3
:1058D0000250BDF80200072824D8BDF802000130AC
:1058E000ADF80200BDF8020007281BD8BDF8020081
:1058F0000130ADF80200BDF8020007289FBFBDF8D7
:1059000002000130ADF80200BDF8020098BF072880
:1059100008D8BDF802000130ADF80200BDF8020061
:105920000828DAD3ADF80250BDF80200072824D8C1
:10593000BDF802000130ADF80200BDF802000728F2
:105940001BD8BDF802000130ADF80200BDF802001E
:1059500007289FBFBDF802000130ADF80200BDF876
:10596000020098BF072808D8BDF802000130ADF842
:105970000200BDF802000828DAD30020ADF80200CA
:10598000BDF80210072924D8BDF802100131ADF886
:105990000210BDF8021007291BD8BDF80210013112
:1059A000ADF80210BDF8021007299FBFBDF8021024
:1059B0000131ADF80210BDF8021098BF072908D8D0
:1059C000BDF802100131ADF80210BDF8021008292F
:1059D000DAD3ADF80200BDF80200072824D8BDF8DC
:1059E00002000130ADF80200BDF8020007281BD804
:1059F000BDF802000130ADF80200BDF80200072832
:105A00009FBFBDF802000130ADF80200BDF80200F2
:105A100098BF072808D8BDF802000130ADF8020091
:105A2000BDF802000828DAD30020ADF80200BDF866
:105A30000210072924D8BDF802100131ADF8021078
:105A4000BDF8021007291BD8BDF802100131ADF8CE
:105A50000210BDF8021007299FBFBDF802100131E6
:105A6000ADF80210BDF8021098BF072908D8BDF89C
:105A700002100131ADF80210BDF802100829DAD386
:105A8000ADF80200BDF80200072824D8BDF80200D6
:105A90000130ADF80200BDF8020007281BD8BDF8A0
:105AA00002000130ADF80200BDF8020007289FBFD8
:105AB000BDF802000130ADF80200BDF8020098BF49
:105AC000072808D8BDF802000130ADF80200BDF883
:105AD00002000828DAD30020ADF80200BDF8021059
