:0200000490006A
:1000000010B60024AD02009021820090517F009034
:100010001982009041090090814501900000000084
:100020000000000000000000000000006187009058
:10003000592A009000000000018400904988009037
:10004000C7020090C7020090C7020090C70200904C
:10005000C7020090C7020090C7020090C70200903C
:10006000C7020090C7020090C702009019260090B6
:10007000C7020090C7020090C7020090C70200901C
:10008000C7020090C7020090C7020090C70200900C
:10009000C7020090C7020090C7020090C7020090FC
:1000A000C7020090C7020090C7020090C7020090EC
:1000B000C7020090C7020090C7020090C7020090DC
:1000C000C7020090C7020090C7020090C7020090CC
:1000D000C7020090C7020090C7020090C7020090BC
:1000E000C7020090C702009000000000C702009005
:1000F000C7020090C7020090C7020090C70200909C
:10010000C7020090C7020090C7020090C70200908B
:10011000C12E0190C7020090998A0090C7020090FA
:10012000C7020090C7020090C7020090C70200906B
:10013000C7020090C7020090C7020090C70200905B
:1001400000000000000000000000000000000000AF
:10015000C7020090C7020090C7020090C70200903B
:10016000C7020090C7020090C7020090C70200902B
:10017000C7020090C7020090C7020090C70200901B
:10018000C7020090C7020090C7020090C70200900B
:10019000C7020090C7020090C7020090C7020090FB
:1001A000E1800090C7020090C7020090C702009053
:1001B000C7020090C7020090C7020090C7020090DB
:1001C000C7020090C7020090C7020090C7020090CB
:1001D000C7020090C7020090C7020090C7020090BB
:1001E000C7020090C7020090C7020090C7020090AB
:1001F000C7020090C7020090C7020090C70200909B
:10020000C7020090C7020090C7020090C70200908A
:10021000C7020090C7020090898A0090C702009030
:10022000C7020090C7020090C702009000000000C3
:10023000C7020090C702009000000000C7020090B3
:10024000C7020090C7020090C7020090C70200904A
:10025000C7020090C7020090C7020090C70200903A
:10026000C7020090C7020090C7020090C70200902A
:10027000C7020090C7020090C70200900000000073
:10028000C7020090C7020090C70200900000000063
:1002900000000000C7020090DFF80CD000F09EFACA
:1002A000004800474161019010B60024064880478D
:1002B00006480047FEE7FEE7FEE7FEE7FEE7FEE74B
:1002C000FEE7FEE7FEE7FEE7A989009099020090AD
:1002D0002DE9F05F0546002092469B46884606467B
:1002E000814640241BE0284641464746224600F00E
:1002F000ACF853465A46C01A914110D311461846DD
:10030000224600F093F82D1A67EB01084F4622466B
:100310000120002100F08AF817EB00094E41201E51
:10032000A4F10104DFDC484631462A464346BDE8D5
:10033000F09F00000048704784B70190A0F1610170
:10034000192900D82038704710B5431A934209D2B2
:100350008318881803E010F8011D03F8011D521ED0
:10036000F9D210BD40EA01039B0703D009E008C998
:10037000121F08C0042AFAD203E011F8013B00F86A
:10038000013B521EF9D210BDD2B201E000F8012BA0
:10039000491EFBD270470022F6E710B513460A4605
:1003A00004461946FFF7F0FF204610BD10B504467D
:1003B00004E00B7800F8013B03B1491C521EF8D24F
:1003C000204610BD421C10F8011B0029FBD1801AE9
:1003D000704710B5002200E0521C835C8C5CA34285
:1003E00001D1002BF8D1D8B2E1B2401A10BD0346BA
:1003F00011F8012B00F8012B002AF9D1184670479B
:1004000030B50B46014600202022012409E021FAE4
:1004100002F59D4205D303FA02F5491B04FA02F5E1
:100420002844151EA2F10102F1DC30BD202A04DBB4
:10043000203A00FA02F1002070479140C2F12003F7
:1004400020FA03F3194390407047202A04DB203A36
:1004500021FA02F00021704721FA02F3D040C2F1E4
:10046000200291400843194670472DE9FE4F80460F
:1004700081EA0300C00F0C46009021F0004123F0F8
:100480000045B8EB0200A94105D2404621469046FE
:100490001C460B46024623F00040104347D0270D70
:1004A000C7F30A00C3F30A510290401A0190402892
:1004B0006BDAC3F3130040F4801B0098924620B11E
:1004C0000023D2EB030A63EB0B0B01985946C0F1F2
:1004D00040025046FFF7AAFF06460D4650465946D1
:1004E000019A00F093F910EB08006141002487EABB
:1004F000115284EAE7731A4340D0009A62B3019A1A
:10050000012A4FEA075215DC001B61EB02014FF094
:10051000004202EA0752CDE90042001C41F5801179
:1005200032462B4600F093F903B0BDE8F08F404609
:100530002146F9E7001B61EB0201001C41F5801325
:1005400000185B412018A2F5001747EB030140EAB1
:10055000D570B6196D4111E06D084FEA360645EACF
:10056000C0754FEA0752001B61EB0201001C41F508
:10057000801149084FEA30000019514132462B469C
:1005800003B0BDE8F04F00F053B9009801224000DD
:100590000023D0EB020263EBE073009821464FEAA0
:1005A000E074B8EB000061EB0401E9E783F000437D
:1005B0005BE781F0004158E72DE9FE4F81EA030433
:1005C00004F0004421F0004100944FF0000B23F0B0
:1005D000004350EA01045ED052EA03045BD0C3F347
:1005E0000A54C1F30A552C44A4F2F3340194A0FB3D
:1005F0000254C1F3130141F48011C3F3130343F414
:10060000801301FB024400FB034E840A970A44EA6C
:10061000815447EA8357A4FB076802958D0A05FBBE
:1006200007854FEA932C04FB0C542705029D4FEAE3
:10063000065847EA1637B5EB08056EEB070C870E30
:10064000920E47EA811742EA8312A7FB0201B6EB3A
:100650000B0164EB00042B0D43EA0C335E1844EBF2
:100660001C50DA465146E7FB0201C5F313044FEA7A
:100670000B3343EA14534FEA0432019C43EA060366
:10068000A4F10C040294009CCDE900B400F0DFF862
:1006900003B0BDE8F08F00200146F9E72DE9F04DE9
:1006A00081EA030404F0004B21F0004514464FF0AA
:1006B000000A23F0004150EA050220D054EA01026A
:1006C0001DD0C5F30A570246C5F31303C1F3130047
:1006D000C1F30A5640F4801543F48013A7EB0608D3
:1006E000101BD64608F2FD3873EB050002D308F163
:1006F000010801E092185B41B8F1000F03DA002015
:100700000146BDE8F08D00204FF480110646844676
:100710000EE0171B73EB050705D3121B63EB0503F4
:1007200006434CEA010C49084FEA300092185B413D
:1007300050EA0107EDD152EA030012D082EA040028
:1007400083EA0501084305D0101BAB4106D2012204
:10075000002306E000224FF0004302E06FF00102A8
:1007600053101AEB06004CEB085110EB0A0041EB5A
:100770000B01BDE8F04D00F05BB8C1F30A52C1F3C4
:10078000130140F2FF3341F480119A4202DA002053
:100790000146704740F233439A42A2F2334202DCF0
:1007A0005242FFF752BEFFF741BE000030B5041EB3
:1007B00071F1000404DB4FF00044404264EB01019E
:1007C000141E73F1000405DB1C464FF00043524237
:1007D00063EB0403994208BF904230BD1CB5094841
:1007E0000090094801900546009C06E0E06840F052
:1007F000010394E8070098471034AC42F6D3FFF7A2
:100800004FFD000060D71090A0D71090202A06DB83
:10081000CB17203A41FA02F043EAE07306E041FACE
:1008200002F3D040C2F120029140084319467047BC
:1008300010B5141E73F1000408DA401C41F10001E8
:1008400092185B411A4301D120F0010010BD2DE93F
:10085000F04D92469B4611B1B1FA81F202E0B0FA36
:1008600080F220329046FFF7E1FD04460F4640EA51
:100870000A0041EA0B0153465A46084313D0114679
:1008800053EA010019D0C8F140025046FFF7DDFDE0
:1008900005460E46504659464246FFF7C7FD0843F7
:1008A00005D0012004E020463946BDE8F08D002047
:1008B000054346EAE0762C4337430A986305E40A89
:1008C000A0EB08000022FD0A44EA47540A3002D592
:1008D00000200146E9E7010510196941DDE90845F5
:1008E00000196941BDE8F04DA2E770B58C1810F809
:1008F000015B15F0070301D110F8013B2A1106D165
:1009000010F8012B03E010F8016B01F8016B5B1E7E
:10091000F9D12B0705D40023521E0DD401F8013B59
:10092000FAE710F8013BCB1A921C03E013F8015BC5
:1009300001F8015B521EF9D5A142D8D3002070BD49
:10094000FEE7000000000000BEB0B7EE00AAB6EE61
:1009500000BA47F6CC4636A8C2F20046411C1F91A9
:10096000C11C1991411D1591C11D119100F1090181
:100970000D9100F10B01099100F10D0105913AA9CA
:100980009FED0E8A06F10E049FED0D9A00259FED56
:100990000DCA0F300190881C1B90081D1790881DF0
:1009A000139001F108000F9001F10A000B9001F182
:1009B0000C00079001F10E00039005E0DB0FC94029
:1009C0000000803A00FF7F4700EE105AB8EE400A60
:1009D00020EE080A20EE090A1AF080F830EE0A0A22
:1009E000B0EE4B1A681C20EE0B0AA0EE0C1A00EEBB
:1009F000100AB8EE400ABCEEC11A20EE080A11EE49
:100A0000100A20EE090A24F80E0C1AF067F830EEEE
:100A10000A0AB0EE4B1AA81C20EE0B0AA0EE0C1A24
:100A200000EE100AB8EE400ABCEEC11A20EE080A29
:100A300011EE100A20EE090A24F80C0C1AF04EF8F8
:100A400030EE0A0AB0EE4B1AE81C20EE0B0AA0EEBC
:100A50000C1A00EE100AB8EE400ABCEEC11A20EEE5
:100A6000080A11EE100A20EE090A24F80A0C1AF0FE
:100A700035F830EE0A0AB0EE4B1A281D20EE0B0AAC
:100A8000A0EE0C1A00EE100AB8EE400ABCEEC11A35
:100A900020EE080A11EE100A20EE090A24F8080CCC
:100AA0001AF01CF830EE0A0AB0EE4B1A681D20EE60
:100AB0000B0AA0EE0C1A00EE100AB8EE400ABCEECB
:100AC000C11A20EE080A11EE100A20EE090A24F8D5
:100AD000060C1AF003F830EE0A0AB0EE4B1AA81D05
:100AE00020EE0B0AA0EE0C1A00EE100AB8EE400A37
:100AF000BCEEC11A20EE080A11EE100A20EE090A17
:100B000024F8040C19F0EAFF30EE0A0AB0EE4B1A92
:100B1000E81D20EE0B0AA0EE0C1A00EE100AB8EE4B
:100B2000400ABCEEC11A20EE080A11EE100A20EEAF
:100B3000090A24F8020C19F0D1FF30EE0A0AB0EECF
:100B40004B1A0835B5F5806F20EE0B0AA0EE0C1A93
:100B5000BCEEC10A10EE100A24F8100B7FF434AF7B
:100B600036A844F2210C011D169100F108010E91E6
:100B70003AA90C300690481C1E90481D149001F1B3
:100B800009000C9006F5FC6000264FF47C73C0F25F
:100B9000800C0D31049100BF3146B6F5007F28BFAF
:100BA00003F10F0103F10E07B6F5007F38BF771C84
:100BB000C1EB0141B6F5007F01F1FF01A1FB0C542F
:100BC00003F10D0538BFB51CA1EB040EC7EB0747B9
:100BD000FF37B6F5007FA7FB0C2104EB5E02C5EBE7
:100BE000054503F10C0405F1FF05A7EB010838BF2B
:100BF000F41C4FEA122EA5FB0C2701EB5801B6F5A9
:100C0000007FA5EB0709C4EB044403F10B0504F1D5
:100C1000FF0438BF351D4FEA1128A4FB0C1207EB67
:100C2000590120F820EFA4EB0209C5EB054503F1BB
:100C30000A04B6F5007F05F1FF054FEA112E38BF13
:100C4000741DA5FB0C1702EB5901A0F80280B6F544
:100C5000007FA5EB0709C4EB044403F1090504F187
:100C6000FF0438BFB51D4FEA1128A4FB0C1207EB97
:100C70005901A0F804E0A4EB0209C5EB054503F116
:100C80000804B6F5007F05F1FF054FEA112E38BFC5
:100C9000F41DA5FB0C1702EB5901A0F80680B6F570
:100CA000007FA5EB0709C4EB044403F1070504F139
:100CB000FF0438BF06F108054FEA1128A4FB0C1207
:100CC00007EB5901A0F808E0A71AC5EB0545FF3569
:100CD000B6F5007F02EB5702A5FB0C7403F1060783
:100CE0004FEA122238BF06F109072D1BC281090AFB
:100CF000A0F80A80C7EB07425F1D8181FF32B6F57D
:100D0000007F04EB550138BF06F10A07A2FB0C5423
:100D10001D1DB6F5007F4FEA112138BF06F10B0506
:100D2000121B0182C7EB0741B6F5007F01F1FF01FD
:100D300004EB5202A1FB0C74C5EB054707F1FF075A
:100D40004FEA1222A1EB040EA7FB0C5103F103059D
:100D5000428238BF06F10C0504EB5E027F1A9C1C30
:100D6000B6F5007FC5EB054538BF06F10D04FF352C
:100D700001EB570EA5FB0C71120A8282C4EB0442F0
:100D8000A5EB01085D1CFF32B6F5007F38BF06F108
:100D90000E05A2FB0C744FEA1E27C782B6F5007F32
:100DA000A3F1100EA2EB040238BF06F10F03C5EB4E
:100DB0000545103601EB5801FF35090A018304EBA4
:100DC0005202A5FB0C47C3EB0341B6F5806F01F15E
:100DD000FF01A5EB0703A1FB0C454FEA122242835A
:100DE00007EB5302A1EB050173464FEA12228283FF
:100DF00005EB51014FEA1121C1837FF4CDAE36A836
:100E000047F6CC49811C0A300A903AA81A91C11CB5
:100E100018910B300890002040F6E2714FF4805298
:100E200041F206034FF48157C2F200490026B0F5A3
:100E3000007F09EB400409EB010538BF4FF0FF3696
:100E400020304031B0F5806FA6522E846E84E65279
:100E5000EE842E856E85AE85EE852E866E86AE86F8
:100E6000EE862E876E87AE87E653A5F84060A5F81C
:100E70004260A5F84460A5F84660A5F84860A5F86A
:100E80004A60A5F84C60A5F84E60A5F85060A5F83A
:100E90005260A5F85460A5F85660A5F85860A5F80A
:100EA0005A60A5F85C60C1D140F26C0A40F264550A
:100EB000C2F2004AC2F20045032000268AF8000070
:100EC0008AF802004FF47A70CAF8040040F6B8308D
:100ED000CAF8080036A8C5E90166C5E90366811DA0
:100EE00012916E610E3002900120AE708AF80100FE
:100EF0003AA8C11D10912E700F3000906E7013F043
:100F00005FFD15F019FC044615F016FC6FF0C701E3
:100F10000C1B2044B0F1FF3F41F322834EF6687969
:100F2000CEF2000915F008FC40F200020446C3F2BC
:100F3000040244F21F0048F21F011044114420F043
:100F40001F0021F01F01801A2390881AA0F580410C
:100F5000229144F26101401A209043F6E07010445F
:100F60001D9047F6CC40C2F2004000F5805035900D
:100F700043F6F87010441C90A87801281CD12878FA
:100F8000F0B12E709AF8020003281CBFE96800290E
:100F90001ED140F200004FF48041C3F20400FFF77D
:100FA000FAF92398012880F2D08101276878002877
:100FB00040F0FB8100F010BC002700F00DBC00BF2A
:100FC00000276878002840F0F08100F005BC00BFE1
:100FD0006B69002BDDD02494022888BF00201FFA03
:100FE00081FA2A690228349340F00481D81833909A
:100FF00018443290184431901844309018442F907F
:1010000018442E9018442D9018442C9018442B907E
:1010100018442A901844299018442890184427907E
:10102000184426901844259040F2000048F2010C24
:10103000C3F204004FF40058A0F1100B47F6FF79FB
:10104000C8F2000C2D98940D35991044800D349BF6
:1010500031F8144003EB020E31F810004FEA9E53B2
:101060000AFB0494339E0AFB009031F81330A4FB72
:101070000C47B418A0FB0C05A00D0AFB0393329E8D
:1010800031F81000FF0BA3FB0C34EB0BB5180AFB77
:101090000090AD0D319E2BF8203FE30BB4182BF8D8
:1010A000107CA70DA0FB0C0431F815002BF80E3CAA
:1010B00031F81730309E0AFB0090B518E70B0AFB99
:1010C0000393A0FB0C04A80D2BF80C7CA3FB0C379E
:1010D00031F81000E30B2BF80A3CFB0B0AFB0090E5
:1010E0002F9F2E9E1744B518BF0DA0FB0C04A80D12
:1010F0002BF8083C31F81730E70B31F810002BF8CB
:10110000067C2C9F17440AFB03930AFB0090BF0D3B
:101110002B9EA3FB0C34B518B8F110084FEA955379
:10112000A0FB0C0531F817002A9F174431F8133043
:101130000AFB00904FEA97570AFB03934FEAD43417
:10114000A0FB0C0631F817004FEAD537A3FB0C358E
:101150000AFB00904FEAD6334FEAD5362BF8027CD3
:10116000A0FB0C052998289F104417444FEA905083
:101170004FEA9757ABF802304FEAD53331F81000F9
:10118000ABF80460269EABF8063031F81730279F85
:10119000164417440AFB00904FEA97570AFB039343
:1011A0004FEA9656A0FB0C0531F81700A3FB0C374D
:1011B00031F816304FEAD5360AFB0090ABF80860DC
:1011C0000AFB03932BF8044CA0FB0C064FEAD7371D
:1011D000A3FB0C03ABF80A704FEAD630ABF80C0057
:1011E0004FEAD330ABF80E00259802447FF42AAFC3
:1011F00098E000BF03EB4301329140F200014FF44D
:101200000054C3F20401A1F1040B5900319147F6D7
:10121000CC41C2F2004101EBC02E00BF4FF00109EA
:10122000339409EB9254319B900DDDF8D0C06FF3ED
:101230009F2447F6FF71C2F38F153EF810003EF869
:10124000144048F20107C8F20007241A6C439D18A5
:10125000AB0D09EB955804F500446FF39F283EF859
:10126000133000EB1440C5F38F153EF8184080B2E0
:10127000E41A0AFB001004FB05F802EB0C05AC0DA8
:1012800009EB955608F500416FF39F26A0FB070870
:1012900003EB11403EF81440C5F38F133EF81610CF
:1012A00080B2329E3244091B5943960D09EB92538A
:1012B00047F6FF796FF39F233EF81660C2F38F1253
:1012C00001F500413EF813300AFB009004EB114198
:1012D0009B1BA0FB070488B25A430AFB00904FEA0D
:1012E000D83302F50041E20BA0FB07042BF8082FCE
:1012F00006EB114105EB0C0288B22BF8043C0AFB0B
:101300000090E10B339C2BF8021CA0FB070302EBBF
:101310000C00043C00EB0C024FEAD331ABF8021096
:101320007FF47CAF40F2645540F26C0AC2F2004593
:101330004EF66879C2F2004A0026CEF20009249CDB
:101340002A6123980128FFF630AEBFF34F8F40F299
:101350000001C3F2040100BF2128C9F800101BD30B
:10136000A0F14102203112F1220FC9F8001013D868
:10137000A0F16102203112F1220FC9F800100BD840
:10138000A0F1810301F12002803813F1210F01F156
:101390004001C9F80020DFD3BFF34F8FBFF36F8F39
:1013A00001276878002800F017826E709AF8020012
:1013B00003281CBFE96800290ED140F200004FF459
:1013C0008041C3F2040000F58040FEF7E4FF22985C
:1013D000012880F2D281FEE1D5F814C0BCF1000FE3
:1013E000EBD02494022888BF00201FFA81FA2A69D2
:1013F0000228CDF8D0C040F00F810CEB0C003390E8
:1014000060443290604431906044309060442F904A
:1014100060442E9060442D9060442C9060442B904A
:1014200060442A906044299060442890604448F2C7
:10143000010B279060444FF4005E1D9B47F6FF7937
:10144000C8F2000B26906044259000BF940DDDF893
:10145000D4800CEB02063398B60D38F8144000EB3C
:10146000020C32994FEA9C5038F816600AFB04943B
:10147000BEF1100E38F810000AFB0696A4FB0B45CF
:1014800001EB02040AFB00903199A6FB0B674FEABF
:101490009456A0FB0B044FEAD5354FEAD73038F805
:1014A000167023F8205F01EB02050AFB07974FEA4D
:1014B000955530994FEAD43601EB020458804FEA33
:1014C0009450A7FB0B7438F815702F9938F810005A
:1014D00001EB02050AFB07979E804FEAD4360AFB10
:1014E0000090A7FB0B744FEA9557DE80A0FB0B061C
:1014F00038F817702E994FEAD43018814FEAD63059
:101500000AFB079701EB02062D9901EB0205A7FBE9
:101510000B744FEA95572C994FEA9656588138F834
:10152000177038F816004FEAD4369E8101EB020698
:101530000AFB07974FEA96562B990AFB009001EB9E
:1015400002052A99A7FB0B7C38F8167001EB0206FE
:10155000A0FB0B044FEA95500AFB07974FEA9656FB
:1015600038F81000A7FB0B7538F816604FEAD43432
:101570000AFB0090DC810AFB0696299CA0FB0B016C
:101580004FEAD530A6FB0B6504EB02064FEADC37C9
:101590001F824FEA9657289C04EB02064FEAD1318E
:1015A00038F8177099824FEA9651279C58824FEA73
:1015B000D530D8820AFB079038F8111004EB0207E7
:1015C000269C4FEA975704EB02060AFB01914FEA6B
:1015D0009656A0FB0B0538F81700A1FB0B1738F83F
:1015E00016104FEAD5360AFB00901E830AFB0191C4
:1015F000DDF8D0C0A0FB0B064FEAD737A1FB0B01EB
:101600005F834FEAD63098834FEAD130D88325984C
:1016100002447FF41BAF9EE00CEB4C0132914FEA89
:101620004C01319147F6CC414FF40059C2F20041D0
:101630001C9F01EBC02B00BF0121900D01EB9251CB
:1016400002EB0C056FF39F213BF81000C2F38F14DF
:1016500001263BF81110B9F10409A1EB000104FBCC
:1016600001F1C5F38F1401F5004100EB11439BB26A
:1016700006EB95514FEA9550319E6FF39F2106EB93
:10168000020C3BF810004FF001063BF8111006EB7E
:101690009C584FEA9C5E6FF39F28A1EB000104FB6E
:1016A00001F1329C224433913BF81EE03BF81810C4
:1016B00006EB925647F6FF78CCF38F1CA1EB0E0198
:1016C0004FEA925401FB0CF16FF39F260AFB038C47
:1016D0003BF81440339B3BF8166003F50043C2F31C
:1016E0008F1201F50041A6EB040600EB134006FB48
:1016F00002F20EEB114180B248F2010E89B2C8F23B
:10170000000EACFB0E3602F500420AFB0080DDF84D
:10171000D0C00AFB01814FEAD63327F8083FA0FB6F
:101720000E03A1FB0E0104EB124080B24FEAD3324C
:101730000AFB00807A8005EB0C024FEAD131A0FB56
:101740000E0302EB0C0000EB0C02B9804FEAD33120
:10175000F9807FF471AF40F2645540F26C0AC2F236
:1017600000454EF66879C2F2004A0026CEF2000922
:10177000249C2A61229801282DDB40F20000BFF34F
:101780004F8FC3F2040000F58041209800F1610200
:10179000C9F80010212A1AD300F12002203112F1D9
:1017A000220FC9F8001012D810F1220F01F1200108
:1017B000C9F800100BD8A0F1200301F120028038F5
:1017C00013F1210F01F14001C9F80020DED3BFF36E
:1017D0004F8FBFF36F8F012714F0AEFF001B00F196
:1017E000838240F2E000C2F200400068002800F06E
:1017F000D38040F22451C2F20041096800297DD013
:1018000040F22C52C2F200421268002A76D040F216
:101810003053C2F200431B68002B6FD03C46AF69C7
:101820008F4205D1E969914204BF296A994269D082
:101830004FF0FF3115F0A0F840F224502746C2F2D5
:101840000040006880B1A96981420DD044F28951FD
:1018500007220023C9F2010118F09AFF40F2245038
:10186000C2F200400068A86140F22C50C2F2004071
:101870000068C8B1E969814216D0012118F08DFFD6
:1018800040F22C540FF60451C2F20044206818F0C4
:1018900089FF2068062118F08AFF20680FF6F841BA
:1018A00018F08AFF2068E86140F23050C2F2004030
:1018B0000068C8B1296A814216D0012118F06DFF75
:1018C00040F230540FF6DC41C2F20044206818F0B8
:1018D00069FF2068052118F06AFF20680FF6D041E3
:1018E00018F06AFF2068286240F2E004C2F2004467
:1018F000206815F0A1F8206830B94DE0C5E906660A
:101900002E6201E0274600BF40F2D441C2F20041FE
:101910000968002940D040F2D841C2F2004109686C
:10192000D1B340F2DC41C2F200410968A1B34FF0EB
:10193000FF3115F021F840F2D4400121C2F20040FD
:10194000006818F03EFF08B1002415E040F2D840CE
:101950000121C2F200400124006818F032FF58B99A
:1019600040F2DC400121C2F20040006818F029FF7B
:101970000324002818BF022440F2E000C2F2004015
:10198000006815F059F89AF80000A04204D08AF8CF
:10199000004001208AF80100DAF804B0DAF8088083
:1019A000E878002800F09C8140F2E000EE70C2F27E
:1019B00000400068002800F0938140F22C51C2F2F0
:1019C00000410968002900F08B8140F23051C2F2D9
:1019D00000410968002900F083814FF0FF3114F0C5
:1019E000CBFF40F22C50C2F20040006818F0EEFE2F
:1019F00000284FD0017800294CD042788DF8E810AB
:101A00001E99002A47D083781B998DF8E920002B76
:101A100041D0C27818998DF8EA30E2B3037917996A
:101A20008DF8EB20BBB3427914998DF8EC3092B36A
:101A3000837913998DF8ED206BB3C27910998DF8E5
:101A4000EE3042B3037A0F998DF8EF201BB3427A40
:101A50000C998DF8F030F2B1837A0B998DF8F12062
:101A6000CBB1C27A08998DF8F230A2B1037B079905
:101A70008DF8F3207BB1427B04998DF8F43052B19C
:101A8000807B8DF8F520039900281CBF8DF8F600A7
:101A9000009900E03AA940F230500E70C2F20040C6
:101AA000006818F093FE002850D0017800294DD02E
:101AB00042788DF8D8101F99002A48D083781A9957
:101AC0008DF8D920002B42D0C27819998DF8DA30E0
:101AD000EAB3037916998DF8DB20C3B342791599DF
:101AE0008DF8DC309AB3837912998DF8DD2073B3C9
:101AF000C27911998DF8DE304AB3037A0E998DF8C8
:101B0000DF2023B3427A0D998DF8E030FAB1837A61
:101B10000A998DF8E120D3B1C27A09998DF8E230A3
:101B2000AAB1037B06998DF8E32083B1427B059926
:101B30008DF8E4305AB1807B8DF8E52002990028B9
:101B40001CBF8DF8E600019901E000BF36A940F204
:101B5000E0000E70C2F20040006814F06DFF9DF8C6
:101B6000E8203AB300201E99A2F13A0313F10A0FBC
:101B700020D300EB800002EB400048F2A062303836
:101B8000C0F20102904215D811F8012B002AEBD1C6
:101B9000BE464FF0000C0A2834BF4FF0010C8346BC
:101BA0009DF8D8706FB901271CEA070F774676D0E9
:101BB00096E000BFBE464FF0010C9DF8D870002F94
:101BC000F1D000201F9E002500230022002102E00A
:101BD00016F8017B27B3A7F13004092C0AD898B175
:101BE000022B2DD802EB82020133012507EB4202C2
:101BF000303AEDE72E2F4FF0010722D100284FF0A9
:101C00000100E5D01DE000BF01EB8100012507EBDD
:101C10004000A0F13001032912D80020D8E700BF0E
:101C20004FF00006C5B140F26455022BC2F20045E8
:101C300027D8022B1AD102EB8200420021E000BF1C
:101C4000012740F264550026C2F200451CEA070F46
:101C5000774624D044E000BF40F264550127C2F229
:101C600000451CEA070F774619D039E04FF47A7027
:101C7000012B02FB00F04FF0640308BF02FB03F0EE
:101C800002464FF47A70002701FB002840F6B83076
:101C9000804588BF01271CEA070F774620D148F20C
:101CA000A06040F6B831C0F20100834528BF8346EA
:101CB000BBF10A0F98BF4FF00A0BDAF80400884511
:101CC00028BF8846584503D1DAF80800404507D0B8
:101CD000CAF804B00120CAF808808AF8010000BFE1
:101CE00014F02AFD00F10A0412F06AFEA878012817
:101CF0001CD12878F0B12E709AF8020003281CBF7E
:101D0000E96800291ED140F200004FF48041C3F27F
:101D10000400FEF740FB2398012880F2D7810120C0
:101D20006978002940F0018200F00ABC002000F030
:101D300007BC00BF00206978002940F0F68100F060
:101D4000FFBB00BFD5F814C0BCF1000FDBD021975A
:101D500002281FFA81F9249488BF00202A69CDF84F
:101D6000D0C0022840F0F6800CEB0C0033906044A9
:101D70003290604431906044309060442F906044D1
:101D80002E9060442D9060442C9060442B906044D1
:101D90002A906044299060442890604427906044D1
:101DA00026906044259040F2000048F2010AC3F2F8
:101DB00004004FF40051A0F1100747F6FF78C8F275
:101DC000000A00BF940DDDF8D4B02D980CEB02068C
:101DD00085183BF81440AD0D339809FB0484B60D0B
:101DE0003BF81550A4FB0A4C3BF8164009FB05854F
:101DF000861809FB0484A5FB0A5EB50DA4FB0A4006
:101E00004FEADC364FEADE343BF815508E46329905
:101E100027F8204F8C1809FB0585A40D319927F868
:101E2000106C8B18A5FB0A659B0D3BF81460C00B6A
:101E300027F80E0C3BF8130009FB06863099EB0BD4
:101E40008D1809FB0080A6FB0A64AE0D27F80C3C38
:101E5000A0FB0A033BF816602F99E00B27F80A0C49
:101E6000D80B09FB06838E182E998D18A3FB0A3414
:101E7000AB0D2C99B60D27F8080C3BF813303BF846
:101E80001600E60B27F8066C8E1809FB0383B60DC7
:101E90002B9909FB00808D18A3FB0A3C3BF81630F8
:101EA0002A998E18A0FB0A04A80D09FB0383B60D1E
:101EB0003BF81000A3FB0A353BF816304FEADC363E
:101EC00009FB008027F8026C09FB0383289EA0FB16
:101ED0000A01E80BA3FB0A35299B134416449B0D0A
:101EE0007880C90BB9803BF81330B10DE80BF8804E
:101EF00009FB03803BF81110279B269E13441644D0
:101F00009B0D09FB0181B60DA0FB0A053BF81300F0
:101F1000A1FB0A133BF81610EE0B09FB00803E8173
:101F200009FB0181DDF8D0C0A0FB0A06E40BA1FB90
:101F30000A0127F8044CF00BB881C80BF8812598EA
:101F4000BEF1100102444FEAD3337B817FF43AAFF4
:101F5000A8E000BF0CEB4C01339140F200014FF4BC
:101F6000005AC3F20401A1F1040E4FEA4C01329170
:101F700047F6CC41C2F2004101EBC02B0127900D86
:101F800007EB9251329B6FF39F213BF81000C2F395
:101F90008F1447F6FF763BF8111048F20108C8F29B
:101FA0000008BAF1040AA1EB000104FB01F103EB04
:101FB00002044FEA945507EB945301F500416FF387
:101FC0009F2300EB11403BF81510C4F38F143BF82E
:101FD000133080B202EB0C05A3EB010309FB006098
:101FE00004FB03F307EB95564FEA9554A0FB08C09A
:101FF0006FF39F2603F500433BF8144047F6FF7844
:1020000001EB134C3BF81630C5F38F1633990A4495
:10201000A3EB040306FB03F34FEA925107EB92563E
:102020006FF39F263BF81110C2F38F1203F50043A4
:102030001FFA8CF73BF8166004EB134309FB078784
:10204000A6EB010648F201049BB206FB02F2C8F2BD
:10205000000409FB038302F50042A7FB0476DDF8C8
:10206000D0C04FEAD03001EB1241A3FB042389B268
:102070004FEAD63709FB01812EF8087F05EB0C02E9
:102080002EF8040C4FEAD330A1FB04132EF8020CF7
:1020900002EB0C0000EB0C024FEAD331AEF8021059
:1020A0007FF46CAF40F2645540F26C0AC2F2004516
:1020B0004EF66879C2F2004A0026CEF20009249C4E
:1020C000219F2A6123980128FFF629AEBFF34F8F85
:1020D00040F20001C3F204012128C9F800101BD30B
:1020E000A0F14102203112F1220FC9F8001013D8DB
:1020F000A0F16102203112F1220FC9F800100BD8B3
:10210000A0F1810301F12002803813F1210F01F1C8
:102110004001C9F80020DFD3BFF34F8FBFF36F8FAB
:1021200001206978002900F00B826E709AF8020095
:1021300003281CBFE96800290ED140F200004FF4CB
:102140008041C3F2040000F58040FEF724F9229894
:10215000012880F2C581F2E1D5F814C0BCF1000F6E
:10216000EBD0219702281FFA81F9249488BF002020
:102170002A69CDF8D0C0022840F004810CEB0C0095
:1021800033906044329060443190604430906044B9
:102190002F9060442E9060442D9060442C906044B9
:1021A0002B9060442A9060442990604428906044B9
:1021B00048F2010B279060444FF4005A1D9B47F6EC
:1021C000FF78C8F2000B269060442590940D359D51
:1021D0000CEB0206339835F81440B60D10443299D2
:1021E00009FB0484800D35F81660319FA4FB0B4C6D
:1021F00035F8100009FB06848E1809FB0080BAF13F
:10220000100AA4FB0B4E4FEA9654A0FB0B014FEAB9
:10221000DC3635F8144023F8206F4FEAD1369E8023
:1022200009FB048107EB02044FEA9454309F1744E2
:102230004FEADE3058804FEA9750A1FB0B7135F81A
:10224000147035F810004FEAD13609FB07872F9933
:1022500009FB00801144A7FB0B744FEA9157DE8005
:10226000A0FB0B062E9935F817704FEAD430188171
:102270004FEAD63009FB078701EB02062D994FEA9A
:1022800096561144A7FB0B744FEA9157588135F8C5
:1022900016002C9935F817704FEAD4369E8101EB61
:1022A000020609FB00804FEA965609FB07872B9927
:1022B0001144A0FB0B044FEA9150A7FB0B7C35F8AF
:1022C00016702A9901EB020635F8100009FB078702
:1022D0004FEA96564FEAD43E09FB0080A7FB0B74E9
:1022E00035F81670A0FB0B014FEADC3609FB0787B7
:1022F0004FEAD4301E82289EA7FB0B74299F1744F7
:1023000016444FEA975758824FEAD131998235F8EF
:1023100017704FEA96514FEAD430D88209FB0780F4
:1023200035F81110279F269E174416444FEA9757F9
:1023300009FB01814FEA9656A0FB0B0435F8170004
:10234000A1FB0B1735F816104FEAD43609FB0080B5
:102350001E8309FB0181DDF8D0C0A0FB0B06A3F8AA
:102360000EE0A1FB0B014FEAD7374FEAD630988336
:102370004FEAD130D88325985F8302447FF426AF9B
:102380009BE000BF0CEB4C0132914FEA4C013191C4
:1023900047F6CC414FF40058C2F200411C9F01EBBC
:1023A000C02A00BF0126900D06EB925102EB0C05EE
:1023B0006FF39F213AF81000C2F38F14B8F10408AC
:1023C0003AF81110A1EB000104FB01F1C5F38F14E1
:1023D00001F5004100EB11439BB24FEA955006EB2B
:1023E00095516FF39F213AF810B031983AF81110D7
:1023F00010444FEA905CA1EB0B0106EB905E6FF38B
:102400009F2E04FB01F13AF81C403391C0F38F1C5E
:10241000329802443AF81E104FEA925047F6FF7E77
:1024200006EB9256A1EB04016FF39F263AF81000D9
:10243000C2F38F1201FB0CF13AF8166009FB03ECB2
:10244000339B01F5004103F50043A6EB000606FBB4
:1024500002F204EB114189B20BEB13439BB248F239
:10246000010BC8F2000B02F50042ACFB0B64DDF877
:10247000D0C009FB03E300EB124009FB01E14FEA86
:10248000D43680B227F8086FA3FB0B36A1FB0B13E1
:1024900009FB00E04FEAD631798005EB0C014FEAE9
:1024A000D332A0FB0B0301EB0C00BA8000EB0C0253
:1024B0004FEAD331F9807FF475AF40F2645540F2B2
:1024C0006C0AC2F200454EF66879C2F2004A002654
:1024D000CEF20009249C219F2A61229801282EDB3C
:1024E00040F20000BFF34F8FC3F2040000F58041BB
:1024F000209800BF00F16102C9F80010212A1AD308
:1025000000F12002203112F1220FC9F8001012D878
:1025100010F1220F01F12001C9F800100BD8A0F131
:10252000200301F12002803813F1210F01F1400155
:10253000C9F80020DED3BFF34F8FBFF36F8F0120A8
:1025400038437EF419AD012014F0E6F8FEF714BD0F
:10255000012014F0E1F814F0EFF800197EF5DEAC7C
:10256000A8780128F4D1287830B100202E7012F01C
:102570001BF8687818B9EEE768780028E8D04FF4BF
:1025800000506E7012F010F8E5E700BF30313233C2
:10259000343536373839000031302D313030303075
:1025A00030000000303132333435363738392E00C0
:1025B000302D332E3000000010B5846B204600F023
:1025C0002BFC0120207110BD10B5846B204600F05B
:1025D0005FFB0120207110BD10B5846B206940F0B5
:1025E00004002061204600F03BFC0120207110BD5A
:1025F00010B5846B206940F004002061204600F093
:1026000053FB0120207110BD806B00F015BC000051
:10261000806B00F041BB000040F64410C2F2004065
:1026200001F026BA0000000040F20F42D0F800C0CE
:10263000C4F20202944511DC6F22C4F202029445F6
:1026400022DC3F22C4F20202944539DC1022C4F29B
:10265000020294455AD0282254E000BF40F26F4253
:10266000C4F2020294451BDC40F23F42C4F2020273
:1026700094452DDC40F21042C4F20202944545D04C
:1026800040F228423EE000BF9F22C4F2020294457D
:1026900028DC7022C4F20202944537D0882231E04F
:1026A00040F29F42C4F20202944523DC40F27042A1
:1026B000C4F20202944529D040F2884222E000BFD1
:1026C0004022C4F20202944520D058221AE000BFF2
:1026D00040F24042C4F20202944517D040F2584200
:1026E00010E000BFA022C4F2020294450ED0B8222E
:1026F00008E000BF40F2B842C4F20202944505D09F
:1027000040F2A042C4F20202944517D10CF0F80244
:102710004AF6AB23103ACAF6AA23A2FB03310AA356
:102720005F2AC1F302115B5C40F2FF312CEA010128
:10273000C36588BF04318165084670472CF0FF01EE
:1027400081650846704700BF000610160006101687
:1027500070B540F26F44D0F800C0C4F20204D0F863
:1027600058E0A4451ADC9F25C4F20205AC4533DCD1
:102770005725C4F20205AC455ADC1025C4F2020507
:10278000AC4500F098802825C4F20205AC4500F065
:1027900092804025C4F202058AE000BF45F22F4531
:1027A000C5F60205AC452DDC40F2B745C4F2020582
:1027B000AC454BDC40F27045C4F20205AC457AD022
:1027C00040F28845C4F20205AC4574D040F2A04501
:1027D000C4F202056CE000BF40F22745C4F20205D6
:1027E000AC4543DCA025C4F20205AC4563D0B82556
:1027F000C4F20205AC455ED040F21045C4F20205B9
:1028000056E000BF45F26B45C5F60205AC453FDC1E
:1028100045F23045C5F60205AC454CD045F244457D
:10282000C5F60205AC4546D045F258453EE000BF2E
:102830005825C4F20205AC453DD07025C4F202050E
:10284000AC4538D08825C4F2020531E040F2B845E5
:10285000C4F20205AC452ED045F20845C5F6020586
:10286000AC4528D045F21C4520E000BF40F2284589
:10287000C4F20205AC451ED040F24045C4F2020548
:10288000AC4518D040F25845C4F2020510E000BF34
:1028900045F26C45C5F60205AC450CD045F29445B1
:1028A000C5F60205AC4506D045F28045C5F60205E1
:1028B000AC4540F0D080456EC66E002E866E6E60D0
:1028C0001CBFD0E91C566E60A44515DC9F24C4F2E1
:1028D0000204A4452CDC5724C4F20204A44551DCB4
:1028E0001024C4F20204A4457AD02824C4F20204BD
:1028F000A44575D040246FE045F22F44C5F602048C
:10290000A44529DC40F2B744C4F20204A44545DCE6
:1029100040F27044C4F20204A44561D040F28844FD
:10292000C4F20204A4455BD040F2A04454E000BFCE
:1029300040F22744C4F20204A4453FDCA024C4F2C0
:102940000204A4454CD0B824C4F20204A44547D0E4
:1029500040F2104440E000BF45F26B44C5F602046B
:10296000A44555DC45F23044C5F60204A44561D0C7
:1029700045F24444C5F60204A4455BD045F25844F0
:1029800054E000BF5824C4F20204A44528D07024A7
:10299000C4F20204A44523D088241DE040F2B844C8
:1029A000C4F20204A4451BD045F20844C5F6020453
:1029B000A4453FD045F21C4438E000BF40F2284413
:1029C000C4F20204A4450BD040F24044C4F2020415
:1029D000A44505D040F25844C4F20204A4453AD1BB
:1029E0008468C06D00F01F003F2505FA00F0CEF8A6
:1029F0000800DCF80000402C20F48020CCF8000017
:102A0000CCF8043023D1CCF80820CCF80C1070BDE1
:102A100045F26C44C5F60204A4450BD045F280444F
:102A2000C5F60204A44505D045F29444C5F6020457
:102A3000A44510D1C46D012504F01F04806805FA77
:102A400004F4CEF804404028CCF80430DBD0CCF8B5
:102A50000810CCF80C2070BD70470000000000008A
:102A6000EFF3108072B600BFFEE700000000000028
:102A70000A68002A02681FD022F4F842D1E9073C14
:102A80001A434B6A42EA0C021A430260426847F654
:102A9000FF739A43D1E9013C1A43CB6842EA0C0226
:102AA000D1F810C01A434B6942EA0C0289691A43F3
:102AB000114341600020704747F6FF739A43D1E904
:102AC000013C1A43CB6842EA0C02D1F810C01A4309
:102AD0004B6942EA0C02D1F818C01A43CB6942EAAA
:102AE0000C02D1F820C01A43496A42EA0C02114391
:102AF00001600020704700000246406943F6FE7303
:102B000020EA0303002043EA4101516170470000BD
:102B100010B5024600696FF315006FF01F04D1E98C
:102B200000ECD1E9023140EA0E0004EB431340EA25
:102B30000C000343002043EA4121116110BD000055
:102B40002DE9F041002A826836D040F6FF734FF23B
:102B50000006CFF60F73CFF6FF761A40CB684F69A9
:102B60006FF00F0406EB03330026CFF6F0761A431E
:102B700006EB07573A438260C2688E68D1E9003796
:102B800002F07042013B04EB07176FF0FF040D6980
:102B900004EB062600241A43CFF6FF7489693A43F2
:102BA00004EB0545013932432A4342EA0161C16021
:102BB0000020BDE8F08100BF01F1080602F0704C72
:102BC000D1E900E278CE6FF00F074FF2000807EB73
:102BD00002126FF0FF0707EB0323AEF1010747EA8C
:102BE0000C07CFF6FF7840F2000E3A4308EB0434AE
:102BF000CFF6FF7E00271A4389690EEB0545CFF615
:102C0000F077224307EB065301392A431A4342EA7D
:102C1000016181600020BDE8F0810000000000003B
:102C200070B515460C4606460AF01EFB0AF01CFB62
:102C3000BA200FF0DDF8012807D1300A0FF0D8F8DC
:102C4000012802D1F0B20FF0D3F80AF00DFBBB203F
:102C50000FF0CEF8012815D164B1013D644200BFE8
:102C6000B4F1FF3018BF012009F0E6FB013405F88C
:102C7000010FF5D30BF048FD00240BF045FD204675
:102C800070BD00BF01240BF03FFD204670BD000069
:102C900070470000000000007047000000000000C6
:102CA00070470000000000007047000000000000B6
:102CB0002DE9F0410446407901284FF0020008BF99
:102CC000BDE8F08115460122627120710868042870
:102CD0001AD1884602F0E8F821680646486B1DB311
:102CE000B0F1FF3F05DD442639E000BF406B00280E
:102CF000F9D502F0D9F8801B02282068F6D3416B81
:102D0000B1F1FF3FF2DC21E022680869012849D1D6
:102D100005F010031F27906B9F404E69B84306FAD9
:102D200003F7384390633FE048F20007C2F2000720
:102D300001E000BF406B384210D002F0B5F8801BB4
:102D400002282068F6D3416B3942F3D0206940F065
:102D50000800206103202071BDE8F0814026012099
:102D600001F09AFF2268D8F8180005F0100340F22D
:102D7000FF3790519F40906CD8F81C60B84306FA1A
:102D800003F7D8F8206038439064FF20D76C984050
:102D9000414627EA000006FA03F31843D0640869A5
:102DA0000128B5D005F010030727D06BCE689F40EF
:102DB000012E20EA070C4FF0000003D0022E03D1B1
:102DC000012605E0002603E08E68B6FA86F676094D
:102DD0000D688F682E43374349689F4047EA0C07C8
:102DE000D7634FF4804716689F4026EA07071760AD
:102DF00040F6FE7716689F4026EA07079940394358
:102E00001160C0219940136823EA0101116001217A
:102E100021716071BDE8F08168B147F2004100683E
:102E2000C4F20001884218BF704740F2645001218B
:102E3000C2F200404170704768B147F2004100683B
:102E4000C4F20001884218BF704740F2645001216B
:102E5000C2F2004001707047FFF702BE00000000A0
:102E6000FFF7FEBD0000000010B501680A6892047B
:102E700044BF4A6B5FEA824218D40A68920046BF98
:102E80004A6B5FEA820210BD04220271026942F0BD
:102E9000020202614FF000524A630A6822F0805237
:102EA0000A60BDE81040FFF7FBBE00BF04220271BC
:102EB0000269044642F0010202614FF400524A6383
:102EC0000A6822F480520A60FFF7C6FF2046216894
:102ED000D3E700000000000090B1017941B910B5BE
:102EE00000214171044600F00FF82046BDE8104073
:102EF000022101710021016101220271084670471F
:102F0000012070470000000070B586B047F2004114
:102F100004460068C4F2000100268842CDE9046638
:102F200003960296019601D006B070BD44F2E040CF
:102F3000C5F60200816841F000518160816801F0AE
:102F4000005100910099016841F0010101600068A1
:102F500001A900F0010000900098102001900320CA
:102F6000CDE902060020C5F6020001F0A9FE40F6F8
:102F700044151020C2F20045C4F20200286043202C
:102F800068604020C5E902064FF4806028614FF474
:102F9000006068614FF40050A8614FF480706E6269
:102FA000C5E90706284601F06FF908B1FFF758FD9B
:102FB000362005210022A560AC6302F065FA3620B8
:102FC00002F04EFA06B070BDF0B581B0044640790B
:102FD00001284FF0020073D00F460121617106995C
:102FE0002071EFB1E06842F2C95642F21165C9F2B0
:102FF0000006C9F200050829C0E90F65266842F2FB
:10300000F155C9F20005C564356845F08055356055
:1030100028D0042922D049BB06F1140527E000BFBF
:10302000A06842F2B95642F20965C9F20006C9F237
:1030300000050829C0E90F65256842F2D956C9F292
:103040000006C6642E6846F480562E601AD0042905
:1030500014D0D9B905F1080C1AE000BF06F1180523
:1030600005E000BF06F11C0501E000BF0025316846
:1030700041F00051316011462A460FE005F10C0C79
:1030800006E000BF05F1100C02E000BF4FF0000C9D
:10309000296841F4005129601146624601F024FC80
:1030A0004FF00001617118B104F11001042204E035
:1030B00007F0100101228A4021680B681A430A6058
:1030C00001B0F0BD0000000070B50446006801F0DA
:1030D00010024FF4805303FA02FC036823EA0C0346
:1030E00003600C2301250029016808BF082305FAA5
:1030F00002F26FF0005621EA0201016008BF6FF48E
:103100000056E05800F0C4F82068016831400160C2
:103110000020257170BD000090F86020012A4FF05A
:10312000020257D02DE9F041C1EBC10380F86120C4
:1031300000EB830303F1280ED3E90B42D3E90DC55D
:10314000DE6B1204A4F109084FEA0C67B8F1020F14
:1031500042EA055538BF0CF07F4745EA46564FF620
:10316000F07246EA0705C0F2CC02002945EA0401E4
:1031700018D00B2C05D1DEF81830A2F5402241EA18
:1031800083410468B8F1010FE36902EA030241EAEE
:103190000201E161DEF80010216113D82CF07F41BB
:1031A00021620FE00468B8F1010F636A02EA0302CA
:1031B00041EA02016162DEF80010A16102D82CF040
:1031C0007F41A1620022012180F8611080F8602017
:1031D000BDE8F0411046704700283FD010B590F888
:1031E000611031B9002180F86010044600F038F811
:1031F0002046022180F8611090E806404FF6BF7328
:10320000D0F80CC00C68CFF6F8732340C4691A4399
:1032100040F2071322430A604A6B9A43836942EAE9
:103220000E021A434A630A6C4FF6FF739A4342EA4E
:103230000C020A644A6B036922F44012446942EAB0
:10324000035242EA44524A6300214166012280F857
:103250006120BDE810400846704700BF012070475C
:1032600041F200010068C5F20021884218BF704792
:1032700081B044F2D440C5F60200016841F010016B
:103280000160006800F010000090009801B07047E5
:103290002DE9F041044601F007FE1CB3054694F801
:1032A0003500022822D140F20F472668C4F20207F7
:1032B00040F26F48BE426FF00E00C4F202081DDCFF
:1032C0006F21C4F202018E422ADC3F21C4F20201C6
:1032D0008E4241DC1021C4F202018E4263D02821CB
:1032E0005CE000BF0120BDE8F08100BF8020606588
:1032F0000120002184F83410BDE8F08146451BDC34
:1033000040F23F41C4F202018E422DDC40F21041F6
:10331000C4F202018E4246D040F228413EE000BF96
:103320009F21C4F202018E4228DC7021C4F2020106
:103330008E4238D0882131E040F29F41C4F2020130
:103340008E4223DC40F27041C4F202018E422AD048
:1033500040F2884122E000BF4021C4F202018E42C7
:1033600021D058211AE000BF40F24041C4F20201CE
:103370008E4218D040F2584110E000BFA021C4F2A4
:1033800002018E420FD0B82108E000BF40F2B841E0
:10339000C4F202018E4206D040F2A041C4F2020102
:1033A0008E42314607D13146306820F01E0041F888
:1033B000140B6FF080000A68464500EA02000860BE
:1033C0001ADC9F20C4F20200864233DC5720C4F28C
:1033D000020086425ADC1020C4F20200864200F04D
:1033E00097802820C4F20200864200F0918040209D
:1033F000C4F202008AE000BF45F22F40C5F6020089
:1034000086422DDC40F2B740C4F2020086424BDC1B
:1034100040F27040C4F20200864279D040F2884007
:10342000C4F20200864273D040F2A040C4F202000F
:103430006CE000BF40F22740C4F20200864243DC49
:10344000A020C4F20200864262D0B820C4F202007A
:1034500086425DD040F21040C4F2020056E000BF48
:1034600045F26B40C5F6020086423FDC45F2304033
:10347000C5F6020086424BD045F24440C5F6020034
:10348000864245D045F258403EE000BF5820C4F285
:10349000020086423CD07020C4F20200864237D03F
:1034A0008820C4F2020031E040F2B840C4F20200C9
:1034B00086422DD045F20840C5F60200864227D04C
:1034C00045F21C4020E000BF40F22840C4F2020058
:1034D00086421DD040F24040C4F20200864217D01E
:1034E00040F25840C4F2020010E000BF45F26C40C8
:1034F000C5F6020086420BD045F29440C5F60200A4
:10350000864205D045F28040C5F60200864204D1CD
:10351000206E016821F480710160306820F00100A4
:10352000306000BF3068C00710D001F0BDFC401B08
:103530000628F7D320206065032084F83500012099
:10354000002184F83410BDE8F08100BF2068082114
:10355000B8424FF03F0211DC6F23C4F202039842DD
:103560001EDC3F23C4F20203984235DC1023C4F270
:103570000203984257D0282350E000BF40451BDC8F
:1035800040F23F43C4F2020398422DDC40F2104364
:10359000C4F20203984246D040F228433EE000BF06
:1035A0009F23C4F20203984228DC7023C4F2020372
:1035B000984238D0882331E040F29F43C4F202039E
:1035C000984223DC40F27043C4F2020398422AD0AE
:1035D00040F2884322E000BF4023C4F20203984235
:1035E00021D058231AE000BF40F24043C4F2020346
:1035F000984218D040F2584310E000BFA023C4F214
:10360000020398420FD0B82308E000BF40F2A04365
:10361000C4F20203984206D040F2B843C4F2020357
:10362000984240F0C580D4E9163707F01F0740459F
:1036300002FA07F25A5019DC9F21C4F202018842B3
:1036400032DC5721C4F20201884259DC1021C4F255
:103650000201884200F096802821C4F202018842CB
:1036600000F090804021C4F2020189E045F22F4130
:10367000C5F6020188422DDC40F2B741C4F20201D6
:1036800088424BDC40F27041C4F20201884279D09A
:1036900040F28841C4F20201884273D040F2A04156
:1036A000C4F202016CE000BF40F22741C4F2020103
:1036B000884243DCA021C4F20201884262D0B821D2
:1036C000C4F2020188425DD040F21041C4F202010E
:1036D00056E000BF45F26B41C5F6020188423FDC6F
:1036E00045F23041C5F6020188424BD045F24441D3
:1036F000C5F60201884245D045F258413EE000BF80
:103700005821C4F2020188423CD07021C4F2020167
:10371000884237D08821C4F2020131E040F2B8413A
:10372000C4F2020188422DD045F20841C5F60201DB
:10373000884227D045F21C4120E000BF40F22841DA
:10374000C4F2020188421DD040F24041C4F202019D
:10375000884217D040F25841C4F2020110E000BF85
:1037600045F26C41C5F6020188420BD045F2944106
:10377000C5F60201884205D045F28041C5F6020136
:1037800088420BD1616EA26EE06E4A6030B1016872
:1037900021F480710160D4E91C014160012084F8AA
:1037A00035000020002184F83410BDE8F08100BF0E
:1037B0000421012237E70000F0B190F8351002290A
:1037C00018D180B540F20F420168C4F20202914262
:1037D00014DC6F23C4F20203994225DC3F23C4F2B8
:1037E000020399423CDC1023C4F2020399425DD0EB
:1037F000282357E0802141650120704740F26F4344
:10380000C4F2020399421BDC40F23F43C4F20203BC
:1038100099422DDC40F21043C4F20203994245D094
:1038200040F228433EE000BF9F23C4F202039942C6
:1038300028DC7023C4F20203994237D0882331E098
:1038400040F29F43C4F20203994223DC40F27043EA
:10385000C4F20203994229D040F2884322E000BF1B
:103860004023C4F20203994220D058231AE000BF3B
:1038700040F24043C4F20203994217D040F2584349
:1038800010E000BFA023C4F2020399420ED0B82377
:1038900008E000BF40F2B843C4F20203994205D0E9
:1038A00040F2A043C4F20203994275D191424FF015
:1038B000040280F8352011DC6F20C4F2020081423E
:1038C00022DC3F20C4F20200814239DC1020C4F225
:1038D0000200814259D0282054E000BF40F26F40DE
:1038E000C4F2020081421BDC40F23F40C4F20200FD
:1038F00081422DDC40F21040C4F20200814244D0EB
:1039000040F228403EE000BF9F20C4F20200814206
:1039100028DC7020C4F20200814236D0882031E0D9
:1039200040F29F40C4F20200814223DC40F270402A
:10393000C4F20200814228D040F2884022E000BF59
:103940004020C4F2020081421FD058201AE000BF7C
:1039500040F24040C4F20200814216D040F258408A
:1039600010E000BFA020C4F2020081420DD0B820B8
:1039700008E000BF40F2B840C4F20200814204D027
:1039800040F2A040C4F202008142086820F0010029
:103990000860002080BD00BF0A6822F00E020A60A5
:1039A00045F25742C5F6020291420A6822F001022E
:1039B0000A600FDC45F22F42C5F60202914219DC83
:1039C00045F20842C5F60202914229D045F21C4256
:1039D00022E000BF45F27F42C5F60202914213DCAD
:1039E00045F25842C5F60202914219D045F26C42A6
:1039F00012E000BF45F23042C5F6020291420FD0FC
:103A000045F2444208E000BF45F29442C5F6020286
:103A1000914205D045F28042C5F6020291421AD188
:103A2000D0E9181CD0E916E30A6822F480720A6013
:103A300003F01F01012202FA01F1CEF80410816E99
:103A4000CCF80410C16E31B10A6822F480720A60A9
:103A5000D0E91C124A60012180F83510016D002266
:103A6000002980F8342094D08847002080BD0000D1
:103A70002DE9F04782B00021019140F2100148F297
:103A8000B513C2F20041C1F64E33856D40F26F4965
:103A90000A680168C4F202092E68A2FB032849459E
:103AA0002A6815DC9F22C4F2020291422CDC5722C4
:103AB000C4F20202914251DC1022C4F2020291428D
:103AC0007BD02822C4F20202914276D040226FE0DD
:103AD00045F22F43C5F60203994229DC40F2B74371
:103AE000C4F20203994245DC40F27042C4F2020281
:103AF000914262D040F28842C4F2020291425CD00C
:103B000040F2A04254E000BF40F22742C4F2020259
:103B100091423FDCA022C4F2020291424DD0B82271
:103B2000C4F20202914248D040F2104240E000BF8D
:103B300045F26B43C5F60203994275DC45F230430A
:103B4000C5F60203994200F0828045F24443C5F66F
:103B5000020399427BD045F2584373E05822C4F2E5
:103B60000202914229D07022C4F20202914224D072
:103B700088221DE040F2B843C4F2020399421CD0EF
:103B800045F20843C5F60203994260D045F21C4352
:103B900058E000BF40F22842C4F2020291420CD029
:103BA00040F24042C4F20202914206D040F2584232
:103BB000C4F20202914240F05383C26D082302F026
:103BC0001F0240F20F4A9340C4F2020A334200F04F
:103BD000DE8051454FF0040412DC6F27C4F2020767
:103BE000B9426DDC3F27C4F20207B94200F39C8062
:103BF0001027C4F20207B94200F0BD802827B5E0C3
:103C0000494569DC40F23F47C4F20207B94200F37C
:103C1000938040F21047C4F20207B94200F0AB8033
:103C200040F22847A2E000BF45F26C43C5F602030C
:103C300099420CD045F28043C5F60203994206D062
:103C400045F29443C5F60203994240F009830B689C
:103C5000C76D07F01F070426BE40164218BF13F0B9
:103C6000040423D10226BE40164218BF13F00204FA
:103C700042D1FA40120740F1F38213F0080200F03B
:103C8000EF820A6822F00E020A60012101FA07F2AF
:103C90006A60416580F83510C16C00294FF0000260
:103CA00080F8342040F0D882DAE200BF1A046E6057
:103CB00034D49A0636D40A6822F004020A6031E04D
:103CC0009F27C4F20207B94240DC7027C4F2020702
:103CD000B94250D0882749E040F29F47C4F202071A
:103CE000B9423BDC40F27047C4F20207B94242D00D
:103CF00040F288473AE000BF1A046E6000F1B482D7
:103D00009A0600F1B5820A6822F00A020A600121CF
:103D100080F83510002180F83410A9E2D90301D4CD
:103D2000816C98E2016C96E24027C4F20207B94226
:103D300021D058271AE000BF40F24047C4F20207E2
:103D4000B94218D040F2584710E000BFA027C4F293
:103D50000207B9420FD0B82708E000BF40F2A047E1
:103D6000C4F20207B94206D040F2B847C4F20207D3
:103D7000B94218BF08240F68274208D00F6827F0FF
:103D800004070F60AB60436D43F0010343650123FB
:103D9000934033426FD0514510DC6F27C4F20207C5
:103DA000B9421DDC3F27C4F20207B94234DC1027B8
:103DB000C4F20207B94256D028274FE049451BDC20
:103DC00040F23F47C4F20207B9422DDC40F21047EF
:103DD000C4F20207B94246D040F228473EE000BF95
:103DE0009F27C4F20207B94228DC7027C4F20207F9
:103DF000B94238D0882731E040F29F47C4F2020729
:103E0000B94223DC40F27047C4F20207B9422AD01B
:103E100040F2884722E000BF4027C4F20207B942BF
:103E200021D058271AE000BF40F24047C4F20207F1
:103E3000B94218D040F2584710E000BFA027C4F2A2
:103E40000207B9420FD0B82708E000BF40F2A047F0
:103E5000C4F20207B94206D040F2B847C4F20207E2
:103E6000B94240F007824F693F0604D5AB60436D0D
:103E700043F0020343650423934033426FD051451E
:103E800010DC6F27C4F20207B9421DDC3F27C4F2E1
:103E90000207B94234DC1027C4F20207B94256D0F7
:103EA00028274FE049451BDC40F23F47C4F2020798
:103EB000B9422DDC40F21047C4F20207B94246D0A5
:103EC00040F228473EE000BF9F27C4F20207B942F4
:103ED00028DC7027C4F20207B94238D0882731E0C5
:103EE00040F29F47C4F20207B94223DC40F2704718
:103EF000C4F20207B9422AD040F2884722E000BF4C
:103F00004027C4F20207B94221D058271AE000BF67
:103F100040F24047C4F20207B94218D040F2584775
:103F200010E000BFA027C4F20207B9420FD0B827A3
:103F300008E000BF40F2A047C4F20207B94206D031
:103F400040F2B847C4F20207B94240F09B810F68C3
:103F5000BF0704D5AB60436D43F0040343651023F2
:103F600003FA02F2324200F0828051454FF008031A
:103F700010DC6F27C4F20207B9421DDC3F27C4F2F0
:103F80000207B94234DC1027C4F20207B94256D006
:103F900028274FE049451BDC40F23F47C4F20207A7
:103FA000B9422DDC40F21047C4F20207B94246D0B4
:103FB00040F228473EE000BF9F27C4F20207B94203
:103FC00028DC7027C4F20207B94238D0882731E0D4
:103FD00040F29F47C4F20207B94223DC40F2704727
:103FE000C4F20207B9422AD040F2884722E000BF5B
:103FF0004027C4F20207B94221D058271AE000BF77
:1040000040F24047C4F20207B94218D040F2584784
:1040100010E000BFA027C4F20207B9420FD0B827B2
:1040200008E000BF40F2A047C4F20207B94206D040
:1040300040F2B847C4F20207B94218BF04230F6820
:104040001F4214D0AA600A6852030A6808D4D20535
:1040500008D40A6822F008020A60016C21B906E05F
:10406000110351D4016C11B1044688472046C16D3B
:1040700001F01F02202101FA02F3334200F0AF8069
:1040800001681027514511DC6F26C4F20206B142C7
:104090001EDC3F26C4F20206B14239DC1026C4F20F
:1040A0000206B1425BD0282654E000BF49451BDC24
:1040B00040F23F46C4F20206B14231DC40F2104603
:1040C000C4F20206B1424AD040F2284642E000BFA4
:1040D0009F26C4F20206B1422CDC7026C4F202060E
:1040E000B1423CD0882635E040F29F46C4F2020639
:1040F000B14227DC40F27046C4F20206B1422ED033
:1041000040F2884626E000BF816C0029ACD1AEE7C2
:104110004026C4F20206B14221D058261AE000BF60
:1041200040F24046C4F20206B14218D040F258466E
:1041300010E000BFA026C4F20206B1420FD0B8269C
:1041400008E000BF40F2A046C4F20206B14206D029
:1041500040F2B846C4F20206B14218BF02270E6808
:104160003E423CD0AB6090F83530042B0B681DD13B
:1041700023F016030B604B6923F080034B61036C43
:104180000BB9836C1BB10B6823F008030B603F2154
:104190009140A960012180F83510016D00294FF090
:1041A000000280F8342057D15AE000BF5A030A6851
:1041B0000CD4D2050ED40A6822F010020A60012144
:1041C00080F83510002180F8341003E0110301D489
:1041D000416C00E0C16B11B1044688472046416D37
:1041E00000293DD0416DC90734D0042180F8351035
:1041F00001684FEA98220B6823F001030B60019BD2
:104200000133019393421AD80B68DB0717D0019B47
:1042100001330193934212D80B68DB070FD0019B47
:104220000133019393420AD80B68DB0707D0019B47
:1042300001330193934202D80B68DB07DFD1096891
:10424000C9074FF0030108BF012180F83510002194
:1042500080F83410C16C19B102B0BDE8F0470847CE
:1042600002B0BDE8F08700BFD90301D4416CF2E78A
:10427000C16BF0E70B680423934033427FF4FFAD3A
:104280006DE600BF0B686AE62DE9F041044600F0D8
:104290000BFEFCB140F26F4805462068C4F20208EC
:1042A00040451BDC9F21C4F20201884232DC5721C9
:1042B000C4F20201884259DC1021C4F20201884292
:1042C00000F083802821C4F20201884200F07D8042
:1042D000402175E00120BDE8F08100BF45F22F418B
:1042E000C5F60201884229DC40F2B741C4F202015E
:1042F000884247DC40F27041C4F20201884264D037
:1043000040F28841C4F2020188425ED040F2A041EE
:1043100056E000BF40F22741C4F20201884241DC6E
:10432000A021C4F2020188424FD0B821C4F2020198
:1043300088424AD040F2104142E000BF45F26B4152
:10434000C5F60201884200F3B38045F23041C5F65C
:104350000201884200F0BF8045F24441C5F60201E7
:10436000884200F0B88045F25841AFE05821C4F2CD
:104370000201884229D07021C4F20201884224D06F
:1043800088211DE040F2B841C4F2020188421CD0ED
:1043900045F20841C5F60201884200F09C8045F2D2
:1043A0001C4193E040F22841C4F2020188420CD043
:1043B00040F24041C4F20201884206D040F2584126
:1043C000C4F20201884240F01B81022184F83510BA
:1043D000002184F83410016821F00101016000BF60
:1043E00020680168C9070DD000F05EFD401B06285B
:1043F000F6D320206065032084F835000120BDE855
:10440000F08100BF48F23F0204F108060168CFF6D0
:104410001062114065694CCE1143A2691943E369EA
:104420003143266A0D43616A2B43042943EA06039C
:1044300043EA020303D1D4E90B652E43334341F22F
:104440000006C5F600463668B6F1005F0FD3656812
:10445000A5F129061F2E00F235820127B7403F261D
:10446000CCF2C036374200F02D8243F48013036053
:104470000429436923F0070341EA030140F0DC808B
:10448000D4E90A53002B41EA050100F0D580B2F5CA
:10449000005F00F0B780002A40F0C080022D00F0DD
:1044A000C080012D00F0B480002D00F0BA80C3E080
:1044B00045F26C41C5F6020188420CD045F28041BC
:1044C000C5F60201884206D045F29441C5F60201C4
:1044D000884240F0958004F1080E022184F83510DE
:1044E000002184F834100168A3699EE80450A2F109
:1044F0008005E769B5FA85F566696D09402A4FEAD6
:10450000853543EA07026FF3101142EA060208BF3D
:10451000102541EADC0142EA0E02236A294341EAFE
:10452000D20141EA131140F80819C0B2CD21484325
:104530003C2101EA9020E0652046FEF775F8E16D28
:10454000012201F01F0102FA01F14160206840459B
:1045500000F381809F21C4F20201884214DC5721BC
:10456000C4F20201884227DC1021C4F20201884211
:1045700000F0C7802821C4F20201884200F0C18007
:104580004021C4F20201B9E040F22741C4F2020125
:10459000884221DCA021C4F20201884200F0B180EF
:1045A000B821C4F20201884200F0AB8040F2104111
:1045B000C4F20201A2E000BF5821C4F20201884205
:1045C00000F09F807021C4F20201884200F09980BF
:1045D0008821C4F2020191E040F22841C4F20201B4
:1045E000884200F08E8040F24041C4F202018842CD
:1045F00000F0878040F25841C4F202017EE000BF23
:104600004020F7E6032D17D8DFE805F00E0B0E0269
:10461000A3F1C072B2FA82F2520904E0032D03D36F
:104620000AD1C3F300623AB140206065012084F8EA
:104630003500BDE8F08100BF41612046FDF7F4FF81
:10464000E16D3F2201F01F0102FA01F18160206853
:1046500040457FF77FAF45F22F41C5F60201884202
:1046600016DC40F2B741C4F20201884226DC40F277
:104670007041C4F20201884243D040F28841C4F242
:10468000020188423DD040F2A041C4F2020135E06F
:1046900045F26B41C5F6020188421FDC45F230410C
:1046A000C5F6020188422CD045F24441C5F602010C
:1046B000884226D045F258411EE000BF40F2B84182
:1046C000C4F2020188421CD045F20841C5F602013D
:1046D000884216D045F21C410EE000BF45F26C4105
:1046E000C5F6020188420CD045F29441C5F602019C
:1046F000884206D045F28041C5F60201884240F06A
:10470000D98045F2574C45F6FC0EC5F6020CC5F6AD
:10471000020E60450EDC45F22F41C5F602018842CB
:1047200018DC45F20841C5F60201884228D045F25E
:104730001C4121E045F27F41C5F60201884213DCAD
:1047400045F25841C5F60201884219D045F26C4144
:1047500012E000BF45F23041C5F6020188420FD099
:1047600045F2444108E000BF45F29441C5F602011C
:10477000884205D045F28041C5F60201884247D102
:1047800000F0FC014CF6CD420839CCF6CC42A1FB3E
:104790000212AEF1FC05AEF17C061309A26803F02B
:1047A0001F01802A4FF0010205EB8305256602FAFE
:1047B00001F26666A26605D1002060602860726022
:1047C0001EE000BF6368D9B25F1E072F29607260C8
:1047D00016D84E1E082E19D260450EF1440237DC61
:1047E00045F22F41C5F60201884241DC45F20841FD
:1047F000C5F60201884251D045F21C414AE000BF93
:1048000000206067C4E91B0054E000BFE06E4CE08C
:1048100000F0F8014AF6AB221039CAF6AA22A1FB31
:10482000021240F20F43C4F2020308251109984214
:1048300003F1AA060B4688BF05EB121340F60005EC
:10484000B042C4F2020505F1800628BF0B46A5E779
:1048500045F27F41C5F60201884213DC45F258411A
:10486000C5F60201884219D045F26C4112E000BF42
:1048700045F23041C5F6020188420FD045F244416D
:1048800008E000BF45F28041C5F60201884205D02C
:1048900045F29441C5F6020188421BD10EEB83001C
:1048A0000121E066B1402267616700210160D4E91F
:1048B0001C01416000206065012184F83510BDE8CD
:1048C000F08100BFA5F14F07042F38BF43F48013D8
:1048D000CDE500BF40F60000C4F2020000F1FC0E7E
:1048E00000F5A072DAE7000030B110B590F834405E
:1048F000012C03D1022010BD01207047012480F853
:10490000344090F83540012C2CD1022480F83540F9
:1049100000244465D0F800C0DCF8004024F0010415
:10492000CCF800400446FDF713FF40F20F4C20681E
:10493000C4F2020C40F26F416045C4F2020119DC7E
:104940006F23C4F20203984226DC3F23C4F2020321
:1049500098423DDC1023C4F2020398425FD0282322
:1049600058E000BF4FF400614165002180F8341029
:10497000012010BD88421BDC40F23F43C4F2020319
:1049800098422DDC40F21043C4F20203984246D014
:1049900040F228433EE000BF9F23C4F20203984246
:1049A00028DC7023C4F20203984238D0882331E017
:1049B00040F29F43C4F20203984223DC40F270436A
:1049C000C4F2020398422AD040F2884322E000BF9A
:1049D0004023C4F20203984221D058231AE000BFBA
:1049E00040F24043C4F20203984218D040F25843C8
:1049F00010E000BFA023C4F2020398420FD0B823F6
:104A000008E000BF40F2B843C4F20203984206D067
:104A100040F2A043C4F20203984240F02F810368A1
:104A20000B2262F344030360226C1AB1082302686C
:104A30001A430260884219DC9F22C4F202029042AB
:104A400032DC5722C4F20202904259DC1022C4F236
:104A50000202904200F096802822C4F202029042A4
:104A600000F090804022C4F2020289E045F22F4219
:104A7000C5F6020290422DDC40F2B742C4F20202B7
:104A800090424BDC40F27042C4F20202904279D074
:104A900040F28842C4F20202904273D040F2A04237
:104AA000C4F202026CE000BF40F22742C4F20202EC
:104AB000904243DCA022C4F20202904262D0B822AB
:104AC000C4F2020290425DD040F21042C4F20202EF
:104AD00056E000BF45F26B42C5F6020290423FDC51
:104AE00045F23042C5F6020290424BD045F24442B4
:104AF000C5F60202904245D045F258423EE000BF62
:104B00005822C4F2020290423CD07022C4F2020247
:104B1000904237D08822C4F2020231E040F2B8421B
:104B2000C4F2020290422DD045F20842C5F60202BC
:104B3000904227D045F21C4220E000BF40F22842BC
:104B4000C4F2020290421DD040F24042C4F202027E
:104B5000904217D040F25842C4F2020210E000BF67
:104B600045F26C42C5F6020290420BD045F29442E7
:104B7000C5F60202904205D045F28042C5F6020217
:104B8000904274D1236E1A68D20303D51A6842F496
:104B900080721A60E36E1BB11A6842F480721A6068
:104BA000604511DC6F21C4F2020188421EDC3F2106
:104BB000C4F20201884235DC1021C4F202018842AD
:104BC00055D0282150E000BF88421BDC40F23F4115
:104BD000C4F2020188422DDC40F21041C4F202010D
:104BE000884244D040F228413EE000BF9F21C4F2F9
:104BF0000201884228DC7021C4F20201884236D0CA
:104C0000882131E040F29F41C4F20201884223DC56
:104C100040F27041C4F20201884228D040F288413B
:104C200022E000BF4021C4F2020188421FD0582177
:104C30001AE000BF40F24041C4F20201884216D09F
:104C400040F2584110E000BFA021C4F202018842A6
:104C50000DD0B82108E000BF40F2B841C4F2020113
:104C6000884204D040F2A041C4F2020188420168A7
:104C700041F001010160002010BD00BF0268052362
:104C800063F343020260226C002A3FF4D3AE042394
:104C9000CDE6000000000000B0B5044600F004F9C5
:104CA00040F208010546C2F20041621C097818BFB3
:104CB0000C4400BF00F0F8F8401BA042FAD3B0BD8E
:104CC0002DE9F04F83B00F68002F00F0C98000F18C
:104CD000264642F2004506F1FF76C5F602050A2295
:104CE000A8424FEAB62540F2040C08BF092200F1A1
:104CF00020030093092DC5F6000C38BF4FEAB622F9
:104D0000002400264FF0000801920AE008F1010893
:104D10000F6837FA08F206F1020604F1040400F005
:104D20009F80012202FA08FE17EA0E09EED0D1F8A0
:104D300004B003220BF00307B2407D1E6FEA020AA3
:104D4000012D11D88268CD6802EA0A02B5402A43D3
:104D50008260CBF30015426822EA0E0205FA08F5DC
:104D60002A43426004E000BF032F01D103271FE064
:104D7000C2688D6802EA0A02B540022F42EA0502C3
:104D8000C26015D16FF0030204F01C0502EA580B53
:104D9000009A0F2352F80BE0AB400F692EEA030391
:104DA000AF403B4342F80B30D1F804B00BF003079F
:104DB000026807FA06F302EA0A021BF4403F42EADD
:104DC00003020260A2D044F2F44340F2084EC5F65A
:104DD0000203C5F6000E0F251A6842F002021A609F
:104DE0001A6802F00202029228F00302029B04F009
:104DF0000C0352F80E709D40AF43019D05FA03F37A
:104E00003B4342F80E304FF0B04EDEF800204B68C6
:104E100042EA0907DD0258BF22EA09079D02CEF8DF
:104E20000070DCF8002042EA090758BF22EA0907AF
:104E30009D03CCF80070DCF8802042EA090758BFD7
:104E400022EA0907DB03CCF88070DCF87C2042EA18
:104E5000090758BF22EA0907CCF87C7056E700BF63
:104E600003B0BDE8F08F00000069084018BF0120C2
:104E70007047000000000000426902EA010391430C
:104E800041EA034181617047002A08BF090481613A
:104E9000704700000000000041F20000C5F600402D
:104EA0000068000C7047000047F21060C2F200403A
:104EB000006870470000000040F2080047F21061EF
:104EC000C2F20040C2F2004100780A681044086053
:104ED000704700000000000080B5032000F004FBD4
:104EE00001F0DEFB44F218414CF68413C5F60201D2
:104EF000C9F201030A68C2F303229A5C096801F04F
:104F00000F0102F01F02595CD04040F21402C2F2BD
:104F1000004201F01F0120FA01F1116040F210017E
:104F2000C2F2004108600F2000F00AF800281CBF00
:104F3000012080BD00F07CFA002080BD0000000050
:104F40000F2843D8B0B58AB0044676200022214607
:104F5000002500F099FA762000F082FA40F20C0069
:104F6000C2F20040046044F2F040C5F6020001685D
:104F700041F480210160006801A900F480200290C2
:104F8000029802A801F0D8FA01F05AFB4DF68361AD
:104F90004000C4F21B3144F60002A0FB010140F6C0
:104FA0006420C2F200404FF0FF33C4F201020260FD
:104FB00003EB9141C0E9011540F2E731C0E9031567
:104FC00002F02AF820B101200AB0B0BD01207047DC
:104FD00040F66420C2F2004002F0CAF80AB0B0BD48
:104FE00090F8A030012B4FF0020331D02DE9F041B1
:104FF00034244FF0010880F8A08080F8A13002FB33
:105000000403D1E900CED1E90267D1E90445C3E93F
:105010001245C3E91067C3E90ECED1E906CED1E946
:105020000854D1E90A76C3E91876C3E91654C3E9EE
:1050300014CE0F6B9F66044603F05AF820680023D5
:10504000C0F8248084F8A18084F8A030BDE8F04145
:105050001846704700000000704700000000000084
:1050600070B504460068866B456B710716D515F060
:10507000040113D0416B21F0040141630421C16399
:10508000D4F8A40040F00100C4F8A40084F8A110F2
:10509000002084F8A0002046FFF7DEFFB00718D5F7
:1050A00015F0020015D02068416B21F00201416328
:1050B0000221C163D4F8A40040F00200C4F8A400A7
:1050C000042084F8A100002084F8A0002046FFF707
:1050D000C3FFF00718BF15F0010017D1300726D520
:1050E00015F0080008BF70BD2068416B21F0080171
:1050F00041630821C163012084F8A100002084F8E5
:10510000A0002046BDE8704000F03EB92068416B29
:1051100021F0010141630121C16384F8A110002045
:1051200084F8A000204600F077F83007D8D470BD8E
:1051300000286DD010B590F8A11031B9002180F889
:10514000A010044600F070F82046022180F8A1105B
:10515000D0E9001CD0E902348A6922F070428A61E9
:1051600043EA0C02036922431A438B691A438A619A
:105170004FF600038A68CFF200031A408A60D0E934
:10518000052444EA02428C6822438A60CA681A40B5
:10519000CA60D0E9072444EA0242CC682243CA60CC
:1051A0000A691A400A61D0E9092444EA02420C69FA
:1051B00022430A614A691A404A61D0E90B2343EA53
:1051C00002424B691A434A6190F8352090F8363014
:1051D000CC6A04F07F44CC621B0490F8344043EA6C
:1051E0000222CB6A22441A43CA624A6B42F0060288
:1051F0004A638A6942F001028A610021C0F8A41062
:10520000012280F8A120BDE810400846704700BF89
:10521000012070470000000002680021536A43F03B
:105220000103536200F090B82DE9F043B7B0044693
:1052300002A80830B82100253295CDE93555CDE9D1
:105240003355FBF7A8F841F200012068C5F20001D0
:10525000884203D037B0BDE8F08300BF4FF0005064
:10526000029019200C904FF4A5700D900A20109018
:1052700002A803954FF002081295CDE90E8800F0C0
:10528000A7FA08B1FDF7ECFB44F2E04042F200045B
:10529000C5F60200C5F6020432AD4FF000094168C0
:1052A000032641F00801416041680E2701F0080122
:1052B00001910199016841F480610160016801F484
:1052C000806101910199016841F4007101600168F8
:1052D00001F4007101910199016841F4807101604C
:1052E0000068294600F4807001900198FF20CDE904
:1052F000320804F50060CDF8D09035963697FFF768
:10530000DFFC32A94FF6FF70CDE9356781E8010374
:1053100004F580602946FFF7D3FC32A94FF47040B2
:10532000CDE9356781E8010320462946FFF7C8FC2F
:1053300058200521002200F0A7F8582000F090F82E
:1053400037B0BDE8F083000090F8A020012A4FF0AC
:10535000020215D080F8A1200268536B23F00103EC
:10536000536341F24003C5F200031960516B41F0F1
:10537000010151630022012180F8A11080F8A020D2
:105380001046704700000000704700000000000059
:10539000B0B502784EF69C5CCEF2000C43784CF827
:1053A000043CFAB14368CCF80030037BC17A90F832
:1053B0000AE0457B447A42EA0372837B42EA016158
:1053C000C27B41EACE41007A41EA854141EA43414C
:1053D00041EA024141EA042141EA4000CCF80400DC
:1053E000B0BD00BF0020CCF80000CCF80400B0BD78
:1053F0004EF62450CEF20000BFF35F8F016821F417
:10540000803101600021016770470000000000004A
:105410004EF6245140F00100CEF200010867086802
:1054200040F480300860BFF34F8FBFF36F8F704739
:1054300081B044F2F4400022C5F60200016841F058
:105440000201016000680F2100F0020000906FF07F
:105450000100009B01B000F017B800000000000040
:10546000002848BF704700F01F01012202FA01F135
:105470004EF20012C0F34A10CEF2000242F82010A1
:10548000704700000000000070B54EF60C5C4FF055
:10549000FF36CEF2000C00F1604505F56445DCF8FE
:1054A0000030C3F3022E8EF00703042B28BF042321
:1054B000BEF1030406FA03F321EA030100F00F032F
:1054C00038BF0024043B0028634406FA04F048BFB8
:1054D00003F10C05A14022EA0000084300012870F6
:1054E00070BD0000000000004EF60C514FF6FF03A7
:1054F000CEF200010A681A4060F30A2242F080608E
:1055000040F0FD7008607047B0B544F60C05C5F674
:10551000020529684907296806D401F00701081A1D
:1055200018BF0120B0BD00BF21F00701084328606B
:10553000FFF7BAFC044600BF55F8080C800407D4F6
:10554000FFF7B2FC001BB0F57A7FF5D90120B0BDA2
:105550000020B0BD0000000080B501F019F844F251
:1055600020414CF68412C5F60201C9F20102096815
:10557000C1F30211515C01F01F01C84080BD000061
:1055800080B544F2384EC5F6020E5EF8103C5EF867
:10559000101C5EF80C2CC1F3053CDEF80410BCF1C5
:1055A000000F19D0C9089FED3C1AD20601EAE2713A
:1055B00003F003026FF35F3100EE101AB8EE400AF9
:1055C000DFE802F0022210225EF8381C89060DD4B2
:1055D0009FED331A18E000BF00218160C0E900117F
:1055E00080BD00BF9FED2D1A0EE000BF5EF8381C95
:1055F00049F20002C0F2D032C1F3C10122FA01F136
:1056000001EE101AB8EE411ADEF800109FED253AAF
:105610006FF35F2102EE101ADEF80010C1F346218D
:10562000B8EE422A013100EE032A00EE10CAB7EEAE
:10563000003AB8EE400A81EE000A32EE031A20EE7C
:10564000010A01EE101AB8EE411A80EE011ABCEE02
:10565000C11A80ED001ADEF80010C1F306410131D5
:1056600001EE101AB8EE411A80EE011ABCEEC11A12
:1056700080ED011ADEF80010C1F30661013101EE80
:10568000101AB8EE411A80EE010ABCEEC00A10EE04
:10569000101A816080BD00BF0024744A20BCBE4B3C
:1056A0000024744C0000003980B544F2404EC5F629
:1056B000020E5EF8183C5EF8181C5EF8142CC1F35C
:1056C000055CDEF80410BCF1000F19D0C9089FED8D
:1056D0003C1AD20501EAE27103F003026FF35F3175
:1056E00000EE101AB8EE400ADFE802F002221022A3
:1056F0005EF8401C89060DD49FED331A18E000BFF8
:1057000000218160C0E9001180BD00BF9FED2D1A0E
:105710000EE000BF5EF8401C49F20002C0F2D03239
:10572000C1F3C10122FA01F101EE101AB8EE411ADB
:10573000DEF800109FED253A6FF35F2102EE101A9C
:10574000DEF80010C1F34621B8EE422A013100EE26
:10575000032A00EE10CAB7EE003AB8EE400A81EE16
:10576000000A32EE031A20EE010A01EE101AB8EE1A
:10577000411A80EE011ABCEEC11A80ED001ADEF863
:105780000010C1F30641013101EE101AB8EE411AC2
:1057900080EE011ABCEEC11A80ED011ADEF800108D
:1057A000C1F30661013101EE101AB8EE411A80EE24
:1057B000010ABCEEC00A10EE101A816080BD00BF65
:1057C0000024744A20BCBE4B0024744C00000039F5
:1057D0002DE9F0470446C07844F22C480007C5F68E
:1057E000020828D5A06E4FEA305103292AD8DFE8F5
:1057F00001F0030B131B00BFD8F8001041F4003177
:10580000C8F8001010E000BF04F10800022102F007
:1058100037FE064680B906E004F12800022102F0B6
:10582000C3FE064640B9A06ED8F8241021F44011FA
:105830000843C8F8240000266078C00706D1354622
:105840002FE000BF01266078C007F8D0A06D0428C3
:1058500058D83546DFE800F004140E0B0B0000BFEB
:10586000D8F80000354640F40030C8F800002F4654
:10587000C5B90DE004F12800002102F095FE04E016
:1058800004F10800002102F0FBFD05462F464DB94A
:10589000D8F82400A16D20F0070000250843C8F8BF
:1058A000240037466078800731D5E06D4FEAB010AC
:1058B00004285FD8DFE800F004140E0A0A0000BFD5
:1058C000D8F8000040F40030C8F800002E46FDB9BA
:1058D0000EE000BF04F12800002102F065FE04E0A4
:1058E00004F10800002102F0CBFD05462E467DB9EB
:1058F000D8F82400E16D20F4E07000250843C8F8D2
:10590000240004E00125012760788007CDD43E46BD
:105910006078400733D5D4F8A8004FEA70500428C7
:1059200060D8DFE800F003130D090900D8F8000083
:1059300040F40030C8F80000A9460DBB0EE000BFDF
:1059400004F12800002102F02FFE04E004F1080019
:10595000002102F095FD0546A9468DB9D8F82C0026
:10596000D4F8A81020F4600000250843C8F82C00E3
:1059700005E000BF0125012660784007CBD4B14681
:105980006078000734D5D4F8AC004FEA30600428C2
:105990005ED8DFE800F003130D090900D8F8000015
:1059A00040F40030C8F800002F4615BB0EE000BFE1
:1059B00004F12800002102F0F7FD04E004F10800E2
:1059C000002102F05DFD05462F4695B9D8F82C0060
:1059D000D4F8AC1020F0E06000250843C8F82C0093
:1059E00006E000BF01254FF0010960780007CAD426
:1059F0004F46E078800730D5E06C4FEA301003283E
:105A000020D8DFE800F00903150900BFD8F800002E
:105A100040F40030C8F800002E46ADB9D8F8200098
:105A2000E16C20F0300000250843C8F8200014E0A5
:105A300004F10800022102F023FD05462E461DB99F
:105A4000ECE700BF012501266078C00609D434E0E8
:105A500001250127E0788007CED43E466078C00655
:105A60002BD5206E4FEA3030042839D8DFE800F01B
:105A700004140E0A0A0000BFD8F8000040F40030F9
:105A8000C8F800002F46CDB90EE000BF04F1280091
:105A9000002102F089FD04E004F10800002102F079
:105AA000EFFC05462F464DB9D8F82400216E20F4AE
:105AB000E04000250843C8F8240037466078800697
:105AC00035D5606E4FEA3040052815D8DFE800F084
:105AD000041A0E04040400BF2E46DDB91EE000BF08
