:0200000490006A
:1000000010B60024AD02009019710090496E009066
:1000100011710090410900907134019000000000BE
:100020000000000000000000000000005176009079
:100030005119009000000000F17200903977009093
:10004000C7020090C7020090C7020090C70200904C
:10005000C7020090C7020090C7020090C70200903C
:10006000C7020090C7020090C702009011150090CF
:10007000C7020090C7020090C7020090C70200901C
:10008000C7020090C7020090C7020090C70200900C
:10009000C7020090C7020090C7020090C7020090FC
:1000A000C7020090C7020090C7020090C7020090EC
:1000B000C7020090C7020090C7020090C7020090DC
:1000C000C7020090C7020090C7020090C7020090CC
:1000D000C7020090C7020090C7020090C7020090BC
:1000E000C7020090C702009000000000C702009005
:1000F000C7020090C7020090C7020090C70200909C
:10010000C7020090C7020090C7020090C70200908B
:10011000B11D0190C702009089790090C70200903C
:10012000C7020090C7020090C7020090C70200906B
:10013000C7020090C7020090C7020090C70200905B
:1001400000000000000000000000000000000000AF
:10015000C7020090C7020090C7020090C70200903B
:10016000C7020090C7020090C7020090C70200902B
:10017000C7020090C7020090C7020090C70200901B
:10018000C7020090C7020090C7020090C70200900B
:10019000C7020090C7020090C7020090C7020090FB
:1001A000D96F0090C7020090C7020090C70200906C
:1001B000C7020090C7020090C7020090C7020090DB
:1001C000C7020090C7020090C7020090C7020090CB
:1001D000C7020090C7020090C7020090C7020090BB
:1001E000C7020090C7020090C7020090C7020090AB
:1001F000C7020090C7020090C7020090C70200909B
:10020000C7020090C7020090C7020090C70200908A
:10021000C7020090C702009079790090C702009051
:10022000C7020090C7020090C702009000000000C3
:10023000C7020090C702009000000000C7020090B3
:10024000C7020090C7020090C7020090C70200904A
:10025000C7020090C7020090C7020090C70200903A
:10026000C7020090C7020090C7020090C70200902A
:10027000C7020090C7020090C70200900000000073
:10028000C7020090C7020090C70200900000000063
:1002900000000000C7020090DFF80CD000F09EFACA
:1002A00000480047915B019010B600240648804743
:1002B00006480047FEE7FEE7FEE7FEE7FEE7FEE74B
:1002C000FEE7FEE7FEE7FEE79978009099020090CE
:1002D0002DE9F05F0546002092469B46884606467B
:1002E000814640241BE0284641464746224600F00E
:1002F000ACF853465A46C01A914110D311461846DD
:10030000224600F093F82D1A67EB01084F4622466B
:100310000120002100F08AF817EB00094E41201E51
:10032000A4F10104DFDC484631462A464346BDE8D5
:10033000F09F0000004870470CB20190A0F16101ED
:10034000192900D82038704710B5431A934209D2B2
:100350008318881803E010F8011D03F8011D521ED0
:10036000F9D210BD40EA01039B0703D009E008C998
:10037000121F08C0042AFAD203E011F8013B00F86A
:10038000013B521EF9D210BDD2B201E000F8012BA0
:10039000491EFBD270470022F6E710B513460A4605
:1003A00004461946FFF7F0FF204610BD10B504467D
:1003B00004E00B7800F8013B03B1491C521EF8D24F
:1003C000204610BD421C10F8011B0029FBD1801AE9
:1003D000704710B5002200E0521C835C8C5CA34285
:1003E00001D1002BF8D1D8B2E1B2401A10BD0346BA
:1003F00011F8012B00F8012B002AF9D1184670479B
:1004000030B50B46014600202022012409E021FAE4
:1004100002F59D4205D303FA02F5491B04FA02F5E1
:100420002844151EA2F10102F1DC30BD202A04DBB4
:10043000203A00FA02F1002070479140C2F12003F7
:1004400020FA03F3194390407047202A04DB203A36
:1004500021FA02F00021704721FA02F3D040C2F1E4
:10046000200291400843194670472DE9FE4F80460F
:1004700081EA0300C00F0C46009021F0004123F0F8
:100480000045B8EB0200A94105D2404621469046FE
:100490001C460B46024623F00040104347D0270D70
:1004A000C7F30A00C3F30A510290401A0190402892
:1004B0006BDAC3F3130040F4801B0098924620B11E
:1004C0000023D2EB030A63EB0B0B01985946C0F1F2
:1004D00040025046FFF7AAFF06460D4650465946D1
:1004E000019A00F093F910EB08006141002487EABB
:1004F000115284EAE7731A4340D0009A62B3019A1A
:10050000012A4FEA075215DC001B61EB02014FF094
:10051000004202EA0752CDE90042001C41F5801179
:1005200032462B4600F093F903B0BDE8F08F404609
:100530002146F9E7001B61EB0201001C41F5801325
:1005400000185B412018A2F5001747EB030140EAB1
:10055000D570B6196D4111E06D084FEA360645EACF
:10056000C0754FEA0752001B61EB0201001C41F508
:10057000801149084FEA30000019514132462B469C
:1005800003B0BDE8F04F00F053B9009801224000DD
:100590000023D0EB020263EBE073009821464FEAA0
:1005A000E074B8EB000061EB0401E9E783F000437D
:1005B0005BE781F0004158E72DE9FE4F81EA030433
:1005C00004F0004421F0004100944FF0000B23F0B0
:1005D000004350EA01045ED052EA03045BD0C3F347
:1005E0000A54C1F30A552C44A4F2F3340194A0FB3D
:1005F0000254C1F3130141F48011C3F3130343F414
:10060000801301FB024400FB034E840A970A44EA6C
:10061000815447EA8357A4FB076802958D0A05FBBE
:1006200007854FEA932C04FB0C542705029D4FEAE3
:10063000065847EA1637B5EB08056EEB070C870E30
:10064000920E47EA811742EA8312A7FB0201B6EB3A
:100650000B0164EB00042B0D43EA0C335E1844EBF2
:100660001C50DA465146E7FB0201C5F313044FEA7A
:100670000B3343EA14534FEA0432019C43EA060366
:10068000A4F10C040294009CCDE900B400F0DFF862
:1006900003B0BDE8F08F00200146F9E72DE9F04DE9
:1006A00081EA030404F0004B21F0004514464FF0AA
:1006B000000A23F0004150EA050220D054EA01026A
:1006C0001DD0C5F30A570246C5F31303C1F3130047
:1006D000C1F30A5640F4801543F48013A7EB0608D3
:1006E000101BD64608F2FD3873EB050002D308F163
:1006F000010801E092185B41B8F1000F03DA002015
:100700000146BDE8F08D00204FF480110646844676
:100710000EE0171B73EB050705D3121B63EB0503F4
:1007200006434CEA010C49084FEA300092185B413D
:1007300050EA0107EDD152EA030012D082EA040028
:1007400083EA0501084305D0101BAB4106D2012204
:10075000002306E000224FF0004302E06FF00102A8
:1007600053101AEB06004CEB085110EB0A0041EB5A
:100770000B01BDE8F04D00F05BB8C1F30A52C1F3C4
:10078000130140F2FF3341F480119A4202DA002053
:100790000146704740F233439A42A2F2334202DCF0
:1007A0005242FFF752BEFFF741BE000030B5041EB3
:1007B00071F1000404DB4FF00044404264EB01019E
:1007C000141E73F1000405DB1C464FF00043524237
:1007D00063EB0403994208BF904230BD1CB5094841
:1007E0000090094801900546009C06E0E06840F052
:1007F000010394E8070098471034AC42F6D3FFF7A2
:100800004FFD0000E8D1109028D21090202A06DB7E
:10081000CB17203A41FA02F043EAE07306E041FACE
:1008200002F3D040C2F120029140084319467047BC
:1008300010B5141E73F1000408DA401C41F10001E8
:1008400092185B411A4301D120F0010010BD2DE93F
:10085000F04D92469B4611B1B1FA81F202E0B0FA36
:1008600080F220329046FFF7E1FD04460F4640EA51
:100870000A0041EA0B0153465A46084313D0114679
:1008800053EA010019D0C8F140025046FFF7DDFDE0
:1008900005460E46504659464246FFF7C7FD0843F7
:1008A00005D0012004E020463946BDE8F08D002047
:1008B000054346EAE0762C4337430A986305E40A89
:1008C000A0EB08000022FD0A44EA47540A3002D592
:1008D00000200146E9E7010510196941DDE90845F5
:1008E00000196941BDE8F04DA2E770B58C1810F809
:1008F000015B15F0070301D110F8013B2A1106D165
:1009000010F8012B03E010F8016B01F8016B5B1E7E
:10091000F9D12B0705D40023521E0DD401F8013B59
:10092000FAE710F8013BCB1A921C03E013F8015BC5
:1009300001F8015B521EF9D5A142D8D3002070BD49
:10094000FEE7000000000000A6B0B7EE00AAB6EE79
:1009500000BA47F6CC481EA8C2F20048411C1D91BF
:10096000C11C1991411D1591C11D119100F1090181
:100970000D9100F10B01099100F10D01059122A9E2
:100980009FED0E8A08F10E059FED0D9A00269FED52
:100990000DCA0F300190881C1B90081D1790881DF0
:1009A000139001F108000F9001F10A000B9001F182
:1009B0000C00079001F10E00039005E0DB0FC94029
:1009C0000000803A00FF7F4700EE106AB8EE400A50
:1009D00020EE080A20EE090A19F0C4FD30EE0A0ADA
:1009E000B0EE4B1A701C20EE0B0AA0EE0C1A00EEB3
:1009F000100AB8EE400ABCEEC11A20EE080A11EE49
:100A0000100A20EE090A25F80E0C19F0ABFD30EEA5
:100A10000A0AB0EE4B1AB01C20EE0B0AA0EE0C1A1C
:100A200000EE100AB8EE400ABCEEC11A20EE080A29
:100A300011EE100A20EE090A25F80C0C19F092FDAF
:100A400030EE0A0AB0EE4B1AF01C20EE0B0AA0EEB4
:100A50000C1A00EE100AB8EE400ABCEEC11A20EEE5
:100A6000080A11EE100A20EE090A25F80A0C19F0FE
:100A700079FD30EE0A0AB0EE4B1A301D20EE0B0A5B
:100A8000A0EE0C1A00EE100AB8EE400ABCEEC11A35
:100A900020EE080A11EE100A20EE090A25F8080CCB
:100AA00019F060FD30EE0A0AB0EE4B1A701D20EE10
:100AB0000B0AA0EE0C1A00EE100AB8EE400ABCEECB
:100AC000C11A20EE080A11EE100A20EE090A25F8D4
:100AD000060C19F047FD30EE0A0AB0EE4B1AB01DB5
:100AE00020EE0B0AA0EE0C1A00EE100AB8EE400A37
:100AF000BCEEC11A20EE080A11EE100A20EE090A17
:100B000025F8040C19F02EFD30EE0A0AB0EE4B1A4F
:100B1000F01D20EE0B0AA0EE0C1A00EE100AB8EE43
:100B2000400ABCEEC11A20EE080A11EE100A20EEAF
:100B3000090A25F8020C19F015FD30EE0A0AB0EE8C
:100B40004B1A0836B6F5806F20EE0B0AA0EE0C1A91
:100B5000BCEEC10A10EE100A25F8100B7FF434AF7A
:100B60001EA844F2210C011D169100F108010E91FE
:100B700022A90C300690481C1C90481D149001F1CD
:100B800009000C9008F5FC6000264FF47C73C0F25D
:100B9000800C0D31049100BF3146B6F5007F28BFAF
:100BA00003F10F0103F10E07B6F5007F38BF771C84
:100BB000C1EB0141B6F5007F01F1FF01A1FB0C542F
:100BC00003F10D0538BFB51CA1EB040EC7EB0747B9
:100BD000FF37B6F5007FA7FB0C2104EB5E02C5EBE7
:100BE000054503F10C0405F1FF05A7EB010938BF2A
:100BF000F41C4FEA122EA5FB0C2701EB5901B6F5A8
:100C0000007FA5EB070AC4EB044403F10B0504F1D4
:100C1000FF0438BF351D4FEA1129A4FB0C1207EB66
:100C20005A0120F820EFA4EB020AC5EB054503F1B9
:100C30000A04B6F5007F05F1FF054FEA112E38BF13
:100C4000741DA5FB0C1702EB5A01A0F80290B6F533
:100C5000007FA5EB070AC4EB044403F1090504F186
:100C6000FF0438BFB51D4FEA1129A4FB0C1207EB96
:100C70005A01A0F804E0A4EB020AC5EB054503F114
:100C80000804B6F5007F05F1FF054FEA112E38BFC5
:100C9000F41DA5FB0C1702EB5A01A0F80690B6F55F
:100CA000007FA5EB070AC4EB044403F1070504F138
:100CB000FF0438BF06F108054FEA1129A4FB0C1206
:100CC00007EB5A01A0F808E0A71AC5EB0545FF3568
:100CD000B6F5007F02EB5702A5FB0C7403F1060783
:100CE0004FEA122238BF06F109072D1BC281090AFB
:100CF000A0F80A90C7EB07425F1D8181FF32B6F56D
:100D0000007F04EB550138BF06F10A07A2FB0C5423
:100D10001D1DB6F5007F4FEA112138BF06F10B0506
:100D2000121B0182C7EB0741B6F5007F01F1FF01FD
:100D300004EB5202A1FB0C74C5EB054707F1FF075A
:100D40004FEA1222A1EB040EA7FB0C5103F103059D
:100D5000428238BF06F10C0504EB5E027F1A9C1C30
:100D6000B6F5007FC5EB054538BF06F10D04FF352C
:100D700001EB570EA5FB0C71120A8282C4EB0442F0
:100D8000A5EB01095D1CFF32B6F5007F38BF06F107
:100D90000E05A2FB0C744FEA1E27C782B6F5007F32
:100DA000A3F1100EA2EB040238BF06F10F03C5EB4E
:100DB0000545103601EB5901FF35090A018304EBA3
:100DC0005202A5FB0C47C3EB0341B6F5806F01F15E
:100DD000FF01A5EB0703A1FB0C454FEA122242835A
:100DE00007EB5302A1EB050173464FEA12228283FF
:100DF00005EB51014FEA1121C1837FF4CDAE1EA84E
:100E00004FF48052811C0A300A9022A81A91C11C0A
:100E100018910B300890002040F6E27141F2060371
:100E20004FF481570026B0F5007F08EB400408EB33
:100E3000010538BF4FF0FF3620304031B0F5806FEC
:100E4000A6522E846E84E652EE842E856E85AE8583
:100E5000EE852E866E86AE86EE862E876E87AE87F0
:100E6000E653A5F84060A5F84260A5F84460A5F8EF
:100E70004660A5F84860A5F84A60A5F84C60A5F85A
:100E80004E60A5F85060A5F85260A5F85460A5F82A
:100E90005660A5F85860A5F85A60A5F85C60C1D105
:100EA00040F26C0140F26459C2F20041C2F20049C2
:100EB00003200027087088704FF47A70486040F66D
:100EC000B83088601EA8C9E90177C9E90377821D97
:100ED0001292C9F814700E300290012089F8027045
:100EE000487022A8C11D109189F800700F30009041
:100EF00089F8017012F0C4FE15F062F9054615F08C
:100F00005FF96FF0C7014C1B2044B0F1FF3F40F385
:100F1000AE8215F055F940F26C050646C2F2004566
:100F200012F0BAFA834615F04BF9801B00F18E825D
:100F300040F2E000C2F200400068002800F0DE80CD
:100F400040F22451C2F200410968002900F0888073
:100F500040F22C52C2F200421268002A00F0808057
:100F600040F23053C2F200431B68002B78D0D9F80E
:100F700018708F4207D1D9F81C10914204BFD9F8DC
:100F80002010994272D04FF0FF3115F039FA40F23B
:100F90002450C2F20040006890B1D9F81810814284
:100FA0000ED043F2794107220023C9F2010119F062
:100FB00033F940F22450C2F200400068C9F818002A
:100FC00040F22C500027C2F200400068D8B1D9F896
:100FD0001C10814217D0012119F023F940F22C5442
:100FE0000FF29C41C2F20044206819F01FF92068FA
:100FF000062119F020F920680FF2904119F020F92C
:101000002068C9F81C0040F23050C2F2004000686D
:10101000D8B1D9F82010814217D0012119F001F977
:1010200040F230540FF27041C2F20044206819F0CF
:10103000FDF82068052119F0FEF820680FF26441E0
:1010400019F0FEF82068C9F8200040F2E004C2F26E
:101050000044206815F034FA206848B94EE000BF1B
:10106000C9E90677C9F8207002E000BF002700BF79
:1010700040F2D441C2F20041096800293ED040F25A
:10108000D841C2F200410968C1B340F2DC41C2F26A
:101090000041096891B34FF0FF3115F0B1F940F20A
:1010A000D4400121C2F20040006819F0CEF808B126
:1010B000002415E040F2D8400121C2F20040012492
:1010C000006819F0C2F858B940F2DC400121C2F2C0
:1010D0000040006819F0B9F80324002818BF022462
:1010E00040F2E000C2F20040006815F0E9F928780B
:1010F000A04203D02C700120687000BFD5F804A076
:10110000D5F8088099F80300002800F09B8140F290
:10111000E00089F80370C2F200400068002800F087
:10112000918140F22C51C2F200410968002900F07F
:10113000898140F23051C2F200410968002900F073
:1011400081814FF0FF3115F05BF940F22C50C2F273
:101150000040006819F07EF800284FD0017800297F
:101160004CD042788DF888101C99002A47D083789B
:101170001B998DF88920002B41D0C27818998DF8E1
:101180008A30E2B3037917998DF88B20BBB342798B
:1011900014998DF88C3092B3837913998DF88D2042
:1011A0006BB3C27910998DF88E3042B3037A0F99E0
:1011B0008DF88F201BB3427A0C998DF89030F2B1E4
:1011C000837A0B998DF89120CBB1C27A08998DF86A
:1011D0009230A2B1037B07998DF893207BB1427BBB
:1011E00004998DF8943052B1807B8DF89520039945
:1011F00000281CBF8DF89600009900E022A940F25B
:1012000030500F70C2F20040006819F023F8002837
:1012100050D0017800294DD042788DF878101D9972
:10122000002A48D083781A998DF87920002B42D073
:10123000C27819998DF87A30EAB3037916998DF846
:101240007B20C3B3427915998DF87C309AB38379AA
:1012500012998DF87D2073B3C27911998DF87E3083
:101260004AB3037A0E998DF87F2023B3427A0D9901
:101270008DF88030FAB1837A0A998DF88120D3B144
:10128000C27A09998DF88230AAB1037B06998DF84C
:10129000832083B1427B05998DF884305AB1807BDD
:1012A0008DF88520029900281CBF8DF886000199D1
:1012B00001E000BF1EA940F2E0000F70C2F2004042
:1012C000006815F0FDF89DF888200AB348F2A06682
:1012D00000201C99C0F20106A2F13A0313F10A0F93
:1012E00016D300EB800002EB40003038B0420FD83C
:1012F00011F8012B002AEFD14FF0000C0A2834BF5F
:101300004FF0010C82469DF8785035B942E000BF9D
:101310004FF0010C9DF87850E5B300271D9C00208C
:1013200000230022002102E014F8015B35B3A5F18F
:101330003006092E0CD8AFB1022B35D802EB820053
:10134000013305EB4000A0F130020120ECE700BFC3
:101350002E2D4FF0010531D1002F4FF00107E3D0C2
:101360002CE000BF01EB810005EB4000A0F1300153
:101370000120032918D80027D6E700BF4FF0000747
:1013800040B1022B2FD8022B22D102EB8200420067
:1013900029E000BF01251CEA050F40F26C05C2F2EE
:1013A00000454FD130E000BF012500271CEA050FA2
:1013B00040F26C05C2F2004544D125E000271CEA4A
:1013C000050F40F26C05C2F200453BD11CE000BFA6
:1013D0004FF47A70012B02FB00F04FF0640308BF5A
:1013E00002FB03F002464FF47A70002501FB00284F
:1013F00040F6B830804588BF01251CEA050F40F251
:101400006C05C2F200451DD148F2A06040F6B8312B
:10141000C0F20100824528BF8246BAF10A0F98BF88
:101420004FF00A0A6868884528BF8846504502D1AF
:10143000A868404506D0C5F804A00120C5F808807A
:10144000687000BF14F0BCFE00F10A0612F018FC30
:1014500012F022F850EA0B007FF462AD012014F084
:101460009FFE5DE514F0ACFE00197FF552AD12F061
:1014700013F80028F6D1012014F092FEF2E700BF25
:1014800030313233343536373839000031302D3190
:1014900030303030300000003031323334353637C0
:1014A00038392E00302D332E3000000000000000AF
:1014B00010B5846B204600F02BFC0120207110BD7C
:1014C00010B5846B204600F05FFB0120207110BD39
:1014D00010B5846B206940F004002061204600F0C4
:1014E0003BFC0120207110BD10B5846B206940F0D9
:1014F00004002061204600F053FB0120207110BD44
:10150000806B00F015BC0000806B00F041BB000058
:1015100040F64410C2F2004001F026BA000000007C
:1015200040F20F42D0F800C0C4F20202944511DC30
:101530006F22C4F20202944522DC3F22C4F202026E
:10154000944539DC1022C4F2020294455AD0282274
:1015500054E000BF40F26F42C4F2020294451BDC2B
:1015600040F23F42C4F2020294452DDC40F21042A8
:10157000C4F20202944545D040F228423EE000BF4A
:101580009F22C4F20202944528DC7022C4F20202B7
:10159000944537D0882231E040F29F42C4F20202E3
:1015A000944523DC40F27042C4F20202944529D0F3
:1015B00040F2884222E000BF4022C4F20202944579
:1015C00020D058221AE000BF40F24042C4F202028A
:1015D000944517D040F2584210E000BFA022C4F258
:1015E000020294450ED0B82208E000BF40F2B84293
:1015F000C4F20202944505D040F2A042C4F20202B5
:10160000944517D10CF0F8024AF6AB23103ACAF60B
:10161000AA23A2FB03310AA35F2AC1F302115B5C78
:1016200040F2FF312CEA0101C36588BF04318165B6
:10163000084670472CF0FF0181650846704700BFDF
:10164000000610160006101670B540F26F44D0F870
:1016500000C0C4F20204D0F858E0A4451ADC9F256B
:10166000C4F20205AC4533DC5725C4F20205AC4593
:101670005ADC1025C4F20205AC4500F098802825FC
:10168000C4F20205AC4500F092804025C4F2020588
:101690008AE000BF45F22F45C5F60205AC452DDCBA
:1016A00040F2B745C4F20205AC454BDC40F2704550
:1016B000C4F20205AC457AD040F28845C4F2020576
:1016C000AC4574D040F2A045C4F202056CE000BF06
:1016D00040F22745C4F20205AC4543DCA025C4F224
:1016E0000205AC4563D0B825C4F20205AC455ED016
:1016F00040F21045C4F2020556E000BF45F26B45CA
:10170000C5F60205AC453FDC45F23045C5F602059D
:10171000AC454CD045F24445C5F60205AC4546D033
:1017200045F258453EE000BF5825C4F20205AC45DD
:101730003DD07025C4F20205AC4538D08825C4F2EE
:10174000020531E040F2B845C4F20205AC452ED0A6
:1017500045F20845C5F60205AC4528D045F21C45C2
:1017600020E000BF40F22845C4F20205AC451ED07F
:1017700040F24045C4F20205AC4518D040F258454D
:10178000C4F2020510E000BF45F26C45C5F6020543
:10179000AC450CD045F29445C5F60205AC4506D0E3
:1017A00045F28045C5F60205AC4540F0D080456E57
:1017B000C66E002E866E6E601CBFD0E91C566E6031
:1017C000A44515DC9F24C4F20204A4452CDC572454
:1017D000C4F20204A44551DC1024C4F20204A4455E
:1017E0007AD02824C4F20204A44575D040246FE0C6
:1017F00045F22F44C5F60204A44529DC40F2B74463
:10180000C4F20204A44545DC40F27044C4F2020470
:10181000A44561D040F28844C4F20204A4455BD0E0
:1018200040F2A04454E000BF40F22744C4F2020456
:10183000A4453FDCA024C4F20204A4454CD0B82443
:10184000C4F20204A44547D040F2104440E000BF77
:1018500045F26B44C5F60204A44555DC45F230441C
:10186000C5F60204A44561D045F24444C5F602041D
:10187000A4455BD045F2584454E000BF5824C4F25C
:101880000204A44528D07024C4F20204A44523D045
:1018900088241DE040F2B844C4F20204A4451BD0E1
:1018A00045F20844C5F60204A4453FD045F21C4465
:1018B00038E000BF40F22844C4F20204A4450BD033
:1018C00040F24044C4F20204A44505D040F258441A
:1018D000C4F20204A4453AD18468C06D00F01F0030
:1018E0003F2505FA00F0CEF80800DCF80000402C97
:1018F00020F48020CCF80000CCF8043023D1CCF8C0
:101900000820CCF80C1070BD45F26C44C5F60204FA
:10191000A4450BD045F28044C5F60204A44505D089
:1019200045F29444C5F60204A44510D1C46D0125C6
:1019300004F01F04806805FA04F4CEF8044040283F
:10194000CCF80430DBD0CCF80810CCF80C2070BDFB
:101950007047000000000000EFF3108072B600BF77
:10196000FEE70000000000000A68002A02681FD09D
:1019700022F4F842D1E9073C1A434B6A42EA0C02CE
:101980001A430260426847F6FF739A43D1E9013C6B
:101990001A43CB6842EA0C02D1F810C01A434B69D3
:1019A00042EA0C0289691A431143416000207047E2
:1019B00047F6FF739A43D1E9013C1A43CB6842EAE8
:1019C0000C02D1F810C01A434B6942EA0C02D1F85C
:1019D00018C01A43CB6942EA0C02D1F820C01A435E
:1019E000496A42EA0C02114301600020704700007E
:1019F0000246406943F6FE7320EA0303002043EAEF
:101A0000410151617047000010B5024600696FF353
:101A100015006FF01F04D1E900ECD1E9023140EA72
:101A20000E0004EB431340EA0C000343002043EA9A
:101A30004121116110BD00002DE9F041002A8268AA
:101A400036D040F6FF734FF20006CFF60F73CFF695
:101A5000FF761A40CB684F696FF00F0406EB033333
:101A60000026CFF6F0761A4306EB07573A4382601A
:101A7000C2688E68D1E9003702F07042013B04EB86
:101A800007176FF0FF040D6904EB062600241A43C4
:101A9000CFF6FF7489693A4304EB054501393243B7
:101AA0002A4342EA0161C1600020BDE8F08100BF25
:101AB00001F1080602F0704CD1E900E278CE6FF037
:101AC0000F074FF2000807EB02126FF0FF0707EB5A
:101AD0000323AEF1010747EA0C07CFF6FF7840F287
:101AE000000E3A4308EB0434CFF6FF7E00271A437A
:101AF00089690EEB0545CFF6F077224307EB0653D5
:101B000001392A431A4342EA016181600020BDE89D
:101B1000F08100000000000070B515460C46064636
:101B20000AF01AFB0AF018FBBA200FF0D9F80128C6
:101B300007D1300A0FF0D4F8012802D1F0B20FF02B
:101B4000CFF80AF009FBBB200FF0CAF8012815D125
:101B500064B1013D644200BFB4F1FF3018BF012001
:101B600009F0E2FB013405F8010FF5D30BF044FD59
:101B700000240BF041FD204670BD00BF01240BF096
:101B80003BFD204670BD00007047000000000000D3
:101B900070470000000000007047000000000000D7
:101BA00070470000000000002DE9F0410446407934
:101BB00001284FF0020008BFBDE8F0811546012260
:101BC00062712071086804281AD1884602F0E8F88A
:101BD00021680646486B1DB3B0F1FF3F05DD442682
:101BE00039E000BF406B0028F9D502F0D9F8801B1E
:101BF00002282068F6D3416BB1F1FF3FF2DC21E00F
:101C000022680869012849D105F010031F27906B4D
:101C10009F404E69B84306FA03F7384390633FE0AC
:101C200048F20007C2F2000701E000BF406B3842F3
:101C300010D002F0B5F8801B02282068F6D3416B63
:101C40003942F3D0206940F0080020610320207160
:101C5000BDE8F0814026012001F09AFF2268D8F803
:101C6000180005F0100340F2FF3790519F40906C30
:101C7000D8F81C60B84306FA03F7D8F82060384358
:101C80009064FF20D76C9840414627EA000006FA8E
:101C900003F31843D06408690128B5D005F0100398
:101CA0000727D06BCE689F40012E20EA070C4FF02B
:101CB000000003D0022E03D1012605E0002603E038
:101CC0008E68B6FA86F676090D688F682E4337431C
:101CD00049689F4047EA0C07D7634FF4804716686E
:101CE0009F4026EA0707176040F6FE7716689F4078
:101CF00026EA0707994039431160C02199401368CB
:101D000023EA01011160012121716071BDE8F081B8
:101D100068B147F200410068C4F20001884218BF70
:101D2000704740F264500121C2F200404170704798
:101D300068B147F200410068C4F20001884218BF50
:101D4000704740F264500121C2F2004001707047B8
:101D5000FFF702BE00000000FFF7FEBD000000001C
:101D600010B501680A68920444BF4A6B5FEA824278
:101D700018D40A68920046BF4A6B5FEA820210BD1F
:101D800004220271026942F0020202614FF0005225
:101D90004A630A6822F080520A60BDE81040FFF7EB
:101DA000FBBE00BF042202710269044642F0010238
:101DB00002614FF400524A630A6822F480520A60BA
:101DC000FFF7C6FF20462168D3E7000000000000AF
:101DD00090B1017941B910B500214171044600F07C
:101DE0000FF82046BDE81040022101710021016179
:101DF0000122027108467047012070470000000070
:101E000070B586B047F2004104460068C4F2000194
:101E100000268842CDE9046603960296019601D019
:101E200006B070BD44F2E040C5F60200816841F0A2
:101E300000518160816801F00051009100990168B2
:101E400041F001010160006801A900F0010000906B
:101E50000098102001900320CDE902060020C5F66D
:101E6000020001F0A9FE40F644151020C2F2004520
:101E7000C4F202002860432068604020C5E90206E1
:101E80004FF4806028614FF4006068614FF40050A7
:101E9000A8614FF480706E62C5E90706284601F01C
:101EA0006FF908B1FFF758FD362005210022A56023
:101EB000AC6302F065FA362002F04EFA06B070BD4F
:101EC000F0B581B00446407901284FF0020073D08C
:101ED0000F460121617106992071EFB1E06841F26E
:101EE000C14641F20955C9F20006C9F200050829A8
:101EF000C0E90F65266841F2E945C9F20005C564ED
:101F0000356845F08055356028D0042922D049BB7A
:101F100006F1140527E000BFA06841F2B14641F286
:101F20000155C9F20006C9F200050829C0E90F658C
:101F3000256841F2D146C9F20006C6642E6846F40F
:101F400080562E601AD0042914D0D9B905F1080C96
:101F50001AE000BF06F1180505E000BF06F11C05F8
:101F600001E000BF0025316841F0005131601146A9
:101F70002A460FE005F10C0C06E000BF05F1100C3D
:101F800002E000BF4FF0000C296841F400512960C5
:101F90001146624601F024FC4FF00001617118B156
:101FA00004F11001042204E007F0100101228A402C
:101FB00021680B681A430A6001B0F0BD0000000000
:101FC00070B50446006801F010024FF4805303FA24
:101FD00002FC036823EA0C0303600C23012500299B
:101FE000016808BF082305FA02F26FF0005621EAE3
:101FF0000201016008BF6FF40056E05800F0C4F819
:1020000020680168314001600020257170BD00002A
:1020100090F86020012A4FF0020257D02DE9F041DC
:10202000C1EBC10380F8612000EB830303F1280EAC
:10203000D3E90B42D3E90DC5DE6B1204A4F1090804
:102040004FEA0C67B8F1020F42EA055538BF0CF0B1
:102050007F4745EA46564FF6F07246EA0705C0F25A
:10206000CC02002945EA040118D00B2C05D1DEF87A
:102070001830A2F5402241EA83410468B8F1010F0B
:10208000E36902EA030241EA0201E161DEF80010BD
:10209000216113D82CF07F4121620FE00468B8F170
:1020A000010F636A02EA030241EA02016162DEF89B
:1020B0000010A16102D82CF07F41A1620022012111
:1020C00080F8611080F86020BDE8F041104670474C
:1020D00000283FD010B590F8611031B9002180F888
:1020E0006010044600F038F82046022180F86110A4
:1020F00090E806404FF6BF73D0F80CC00C68CFF6DE
:10210000F8732340C4691A4340F2071322430A605C
:102110004A6B9A43836942EA0E021A434A630A6C85
:102120004FF6FF739A4342EA0C020A644A6B036952
:1021300022F44012446942EA035242EA44524A639A
:1021400000214166012280F86120BDE81040084668
:10215000704700BF0120704741F200010068C5F2DE
:102160000021884218BF704781B044F2D440C5F6C0
:102170000200016841F010010160006800F01000E9
:102180000090009801B070472DE9F041044601F03D
:1021900007FE1CB3054694F83500022822D140F210
:1021A0000F472668C4F2020740F26F48BE426FF044
:1021B0000E00C4F202081DDC6F21C4F202018E423F
:1021C0002ADC3F21C4F202018E4241DC1021C4F21C
:1021D00002018E4263D028215CE000BF0120BDE8EF
:1021E000F08100BF802060650120002184F8341058
:1021F000BDE8F08146451BDC40F23F41C4F20201DC
:102200008E422DDC40F21041C4F202018E4246D0D3
:1022100040F228413EE000BF9F21C4F202018E42FD
:1022200028DC7021C4F202018E4238D0882131E0CE
:1022300040F29F41C4F202018E4223DC40F2704121
:10224000C4F202018E422AD040F2884122E000BF4F
:102250004021C4F202018E4221D058211AE000BF71
:1022600040F24041C4F202018E4218D040F258417F
:1022700010E000BFA021C4F202018E420FD0B821AD
:1022800008E000BF40F2B841C4F202018E4206D01D
:1022900040F2A041C4F202018E42314607D13146DC
:1022A000306820F01E0041F8140B6FF080000A68BF
:1022B000464500EA020008601ADC9F20C4F20200D2
:1022C000864233DC5720C4F2020086425ADC1020DA
:1022D000C4F20200864200F097802820C4F2020077
:1022E000864200F091804020C4F202008AE000BFE4
:1022F00045F22F40C5F6020086422DDC40F2B74081
:10230000C4F2020086424BDC40F27040C4F202008C
:10231000864279D040F28840C4F20200864273D0EF
:1023200040F2A040C4F202006CE000BF40F227403F
:10233000C4F20200864243DCA020C4F202008642BE
:1023400062D0B820C4F2020086425DD040F2104054
:10235000C4F2020056E000BF45F26B40C5F6020031
:1023600086423FDC45F23040C5F6020086424BD043
:1023700045F24440C5F60200864245D045F2584039
:102380003EE000BF5820C4F2020086423CD07020DC
:10239000C4F20200864237D08820C4F2020031E045
:1023A00040F2B840C4F2020086422DD045F2084007
:1023B000C5F60200864227D045F21C4020E000BF4F
:1023C00040F22840C4F2020086421DD040F2404054
:1023D000C4F20200864217D040F25840C4F2020014
:1023E00010E000BF45F26C40C5F6020086420BD0FB
:1023F00045F29440C5F60200864205D045F2804081
:10240000C5F60200864204D1206E016821F4807175
:102410000160306820F00100306000BF3068C00704
:1024200010D001F0BDFC401B0628F7D320206065CA
:10243000032084F835000120002184F83410BDE821
:10244000F08100BF20680821B8424FF03F0211DC44
:102450006F23C4F2020398421EDC3F23C4F202033E
:10246000984235DC1023C4F20203984257D0282347
:1024700050E000BF40451BDC40F23F43C4F2020382
:1024800098422DDC40F21043C4F20203984246D039
:1024900040F228433EE000BF9F23C4F2020398426B
:1024A00028DC7023C4F20203984238D0882331E03C
:1024B00040F29F43C4F20203984223DC40F270438F
:1024C000C4F2020398422AD040F2884322E000BFBF
:1024D0004023C4F20203984221D058231AE000BFDF
:1024E00040F24043C4F20203984218D040F25843ED
:1024F00010E000BFA023C4F2020398420FD0B8231B
:1025000008E000BF40F2A043C4F20203984206D0A4
:1025100040F2B843C4F20203984240F0C580D4E9C7
:10252000163707F01F07404502FA07F25A5019DC28
:102530009F21C4F20201884232DC5721C4F2020119
:10254000884259DC1021C4F20201884200F09680D2
:102550002821C4F20201884200F090804021C4F298
:10256000020189E045F22F41C5F6020188422DDCC7
:1025700040F2B741C4F2020188424BDC40F27041A4
:10258000C4F20201884279D040F28841C4F20201CB
:10259000884273D040F2A041C4F202016CE000BF57
:1025A00040F22741C4F20201884243DCA021C4F278
:1025B0000201884262D0B821C4F2020188425DD093
:1025C00040F21041C4F2020156E000BF45F26B41F7
:1025D000C5F6020188423FDC45F23041C5F60201F2
:1025E00088424BD045F24441C5F60201884245D0AD
:1025F00045F258413EE000BF5821C4F20201884232
:102600003CD07021C4F20201884237D08821C4F244
:10261000020131E040F2B841C4F2020188422DD0FB
:1026200045F20841C5F60201884227D045F21C4117
:1026300020E000BF40F22841C4F2020188421DD0D0
:1026400040F24041C4F20201884217D040F25841A2
:10265000C4F2020110E000BF45F26C41C5F6020170
:1026600088420BD045F29441C5F60201884205D05C
:1026700045F28041C5F6020188420BD1616EA26E1F
:10268000E06E4A6030B1016821F480710160D4E9E4
:102690001C014160012084F835000020002184F8ED
:1026A0003410BDE8F08100BF0421012237E70000AB
:1026B000F0B190F83510022918D180B540F20F42E0
:1026C0000168C4F20202914214DC6F23C4F20203D7
:1026D000994225DC3F23C4F2020399423CDC1023DB
:1026E000C4F2020399425DD0282357E0802141655E
:1026F0000120704740F26F43C4F2020399421BDC91
:1027000040F23F43C4F2020399422DDC40F21043F1
:10271000C4F20203994245D040F228433EE000BF94
:102720009F23C4F20203994228DC7023C4F20203FF
:10273000994237D0882331E040F29F43C4F202032C
:10274000994223DC40F27043C4F20203994229D03B
:1027500040F2884322E000BF4023C4F202039942C2
:1027600020D058231AE000BF40F24043C4F20203D5
:10277000994217D040F2584310E000BFA023C4F2A2
:10278000020399420ED0B82308E000BF40F2B843DC
:10279000C4F20203994205D040F2A043C4F20203FE
:1027A000994275D191424FF0040280F8352011DC36
:1027B0006F20C4F20200814222DC3F20C4F20200FA
:1027C000814239DC1020C4F20200814259D0282015
:1027D00054E000BF40F26F40C4F2020081421BDCB3
:1027E00040F23F40C4F2020081422DDC40F2104032
:1027F000C4F20200814244D040F228403EE000BFD3
:102800009F20C4F20200814228DC7020C4F2020042
:10281000814236D0882031E040F29F40C4F202006D
:10282000814223DC40F27040C4F20200814228D091
:1028300040F2884022E000BF4020C4F20200814202
:102840001FD058201AE000BF40F24040C4F20200FE
:10285000814216D040F2584010E000BFA020C4F2E0
:10286000020081420DD0B82008E000BF40F2B8401D
:10287000C4F20200814204D040F2A040C4F202003F
:102880008142086820F001000860002080BD00BF80
:102890000A6822F00E020A6045F25742C5F60202AB
:1028A00091420A6822F001020A600FDC45F22F42D1
:1028B000C5F60202914219DC45F20842C5F6020251
:1028C000914229D045F21C4222E000BF45F27F42EE
:1028D000C5F60202914213DC45F25842C5F60202E7
:1028E000914219D045F26C4212E000BF45F23042ED
:1028F000C5F6020291420FD045F2444208E000BF03
:1029000045F29442C5F60202914205D045F280425A
:10291000C5F6020291421AD1D0E9181CD0E916E39B
:102920000A6822F480720A6003F01F01012202FA91
:1029300001F1CEF80410816ECCF80410C16E31B1F3
:102940000A6822F480720A60D0E91C124A600121F0
:1029500080F83510016D0022002980F8342094D0D1
:102960008847002080BD00002DE9F04782B000219B
:10297000019140F2100148F2B513C2F20041C1F6D4
:102980004E33856D40F26F490A680168C4F202094E
:102990002E68A2FB032849452A6815DC9F22C4F251
:1029A000020291422CDC5722C4F20202914251DC15
:1029B0001022C4F2020291427BD02822C4F2020209
:1029C000914276D040226FE045F22F43C5F60203D4
:1029D000994229DC40F2B743C4F20203994245DC34
:1029E00040F27042C4F20202914262D040F2884248
:1029F000C4F2020291425CD040F2A04254E000BF17
:102A000040F22742C4F2020291423FDCA022C4F20B
:102A1000020291424DD0B822C4F20202914248D043
:102A200040F2104240E000BF45F26B43C5F602039E
:102A3000994275DC45F23043C5F60203994200F035
:102A4000828045F24443C5F6020399427BD045F2A9
:102A5000584373E05822C4F20202914229D07022F6
:102A6000C4F20202914224D088221DE040F2B84311
:102A7000C4F2020399421CD045F20843C5F6020392
:102A8000994260D045F21C4358E000BF40F2284212
:102A9000C4F2020291420CD040F24042C4F202025F
:102AA000914206D040F25842C4F20202914240F0F4
:102AB0005383C26D082302F01F0240F20F4A934075
:102AC000C4F2020A334200F0DE8051454FF00404A4
:102AD00012DC6F27C4F20207B9426DDC3F27C4F253
:102AE0000207B94200F39C801027C4F20207B942E2
:102AF00000F0BD802827B5E0494569DC40F23F473A
:102B0000C4F20207B94200F3938040F21047C4F2C6
:102B10000207B94200F0AB8040F22847A2E000BFB4
:102B200045F26C43C5F6020399420CD045F280434E
:102B3000C5F60203994206D045F29443C5F6020356
:102B4000994240F009830B68C76D07F01F07042600
:102B5000BE40164218BF13F0040423D10226BE4023
:102B6000164218BF13F0020442D1FA40120740F196
:102B7000F38213F0080200F0EF820A6822F00E02DE
:102B80000A60012101FA07F26A60416580F8351098
:102B9000C16C00294FF0000280F8342040F0D88248
:102BA000DAE200BF1A046E6034D49A0636D40A689A
:102BB00022F004020A6031E09F27C4F20207B94202
:102BC00040DC7027C4F20207B94250D0882749E0A0
:102BD00040F29F47C4F20207B9423BDC40F2704723
:102BE000C4F20207B94242D040F288473AE000BF3F
:102BF0001A046E6000F1B4829A0600F1B5820A6888
:102C000022F00A020A60012180F83510002180F8C4
:102C10003410A9E2D90301D4816C98E2016C96E2E8
:102C20004027C4F20207B94221D058271AE000BF5A
:102C300040F24047C4F20207B94218D040F2584768
:102C400010E000BFA027C4F20207B9420FD0B82796
:102C500008E000BF40F2A047C4F20207B94206D024
:102C600040F2B847C4F20207B94218BF08240F68FF
:102C7000274208D00F6827F004070F60AB60436D50
:102C800043F0010343650123934033426FD0514524
:102C900010DC6F27C4F20207B9421DDC3F27C4F2E3
:102CA0000207B94234DC1027C4F20207B94256D0F9
:102CB00028274FE049451BDC40F23F47C4F202079A
:102CC000B9422DDC40F21047C4F20207B94246D0A7
:102CD00040F228473EE000BF9F27C4F20207B942F6
:102CE00028DC7027C4F20207B94238D0882731E0C7
:102CF00040F29F47C4F20207B94223DC40F270471A
:102D0000C4F20207B9422AD040F2884722E000BF4D
:102D10004027C4F20207B94221D058271AE000BF69
:102D200040F24047C4F20207B94218D040F2584777
:102D300010E000BFA027C4F20207B9420FD0B827A5
:102D400008E000BF40F2A047C4F20207B94206D033
:102D500040F2B847C4F20207B94240F007824F6917
:102D60003F0604D5AB60436D43F002034365042383
:102D7000934033426FD0514510DC6F27C4F20207F5
:102D8000B9421DDC3F27C4F20207B94234DC1027E8
:102D9000C4F20207B94256D028274FE049451BDC50
:102DA00040F23F47C4F20207B9422DDC40F210471F
:102DB000C4F20207B94246D040F228473EE000BFC5
:102DC0009F27C4F20207B94228DC7027C4F2020729
:102DD000B94238D0882731E040F29F47C4F2020759
:102DE000B94223DC40F27047C4F20207B9422AD04C
:102DF00040F2884722E000BF4027C4F20207B942F0
:102E000021D058271AE000BF40F24047C4F2020721
:102E1000B94218D040F2584710E000BFA027C4F2D2
:102E20000207B9420FD0B82708E000BF40F2A04720
:102E3000C4F20207B94206D040F2B847C4F2020712
:102E4000B94240F09B810F68BF0704D5AB60436D6A
:102E500043F004034365102303FA02F2324200F008
:102E6000828051454FF0080310DC6F27C4F202073F
:102E7000B9421DDC3F27C4F20207B94234DC1027F7
:102E8000C4F20207B94256D028274FE049451BDC5F
:102E900040F23F47C4F20207B9422DDC40F210472E
:102EA000C4F20207B94246D040F228473EE000BFD4
:102EB0009F27C4F20207B94228DC7027C4F2020738
:102EC000B94238D0882731E040F29F47C4F2020768
:102ED000B94223DC40F27047C4F20207B9422AD05B
:102EE00040F2884722E000BF4027C4F20207B942FF
:102EF00021D058271AE000BF40F24047C4F2020731
:102F0000B94218D040F2584710E000BFA027C4F2E1
:102F10000207B9420FD0B82708E000BF40F2A0472F
:102F2000C4F20207B94206D040F2B847C4F2020721
:102F3000B94218BF04230F681F4214D0AA600A6860
:102F400052030A6808D4D20508D40A6822F008029D
:102F50000A60016C21B906E0110351D4016C11B172
:102F6000044688472046C16D01F01F02202101FA66
:102F700002F3334200F0AF8001681027514511DCA5
:102F80006F26C4F20206B1421EDC3F26C4F20206DE
:102F9000B14239DC1026C4F20206B1425BD02826C9
:102FA00054E000BF49451BDC40F23F46C4F2020634
:102FB000B14231DC40F21046C4F20206B1424AD0BE
:102FC00040F2284642E000BF9F26C4F20206B1420A
:102FD0002CDC7026C4F20206B1423CD0882635E0D3
:102FE00040F29F46C4F20206B14227DC40F270462E
:102FF000C4F20206B1422ED040F2884626E000BF5D
:10300000816C0029ACD1AEE74026C4F20206B14281
:1030100021D058261AE000BF40F24046C4F2020612
:10302000B14218D040F2584610E000BFA026C4F2CA
:103030000206B1420FD0B82608E000BF40F2A04619
:10304000C4F20206B14206D040F2B846C4F202060B
:10305000B14218BF02270E683E423CD0AB6090F8E8
:103060003530042B0B681DD123F016030B604B6920
:1030700023F080034B61036C0BB9836C1BB10B68AD
:1030800023F008030B603F219140A960012180F8E3
:103090003510016D00294FF0000280F8342057D11F
:1030A0005AE000BF5A030A680CD4D2050ED40A684D
:1030B00022F010020A60012180F83510002180F80A
:1030C000341003E0110301D4416C00E0C16B11B175
:1030D000044688472046416D00293DD0416DC9070F
:1030E00034D0042180F8351001684FEA98220B682B
:1030F00023F001030B60019B0133019393421AD823
:103100000B68DB0717D0019B01330193934212D860
:103110000B68DB070FD0019B0133019393420AD860
:103120000B68DB0707D0019B01330193934202D860
:103130000B68DB07DFD10968C9074FF0030108BF3F
:10314000012180F83510002180F83410C16C19B1CC
:1031500002B0BDE8F047084702B0BDE8F08700BF05
:10316000D90301D4416CF2E7C16BF0E70B6804238B
:10317000934033427FF4FFAD6DE600BF0B686AE613
:103180002DE9F041044600F00BFEFCB140F26F481F
:1031900005462068C4F2020840451BDC9F21C4F2AA
:1031A0000201884232DC5721C4F20201884259DC14
:1031B0001021C4F20201884200F083802821C4F269
:1031C0000201884200F07D80402175E00120BDE8C9
:1031D000F08100BF45F22F41C5F60201884229DC8B
:1031E00040F2B741C4F20201884247DC40F270412C
:1031F000C4F20201884264D040F28841C4F2020164
:1032000088425ED040F2A04156E000BF40F2274124
:10321000C4F20201884241DCA021C4F202018842CA
:103220004FD0B821C4F2020188424AD040F2104186
:1032300042E000BF45F26B41C5F60201884200F34F
:10324000B38045F23041C5F60201884200F0BF80EC
:1032500045F24441C5F60201884200F0B88045F2CB
:103260005841AFE05821C4F20201884229D07021B0
:10327000C4F20201884224D088211DE040F2B84106
:10328000C4F2020188421CD045F20841C5F6020191
:10329000884200F09C8045F21C4193E040F22841B6
:1032A000C4F2020188420CD040F24041C4F2020153
:1032B000884206D040F25841C4F20201884240F0F0
:1032C0001B81022184F83510002184F83410016834
:1032D00021F00101016000BF20680168C9070DD01D
:1032E00000F05EFD401B0628F6D320206065032019
:1032F00084F835000120BDE8F08100BF48F23F02AC
:1033000004F108060168CFF61062114065694CCEE1
:103310001143A2691943E3693143266A0D43616A87
:103320002B43042943EA060343EA020303D1D4E909
:103330000B652E43334341F20006C5F6004636685E
:10334000B6F1005F0FD36568A5F129061F2E00F2C4
:1033500035820127B7403F26CCF2C036374200F015
:103360002D8243F4801303600429436923F007038B
:1033700041EA030140F0DC80D4E90A53002B41EA22
:10338000050100F0D580B2F5005F00F0B780002A9B
:1033900040F0C080022D00F0C080012D00F0B4800C
:1033A000002D00F0BA80C3E045F26C41C5F6020181
:1033B00088420CD045F28041C5F60201884206D011
:1033C00045F29441C5F60201884240F0958004F12F
:1033D000080E022184F83510002184F834100168A9
:1033E000A3699EE80450A2F18005E769B5FA85F566
:1033F00066696D09402A4FEA853543EA07026FF393
:10340000101142EA060208BF102541EADC0142EA37
:103410000E02236A294341EAD20141EA131140F81E
:103420000819C0B2CD2148433C2101EA9020E06553
:103430002046FEF775F8E16D012201F01F0102FA46
:1034400001F141602068404500F381809F21C4F272
:103450000201884214DC5721C4F20201884227DCB1
:103460001021C4F20201884200F0C7802821C4F272
:103470000201884200F0C1804021C4F20201B9E09B
:1034800040F22741C4F20201884221DCA021C4F2AB
:103490000201884200F0B180B821C4F202018842E2
:1034A00000F0AB8040F21041C4F20201A2E000BF84
:1034B0005821C4F20201884200F09F807021C4F2BA
:1034C0000201884200F099808821C4F2020191E053
:1034D00040F22841C4F20201884200F08E8040F29E
:1034E0004041C4F20201884200F0878040F2584116
:1034F000C4F202017EE000BF4020F7E6032D17D89A
:10350000DFE805F00E0B0E02A3F1C072B2FA82F2F0
:10351000520904E0032D03D30AD1C3F300623AB188
:1035200040206065012084F83500BDE8F08100BFCF
:1035300041612046FDF7F4FFE16D3F2201F01F01DC
:1035400002FA01F18160206840457FF77FAF45F2C4
:103550002F41C5F60201884216DC40F2B741C4F2A1
:103560000201884226DC40F27041C4F20201884226
:1035700043D040F28841C4F2020188423DD040F27B
:10358000A041C4F2020135E045F26B41C5F60201EB
:1035900088421FDC45F23041C5F6020188422CD03A
:1035A00045F24441C5F60201884226D045F2584111
:1035B0001EE000BF40F2B841C4F2020188421CD0B4
:1035C00045F20841C5F60201884216D045F21C4179
:1035D0000EE000BF45F26C41C5F6020188420CD0F6
:1035E00045F29441C5F60201884206D045F2804179
:1035F000C5F60201884240F0D98045F2574C45F6A5
:10360000FC0EC5F6020CC5F6020E60450EDC45F256
:103610002F41C5F60201884218DC45F20841C5F683
:103620000201884228D045F21C4121E045F27F4149
:10363000C5F60201884213DC45F25841C5F6020185
:10364000884219D045F26C4112E000BF45F230418A
:10365000C5F6020188420FD045F2444108E000BFA0
:1036600045F29441C5F60201884205D045F28041F9
:10367000C5F60201884247D100F0FC014CF6CD426C
:103680000839CCF6CC42A1FB0212AEF1FC05AEF13A
:103690007C061309A26803F01F01802A4FF0010283
:1036A00005EB8305256602FA01F26666A26605D17E
:1036B00000206060286072601EE000BF6368D9B2BD
:1036C0005F1E072F2960726016D84E1E082E19D271
:1036D00060450EF1440237DC45F22F41C5F6020188
:1036E000884241DC45F20841C5F60201884251D0CA
:1036F00045F21C414AE000BF00206067C4E91B009E
:1037000054E000BFE06E4CE000F0F8014AF6AB2256
:103710001039CAF6AA22A1FB021240F20F43C4F2EA
:10372000020308251109984203F1AA060B4688BF37
:1037300005EB121340F60005B042C4F2020505F194
:10374000800628BF0B46A5E745F27F41C5F602017A
:10375000884213DC45F25841C5F60201884219D06F
:1037600045F26C4112E000BF45F23041C5F602015E
:1037700088420FD045F2444108E000BF45F2804145
:10378000C5F60201884205D045F29441C5F6020112
:1037900088421BD10EEB83000121E066B140226715
:1037A000616700210160D4E91C014160002060656F
:1037B000012184F83510BDE8F08100BFA5F14F0765
:1037C000042F38BF43F48013CDE500BF40F600005E
:1037D000C4F2020000F1FC0E00F5A072DAE700006E
:1037E00030B110B590F83440012C03D1022010BD47
:1037F00001207047012480F8344090F83540012CB6
:103800002CD1022480F8354000244465D0F800C053
:10381000DCF8004024F00104CCF800400446FDF739
:1038200013FF40F20F4C2068C4F2020C40F26F41CB
:103830006045C4F2020119DC6F23C4F2020398420E
:1038400026DC3F23C4F2020398423DDC1023C4F27D
:10385000020398425FD0282358E000BF4FF4006174
:103860004165002180F83410012010BD88421BDC26
:1038700040F23F43C4F2020398422DDC40F2104371
:10388000C4F20203984246D040F228433EE000BF13
:103890009F23C4F20203984228DC7023C4F202037F
:1038A000984238D0882331E040F29F43C4F20203AB
:1038B000984223DC40F27043C4F2020398422AD0BB
:1038C00040F2884322E000BF4023C4F20203984242
:1038D00021D058231AE000BF40F24043C4F2020353
:1038E000984218D040F2584310E000BFA023C4F221
:1038F000020398420FD0B82308E000BF40F2B8435B
:10390000C4F20203984206D040F2A043C4F202037C
:10391000984240F02F8103680B2262F34403036056
:10392000226C1AB1082302681A430260884219DC2B
:103930009F22C4F20202904232DC5722C4F20202F9
:10394000904259DC1022C4F20202904200F09680AC
:103950002822C4F20202904200F090804022C4F279
:10396000020289E045F22F42C5F6020290422DDCA8
:1039700040F2B742C4F2020290424BDC40F2704285
:10398000C4F20202904279D040F28842C4F20202AC
:10399000904273D040F2A042C4F202026CE000BF39
:1039A00040F22742C4F20202904243DCA022C4F259
:1039B0000202904262D0B822C4F2020290425DD06C
:1039C00040F21042C4F2020256E000BF45F26B42E0
:1039D000C5F6020290423FDC45F23042C5F60202D3
:1039E00090424BD045F24442C5F60202904245D087
:1039F00045F258423EE000BF5822C4F20202904213
:103A00003CD07022C4F20202904237D08822C4F225
:103A1000020231E040F2B842C4F2020290422DD0DC
:103A200045F20842C5F60202904227D045F21C42F8
:103A300020E000BF40F22842C4F2020290421DD0B2
:103A400040F24042C4F20202904217D040F2584283
:103A5000C4F2020210E000BF45F26C42C5F6020259
:103A600090420BD045F29442C5F60202904205D036
:103A700045F28042C5F60202904274D1236E1A6864
:103A8000D20303D51A6842F480721A60E36E1BB148
:103A90001A6842F480721A60604511DC6F21C4F22A
:103AA000020188421EDC3F21C4F20201884235DC5B
:103AB0001021C4F20201884255D0282150E000BFF5
:103AC00088421BDC40F23F41C4F2020188422DDCF7
:103AD00040F21041C4F20201884244D040F2284131
:103AE0003EE000BF9F21C4F20201884228DC702121
:103AF000C4F20201884236D0882131E040F29F4171
:103B0000C4F20201884223DC40F27041C4F2020197
:103B1000884228D040F2884122E000BF4021C4F210
:103B2000020188421FD058211AE000BF40F24041F4
:103B3000C4F20201884216D040F2584110E000BFA2
:103B4000A021C4F2020188420DD0B82108E000BFD4
:103B500040F2B841C4F20201884204D040F2A041D0
:103B6000C4F202018842016841F0010101600020B5
:103B700010BD00BF0268052363F343020260226C9C
:103B8000002A3FF4D3AE0423CDE60000000000007D
:103B9000B0B5044600F004F940F208010546C2F24F
:103BA0000041621C097818BF0C4400BF00F0F8F80F
:103BB000401BA042FAD3B0BD2DE9F04F83B00F688F
:103BC000002F00F0C98000F1264642F2004506F1C0
:103BD000FF76C5F602050A22A8424FEAB62540F252
:103BE000040C08BF092200F120030093092DC5F63B
:103BF000000C38BF4FEAB622002400264FF0000820
:103C000001920AE008F101080F6837FA08F206F19C
:103C1000020604F1040400F09F80012202FA08FE6B
:103C200017EA0E09EED0D1F804B003220BF0030717
:103C3000B2407D1E6FEA020A012D11D88268CD685C
:103C400002EA0A02B5402A438260CBF300154268BB
:103C500022EA0E0205FA08F52A43426004E000BF9A
:103C6000032F01D103271FE0C2688D6802EA0A0210
:103C7000B540022F42EA0502C26015D16FF003027F
:103C800004F01C0502EA580B009A0F2352F80BE0CF
:103C9000AB400F692EEA0303AF403B4342F80B30C1
:103CA000D1F804B00BF00307026807FA06F302EA42
:103CB0000A021BF4403F42EA03020260A2D044F22F
:103CC000F44340F2084EC5F60203C5F6000E0F2578
:103CD0001A6842F002021A601A6802F002020292A6
:103CE00028F00302029B04F00C0352F80E709D4072
:103CF000AF43019D05FA03F33B4342F80E304FF00A
:103D0000B04EDEF800204B6842EA0907DD0258BFDA
:103D100022EA09079D02CEF80070DCF8002042EA92
:103D2000090758BF22EA09079D03CCF80070DCF8A8
:103D3000802042EA090758BF22EA0907DB03CCF8D2
:103D40008070DCF87C2042EA090758BF22EA0907A4
:103D5000CCF87C7056E700BF03B0BDE8F08F0000E0
:103D60000069084018BF01207047000000000000F3
:103D7000426902EA0103914341EA034181617047CC
:103D8000002A08BF0904816170470000000000009C
:103D900041F20000C5F600400068000C70470000CA
:103DA00047F21060C2F20040006870470000000057
:103DB00040F2080047F21061C2F20040C2F2004136
:103DC00000780A6810440860704700000000000096
:103DD00080B5032000F004FB01F0DEFB44F2184143
:103DE0004CF20C43C5F60201C9F201030A68C2F3A2
:103DF00003229A5C096801F00F0102F01F02595C6E
:103E0000D04040F21402C2F2004201F01F0120FA39
:103E100001F1116040F21001C2F2004108600F2070
:103E200000F00AF800281CBF012080BD00F07CFAD9
:103E3000002080BD000000000F2843D8B0B58AB034
:103E40000446762000222146002500F099FA7620CB
:103E500000F082FA40F20C00C2F20040046044F22A
:103E6000F040C5F60200016841F48021016000685D
:103E700001A900F480200290029802A801F0D8FA6B
:103E800001F05AFB4DF683614000C4F21B3144F649
:103E90000002A0FB010140F66420C2F200404FF096
:103EA000FF33C4F20102026003EB9141C0E9011546
:103EB00040F2E731C0E9031502F02AF820B10120F1
:103EC0000AB0B0BD0120704740F66420C2F2004045
:103ED00002F0CAF80AB0B0BD90F8A030012B4FF044
:103EE000020331D02DE9F04134244FF0010880F86D
:103EF000A08080F8A13002FB0403D1E900CED1E913
:103F00000267D1E90445C3E91245C3E91067C3E973
:103F10000ECED1E906CED1E90854D1E90A76C3E93B
:103F20001876C3E91654C3E914CE0F6B9F66044696
:103F300003F05AF820680023C0F8248084F8A18098
:103F400084F8A030BDE8F04118467047000000003A
:103F5000704700000000000070B504460068866BE2
:103F6000456B710716D515F0040113D0416B21F094
:103F7000040141630421C163D4F8A40040F00100AE
:103F8000C4F8A40084F8A110002084F8A000204602
:103F9000FFF7DEFFB00718D515F0020015D0206836
:103FA000416B21F0020141630221C163D4F8A400F6
:103FB00040F00200C4F8A400042084F8A10000200E
:103FC00084F8A0002046FFF7C3FFF00718BF15F0E4
:103FD000010017D1300726D515F0080008BF70BDC5
:103FE0002068416B21F0080141630821C163012071
:103FF00084F8A100002084F8A0002046BDE87040AD
:1040000000F03EB92068416B21F0010141630121BC
:10401000C16384F8A110002084F8A000204600F0BD
:1040200077F83007D8D470BD00286DD010B590F85F
:10403000A11031B9002180F8A010044600F070F8FA
:104040002046022180F8A110D0E9001CD0E90234FA
:104050008A6922F070428A6143EA0C0203692243B2
:104060001A438B691A438A614FF600038A68CFF2BC
:1040700000031A408A60D0E9052444EA02428C68B1
:1040800022438A60CA681A40CA60D0E9072444EA19
:104090000242CC682243CA600A691A400A61D0E928
:1040A000092444EA02420C6922430A614A691A401F
:1040B0004A61D0E90B2343EA02424B691A434A6141
:1040C00090F8352090F83630CC6A04F07F44CC620A
:1040D0001B0490F8344043EA0222CB6A22441A437C
:1040E000CA624A6B42F006024A638A6942F00102E0
:1040F0008A610021C0F8A410012280F8A120BDE847
:1041000010400846704700BF0120704700000000C3
:1041100002680021536A43F00103536200F090B833
:104120002DE9F043B7B0044602A80830B8210025B5
:104130003295CDE93555CDE93355FCF72CF941F2EF
:1041400000012068C5F20001884203D037B0BDE805
:10415000F08300BF4FF00050029019200C904FF4F4
:10416000A5700D900A20109002A803954FF0020848
:104170001295CDE90E8800F0A7FA08B1FDF7ECFB27
:1041800044F2E04042F20004C5F60200C5F6020423
:1041900032AD4FF000094168032641F0080141604B
:1041A00041680E2701F0080101910199016841F46D
:1041B00080610160016801F48061019101990168E9
:1041C00041F400710160016801F4007101910199ED
:1041D000016841F4807101600068294600F4807034
:1041E00001900198FF20CDE9320804F50060CDF878
:1041F000D09035963697FFF7DFFC32A94FF6FF7067
:10420000CDE9356781E8010304F580602946FFF7B1
:10421000D3FC32A94FF47040CDE9356781E8010342
:1042200020462946FFF7C8FC58200521002200F04F
:10423000A7F8582000F090F837B0BDE8F0830000F0
:1042400090F8A020012A4FF0020215D080F8A1209A
:104250000268536B23F00103536341F24003C5F23C
:1042600000031960516B41F00101516300220121EB
:1042700080F8A11080F8A0201046704700000000D0
:104280007047000000000000B0B502784EF69C5C5C
:10429000CEF2000C43784CF8043CFAB14368CCF8F9
:1042A0000030037BC17A90F80AE0457B447A42EA09
:1042B0000372837B42EA0161C27B41EACE41007A0C
:1042C00041EA854141EA434141EA024141EA042190
:1042D00041EA4000CCF80400B0BD00BF0020CCF89B
:1042E0000000CCF80400B0BD4EF62450CEF2000021
:1042F000BFF35F8F016821F4803101600021016705
:1043000070470000000000004EF6245140F001000C
:10431000CEF200010867086840F480300860BFF3FF
:104320004F8FBFF36F8F704781B044F2F44000228B
:10433000C5F60200016841F00201016000680F212A
:1043400000F0020000906FF00100009B01B000F04F
:1043500017B8000000000000002848BF704700F0B8
:104360001F01012202FA01F14EF20012C0F34A10BD
:10437000CEF2000242F8201070470000000000005A
:1043800070B54EF60C5C4FF0FF36CEF2000C00F12B
:10439000604505F56445DCF80030C3F3022E8EF06D
:1043A0000703042B28BF0423BEF1030406FA03F31A
:1043B00021EA030100F00F0338BF0024043B00286A
:1043C000634406FA04F048BF03F10C05A14022EA59
:1043D000000008430001287070BD000000000000CC
:1043E0004EF60C514FF6FF03CEF200010A681A4058
:1043F00060F30A2242F0806040F0FD700860704770
:10440000B0B544F60C05C5F60205296849072968C8
:1044100006D401F00701081A18BF0120B0BD00BF83
:1044200021F0070108432860FFF7BAFC044600BFEB
:1044300055F8080C800407D4FFF7B2FC001BB0F558
:104440007A7FF5D90120B0BD0020B0BD000000008A
:1044500080B501F019F844F220414CF20C42C5F647
:104460000201C9F201020968C1F30211515C01F0B5
:104470001F01C84080BD000080B544F2384EC5F62B
:10448000020E5EF8103C5EF8101C5EF80C2CC1F3B6
:10449000053CDEF80410BCF1000F19D0C9089FEDEF
:1044A0003C1AD20601EAE27103F003026FF35F31B6
:1044B00000EE101AB8EE400ADFE802F002221022E5
:1044C0005EF8381C89060DD49FED331A18E000BF42
:1044D00000218160C0E9001180BD00BF9FED2D1A51
:1044E0000EE000BF5EF8381C49F20002C0F2D03284
:1044F000C1F3C10122FA01F101EE101AB8EE411A1E
:10450000DEF800109FED253A6FF35F2102EE101ADE
:10451000DEF80010C1F34621B8EE422A013100EE68
:10452000032A00EE10CAB7EE003AB8EE400A81EE58
:10453000000A32EE031A20EE010A01EE101AB8EE5C
:10454000411A80EE011ABCEEC11A80ED001ADEF8A5
:104550000010C1F30641013101EE101AB8EE411A04
:1045600080EE011ABCEEC11A80ED011ADEF80010CF
:10457000C1F30661013101EE101AB8EE411A80EE66
:10458000010ABCEEC00A10EE101A816080BD00BFA7
:104590000024744A20BCBE4B0024744C0000003937
:1045A00080B544F2404EC5F6020E5EF8183C5EF847
:1045B000181C5EF8142CC1F3055CDEF80410BCF185
:1045C000000F19D0C9089FED3C1AD20501EAE2712B
:1045D00003F003026FF35F3100EE101AB8EE400AE9
:1045E000DFE802F0022210225EF8401C89060DD49A
:1045F0009FED331A18E000BF00218160C0E900116F
:1046000080BD00BF9FED2D1A0EE000BF5EF8401C7C
:1046100049F20002C0F2D032C1F3C10122FA01F125
:1046200001EE101AB8EE411ADEF800109FED253A9F
:104630006FF35F2102EE101ADEF80010C1F346217D
:10464000B8EE422A013100EE032A00EE10CAB7EE9E
:10465000003AB8EE400A81EE000A32EE031A20EE6C
:10466000010A01EE101AB8EE411A80EE011ABCEEF2
:10467000C11A80ED001ADEF80010C1F306410131C5
:1046800001EE101AB8EE411A80EE011ABCEEC11A02
:1046900080ED011ADEF80010C1F30661013101EE70
:1046A000101AB8EE411A80EE010ABCEEC00A10EEF4
:1046B000101A816080BD00BF0024744A20BCBE4B2C
:1046C0000024744C000000392DE9F0470446C078FE
:1046D00044F22C480007C5F6020828D5A06E4FEA20
:1046E000305103292AD8DFE801F0030B131B00BF68
:1046F000D8F8001041F40031C8F8001010E000BFF5
:1047000004F10800022102F033FE064680B906E0FB
:1047100004F12800022102F0BFFE064640B9A06E57
:10472000D8F8241021F440110843C8F824000026CA
:104730006078C00706D135462FE000BF01266078BB
:10474000C007F8D0A06D042858D83546DFE800F03F
:1047500004140E0B0B0000BFD8F80000354640F4DF
:104760000030C8F800002F46C5B90DE004F128005C
:10477000002102F091FE04E004F10800002102F0A3
:10478000F7FD05462F464DB9D8F82400A16D20F05D
:10479000070000250843C8F82400374660788007E2
:1047A00031D5E06D4FEAB01004285FD8DFE800F0A3
:1047B00004140E0A0A0000BFD8F8000040F40030CC
:1047C000C8F800002E46FDB90EE000BF04F1280035
:1047D000002102F061FE04E004F10800002102F073
:1047E000C7FD05462E467DB9D8F82400E16D20F4BA
:1047F000E07000250843C8F8240004E001250127E3
:1048000060788007CDD43E466078400733D5D4F831
:10481000A8004FEA7050042860D8DFE800F00313C6
:104820000D090900D8F8000040F40030C8F8000075
:10483000A9460DBB0EE000BF04F12800002102F0E4
:104840002BFE04E004F10800002102F091FD054672
:10485000A9468DB9D8F82C00D4F8A81020F460002F
:1048600000250843C8F82C0005E000BF01250126FB
:1048700060784007CBD4B1466078000734D5D4F8CF
:10488000AC004FEA306004285ED8DFE800F0031384
:104890000D090900D8F8000040F40030C8F8000005
:1048A0002F4615BB0EE000BF04F12800002102F0E6
:1048B000F3FD04E004F10800002102F059FD054673
:1048C0002F4695B9D8F82C00D4F8AC1020F0E06051
:1048D00000250843C8F82C0006E000BF01254FF072
:1048E000010960780007CAD44F46E078800730D5C8
:1048F000E06C4FEA3010032820D8DFE800F009030D
:10490000150900BFD8F8000040F40030C8F80000D6
:104910002E46ADB9D8F82000E16C20F0300000251B
:104920000843C8F8200014E004F10800022102F056
:104930001FFD05462E461DB9ECE700BF01250126E7
:104940006078C00609D434E001250127E0788007AB
:10495000CED43E466078C0062BD5206E4FEA30306C
:10496000042839D8DFE800F004140E0A0A0000BF5A
:10497000D8F8000040F40030C8F800002F46CDB948
:104980000EE000BF04F12800002102F085FD04E0E4
:1049900004F10800002102F0EBFC05462F464DB95A
:1049A000D8F82400216E20F4E04000250843C8F820
:1049B000240037466078800635D5606E4FEA304077
:1049C000052815D8DFE800F0041A0E04040400BF1F
:1049D0002E46DDB91EE000BF012501276078800664
:1049E000EBD420E004F12800012102F055FD0AE09B
:1049F000012501266078400619D449E004F1080039
:104A0000012102F0B5FC05462E461DB16078400636
:104A10000DD43DE0D8F82400616E20F4E02000259C
:104A20000843C8F824003E466078400630D5D4F8E4
:104A3000B0004FEA307005280ED8DFE800F003130D
:104A4000070303032F46ADB918E000BF04F12800A7
:104A5000012102F021FD0AE001250127607800060E
:104A60001AD43CE004F10800012102F081FC054663
:104A70002F461DB1607800060ED430E0D8F82C0027
:104A8000D4F8B01020F0E04000250843C8F82C000E
:104A900037466078000622D5206F58B1B0F1005F2C
:104AA0000CD0B0F1805F37D1D8F8000040F400306E
:104AB000C8F800002E469DB908E000BF04F10800C8
:104AC000012102F055FC05462E464DB9D8F82400C8
:104AD000216F20F0405000250843C8F824003E46CE
:104AE000E078C0071DD0A06C032855D8DFE800F09F
:104AF00008024A08D8F8000040F40030C8F8000066
:104B0000A9467DB9D8F82000A16C20F0030000254B
:104B10000843C8F8200004E001250126E078C0071A
:104B2000E1D1B146A078400602D44F4618E000BF5C
:104B3000D8F8D40340F48070C8F8D403FFF730F9F4
:104B4000064600BFD8F8D403C00507D4FFF728F9FC
:104B5000801B6428F6D90325032701E02F46FDB109
:104B60002078C00700F06F80E06F4FEAF000052862
:104B70004ED8DFE800F0035347030303002D2E4611
:104B800054D157E004F10800022102F0F1FB054680
:104B9000002DA946C6D1B5E701254FF00109C1E7AF
:104BA000D8F84410D4F8B400414011F4407F11D03B
:104BB000D8F84410D8F8442042F48032C8F8442091
:104BC000D8F8442021F4407122F48032C8F84420FF
:104BD000C8F84410B0F5807F40F0E082FFF7E0F8BD
:104BE000064641F2883A0325032700BFD8F844005F
:104BF000800700F1D182FFF7D3F8801B5045F5D92B
:104C0000AEE700BF04F12800012102F045FC0AE0F4
:104C1000012501262078800719D446E004F1080018
:104C2000012102F0A5FB05462E461DB12078800724
:104C30000DD43AE0D8F82800E16F20F038000025C4
:104C40000843C8F828003E46207880072DD5A06F7D
:104C500005280FD8DFE800F004140804040400BF9E
:104C60002F46ADB918E000BF04F12800012102F081
:104C700013FC0AE0012501272078400719D447E0FA
:104C800004F10800012102F073FB05462F461DB117
:104C9000207840070DD43BE0D8F82800A16F20F021
:104CA000070000250843C8F8280037462078400749
:104CB0002ED5D4F8940005280ED8DFE800F00313B1
:104CC000070303032E46ADB918E000BF04F1280026
:104CD000012102F0E1FB0AE001250126207880068F
:104CE0001AD44BE004F10800012102F041FB054613
:104CF0002E461DB1207880060ED43FE0D8F82C0057
:104D0000D4F8941020F0070000250843C8F82C00C0
:104D10003E462078800631D5D4F890004FEA3070B6
:104D200005280FD8DFE800F004140804040400BFCD
:104D30002F46ADB918E000BF04F12800022102F0AF
:104D4000ABFB0AE001250127207840061AD44BE08E
:104D500004F10800002102F00BFB05462F461DB1AF
:104D6000207840060ED43FE0D8F82800D4F8901000
:104D700020F0E04000250843C8F828003746207896
:104D8000400631D5D4F89C004FEAB02005280FD852
:104D9000DFE800F004140804040400BF2E46ADB997
:104DA00018E000BF04F12800022102F075FB0AE0C0
:104DB00001250126207800061AD44EE004F10800EF
:104DC000002102F0D5FA05462E461DB120780006D6
:104DD0000ED442E0D8F82C00D4F89C1020F4E05017
:104DE00000250843C8F82C003E462078000634D53C
:104DF000D4F8A0004FEA7030052815D8DFE800F09D
:104E0000041A0E04040400BF2F46E5B12068010710
:104E100027D4C1063ED4000355D477E004F128001E
:104E2000022102F039FB0AE0012501272068010771
:104E3000EFD516E004F10800002102F099FA0546CA
:104E4000002D2F46E2D1D8F82C00D4F8A01020F481
:104E5000604000250843C8F82C0037462068010749
:104E6000D7D5D4F88400B0F5805F09D104F12800CB
:104E7000022102F011FB002818BF0127D4F884009A
:104E8000D8F8281021F440510843C8F828002068B9
:104E9000C106C0D5D4F89800B0F5807F09D104F1DF
:104EA0002800022102F0F8FA002818BF0127D4F8E0
:104EB0009800D8F82C1021F440710843C8F82C0051
:104EC0002068000322D5D4F8A400B0F5003F11D02B
:104ED000B0F5803F08D0002844D104F1080000213B
:104EE00002F046FA05E000BF04F12800022102F0BA
:104EF000D3FA05462E4655B9D8F82C00D4F8A4109C
:104F000020F4403000250843C8F82C003E46A07825
:104F100040072CD5D4F88800B0F5401F0BD0B0F571
:104F2000001F0BD0B0F5801F2AD1D8F8000040F444
:104F30000030C8F800002F46D5B907E004F128007A
:104F4000012102F0A9FA05462F468DB9D8F82800AC
:104F5000D4F8881020F4401000250843C8F8280031
:104F600005E000BF01250126A0784007D2D43746CE
:104F7000A078C00709D13E462168880015D532E0E7
:104F800001250127A078C007F5D0206DB0F5803F3E
:104F900010D018BBD8F8000040F40030C8F800006A
:104FA0002E4685B1216888001DD460688A0326D406
:104FB00069E000BF04F10800022102F0D9F90546BA
:104FC000002D2E46EED1D8F82000216D20F480303F
:104FD00000250843C8F82000CDE700BF01250126C1
:104FE00021688800E1D504F12800022102F054FA7A
:104FF000002818BF0126D4E900108A0343D5D4F84D
:1050000080206FF0010303EB3223022B0BD34FEA16
:10501000322343B1012B40F0B980D8F8003043F47B
:105020000033C8F800303DB3CA022FD4CA0037D4C9
:105030008A0240D44A0048D4CA0F55D109025DD42F
:10504000C10766D181076FD4410779D4010700F108
:105050008380C10600F18C80800607D504F128000A
:10506000022102F019FA002818BF0125002D18BFEF
:1050700001252846BDE8F087D8F8283023F440738E
:105080001A43C8F828203546CA02CFD5D8F82420BC
:10509000636F22F000421A43C8F82420CA00C7D523
:1050A00058F81C2CD4F8B83022F480421A4348F83F
:1050B0001C2C8A02BED5D8F82420E36E22F0807220
:1050C0001A43C8F824204A00B6D558F81C2C22F4FC
:1050D000004248F81C2CD4F8BC2058F81C3C1A4359
:1050E00048F81C2CCA0FA9D0D8F82020636D22F0F4
:1050F00040521A43C8F820200902A1D5D8F8281038
:10510000D4F88C2021F440011143C8F82810C107BD
:1051100098D004F10800002102F02AF9002818BFF5
:105120000546606881078FD504F10800012102F06F
:105130001FF9002818BF0546606841077FF586AF54
:1051400004F10800022102F013F9002818BF0546F7
:10515000606801077FF57DAF04F12800002102F0AF
:105160009BF9002818BF05466068C1067FF574AF3B
:1051700004F12800012102F08FF9002818BF05462C
:10518000606880063FF56AAF70E700BF0125CA027C
:105190007FF54CAF7AE700BFD4F8B4004FF6CF7379
:1051A00058F81C2CC0F2FF0300F4407122F47C522A
:1051B00003EA10136FF31F30B1F5407F08BF1A43A5
:1051C000002548F81C2CD8F844100843C8F84400BF
:1051D000FFF7ABBC000000002DE9F04381B00028D0
:1051E00000F0208142F200090446C5F20029D9F8F6
:1051F000000000F00F0081420DD9D9F8000020F026
:105200000F000843C9F80000D9F8000000F00F00B3
:10521000884240F00781206844F218464207C5F6EC
:1052200002060AD52269336803F070039A4204D952
:10523000336823F070031A43326002070AD56269AB
:10524000736803F070039A4204D9736823F0700303
:105250001A437260C2060AD5A269736803F4E06358
:105260009A4204D9736823F4E0631A437260820699
:105270000AD5E269B36803F070039A4204D9B368AF
:1052800023F070031A43B26010F002020AD0E36800
:10529000376807F00F07BB4204D9376827F00F07BC
:1052A0003B433360C3073FD0306820F47062D4E9D9
:1052B00001031A433260012856F8182C0AD003283B
:1052C00004D002280AD192030BD4ABE0920108D497
:1052D000A8E000BFD20504D4A4E000BF520740F10B
:1052E000A180884656F8081C21F00701084346F8BB
:1052F000080CFEF755FD054641F2883756F8080CB4
:10530000616800F03800B0EBC10F09D0FEF748FD2E
:10531000401BB842F2D9032001B0BDE8F08300BFC2
:105320002068414600F0020252B1E268336803F09F
:105330000F039A4204D2336823F00F031A433260FA
:10534000D9F8002002F00F0291420CD2D9F80020C7
:1053500022F00F020A43C9F80020D9F8002002F019
:105360000F028A425ED141070AD52169326802F0F4
:105370007002914204D2326822F07002114331600F
:1053800001070AD56169726802F07002914204D285
:10539000726822F0700211437160C1060AD5A169DA
:1053A000726802F4E062914204D2726822F4E06210
:1053B0001143716080060AD5E069B16801F070019F
:1053C000884204D2B16821F070010843B06000F057
:1053D000E3F831684CF20C42C9F20102C1F3032137
:1053E000515C336803F00F0301F01F01D25C20FA17
:1053F00001F102F01F0040F21402C2F2004221FA51
:1054000000F0106040F20C0040F21002C2F20040C6
:10541000C2F200420068116001B0BDE8F043FEF73F
:105420000BBD00BF012001B0BDE8F083000000000B
:105430003F22026044F21842C5F6020252F8083CCC
:1054400003F007034360136803F470638360136819
:1054500003F00F03C360136803F070030361536824
:1054600003F070034361536803F4E063836192685F
:1054700002F07002C26142F20000C5F20020006832
:1054800000F00F000860704780B500F085F844F226
:1054900018414CF20C43C5F60201C9F201030A6837
:1054A000C2F303229A5C096801F00F0102F01F02A7
:1054B000595C20FA02F201F01F0040F21401C2F21E
:1054C000004122FA00F0086040F21001C2F20041EF
:1054D0000A6080BD0000000080B500F05DF844F275
:1054E000184C4CF20C43C5F6020CC9F20103DCF86F
:1054F0000020C2F303229A5CDCF8001001F00F01D7
:1055000002F01F02595CD04040F21402C2F2004285
:1055100001F01F0120FA01F1116040F21002C2F205
:1055200000421060DCF80400C0F30210185C00F0C8
:105530001F0021FA00F080BD80B500F02DF844F284
:10554000184C4CF20C43C5F6020CC9F20103DCF80E
:105550000020C2F303229A5CDCF8001001F00F0176
:1055600002F01F02595CD04040F21402C2F2004225
:1055700001F01F0120FA01F1116040F21002C2F2A5
:1055800000421060DCF80400C0F30220185C00F058
:105590001F0021FA00F080BD44F20041C5F602016F
:1055A0000869C0F3C200032816D002280ED00028D4
:1055B00032D10868800649F20000C0F2D03058BFEE
:1055C00070470968C1F3C101C840704747F6400001
:1055D000C0F27D10704700BF8B6A886AD1F82CC07A
:1055E0004A6BC0F30510E8B1C2F3CC0203F0030329
:1055F00000EE102A9FED2A1AB8EE400A20EE010AAA
:105600009FED281ADFE803F0022110210A689206B4
:105610000ED49FED261A18E040F60010C0F23D00AF
:10562000704700BF002070479FED1F1A0DE000BFBC
:105630000A6849F20003C0F2D033C2F3C10223FA70
:1056400002F201EE102AB8EE411A0A6B9FED183AE9
:105650006FF35F2202EE102A5FEACC7203FE000AAB
:1056600003EE100A086BB8EE422AC0F34620B8EEEB
:10567000433A013030EE020AB7EE002A81EE031AF7
:1056800030EE020A21EE000A01EE100AB8EE411ACD
:1056900080EE010ABCEEC00A10EE100A704700BF8F
:1056A000000000390024744A20BCBE4B0024744C16
:1056B000000000000000000070B3F0B581B00446A7
:1056C000007844F20046C007C5F6020626D12078CD
:1056D000800740F1C280306910F03801B06A3FD0D5
:1056E000182908BF5FEA80703AD0E0683168002866
:1056F00062D021F0190108433060FEF751FB0546E6
:105700003068400748D4FEF74BFB401B0228F7D90E
:10571000032001B0F0BD00BF01207047306900F0E8
:105720003801B06A102905D018290BD100F0030008
:10573000022807D130688003C9D560680028C6D127
:105740003CE100BF6168306800294FD0B1F5A02F5F
:1057500044D0B1F5803F5FD140F4803062E000BFBB
:1057600030684007E06802D5002800F027813168E2
:1057700021F0190108433060FEF712FB054600BF17
:105780003068400708D4FEF70BFB401B02284FF09F
:105790000300F5D901B0F0BDFEF7FAFA41F20301BA
:1057A00088424FD820697168402821F47C3151D15A
:1057B00041F4003050E000BF21F001003060FEF7FE
:1057C000EFFA05463068400747D5FEF7E9FA401B77
:1057D00002284FF00300F5D9DCE700BF40F4802039
:1057E0003060306840F480301CE000BF20F480302E
:1057F0003060306820F480203060FEF7D1FA054632
:10580000306880037FF563AFFEF7CAFA401B642857
:105810004FF00300F4D9BDE720F4803030603068E9
:1058200020F480203060FEF7BBFA05463068800324
:105830003FF54DAFFEF7B4FA401B6428F6D90320BC
:1058400001B0F0BD7068216920F0FE4040EA0160BF
:1058500002E000BF41EA003070602078C00654D5F5
:10586000306900F03801B06A082905D0182919D12B
:1058700000F00300012815D13068C00503D5E069A8
:10588000802840F09B80FEF783FA41F203018842B2
:105890001ED8206A7168202821F0F84132D141F0E9
:1058A000804031E0E0690028306819D040F0800085
:1058B0003060FEF775FA05463068C005E3D4FEF7A0
:1058C0006FFA401B02284FF00300F5D962E700BFD2
:1058D000F068216A20F07C5040EA0160F06014E03A
:1058E00020F080003060FEF75BFA05463068C005A6
:1058F0000BD5FEF755FA401B02284FF00300F5D9EF
:1059000048E700BF41EA80607060207800073FD41C
:105910002078800656D42078400769D4656A9DB304
:10592000306900F03800182840F0A880012DB16AD5
:10593000306B43D001F00302A36A9A423ED1C1F317
:105940000511E26A914239D10146226B6FF35F2162
:10595000013A914232D1C0F34622616B01398A4249
:105960002CD1C0F30642A16B01398A4226D1C0F383
:105970000660E16B0139884220D1706BA16CC0F3E5
:10598000CC00814240F03481002001B0F0BD00BF66
:1059900060690028706F41D040F001007067FEF729
:1059A000FFF90546706F8007B2D4FEF7F9F9401B86
:1059B0000228F7D9032001B0F0BD00BF012001B0DB
:1059C000F0BD00BFA0690028306845D040F4805089
:1059D0003060FEF7E5F90546306880049BD4FEF799
:1059E000DFF9401B0228F7D9032001B0F0BD00BF4A
:1059F000D6F8000440F48070C6F80004FEF7D0F931
:105A0000054600BFD6F80004C00519D4FEF7C8F952
:105A1000401B6428F6D9032001B0F0BD20F001003E
:105A20007067FEF7BDF90546706F80077FF570AFB0
:105A3000FEF7B6F9401B02284FF00300F4D9A9E69F
:105A4000A168306F002943D0052939D0012957D1E9
:105A500040F001005AE000BF20F480503060FEF7B3
:105A60009FF90546306880047FF555AFFEF798F939
:105A7000401B02284FF00300F4D98BE6306820F079
:105A800080703060FEF78CF9022D05460CD100BF06
:105A9000306880014CD5FEF783F9401B02284FF097
:105AA0000300F5D976E600BF306880017FF56CAF62
:105AB000FEF776F9401B02284FF00300F4D969E69F
:105AC00040F004003067306F40F001001EE000BF7E
:105AD00020F001003067306F20F004003067FEF7DF
